:100000000C9452010C94690C0C946F010C946F01C8
:100010000C946F010C946F010C946F010C94341BC1
:100020000C946F010C946F010C946F010C946F0190
:100030000C946F010C94A11B0C946F010C946F0134
:100040000C946F010C946F010C946F010C946F0170
:100050000C946F01EDE5E4EEF1F2F3EFEDEE00CD7F
:10006000CEC2CEC520C7CDC0D7C5CDC8C500CFC074
:10007000D0CECBDC00ECF100EEF2EAEB2ECCD2C716
:100080003A00E2EAEB2ECCD2C73A003CEFF3F1F2B1
:10009000EE3E00EEE1EDE0F0F3E6E5EDEE20C1C46A
:1000A000C73A00D1E1F0EEF1E8F2FC3F20E4E02DA8
:1000B00022C2C2CEC42200EDE5F200EDE5F220F14D
:1000C000E2FFE7E800EEF8E8E1EAE000CDC5D22083
:1000D000C3CED2CEC2CDCED1D2C800C2D0C5CCDF25
:1000E00020D3D0CEC200C2D0C5CCDF20CCD2C70036
:1000F000C0C4D0C5D1004E4F4E45004556454E00B8
:100100004F444400D7C5D2CDCED1D2DC00D1CACE27
:10011000D0CED1D2DC00415343494900525455005E
:10012000D0C5C6C8CC00D1C2DFC7DC20525334389A
:100130003500CFD0CEC3D0C0CCCCC8D0CEC2C0CD7D
:10014000C8C500D1CAC0CDC8D0CEC2C0CDC8C500B8
:10015000C4C0D2C02FC2D0C5CCDF00D0C5CBC50033
:10016000C4C2D500C2CEC400C1C4C700CDC0D1D264
:10017000D0CEC9CAC000C0D0D5C8C200CDC020D121
:10018000C2DFC7C800CCC5CDDE00CDC5C8D1CFD039
:10019000C0C2CDCED1D2DC00C0C2C0D0C8DF00D03A
:1001A000C0C1CED2C03100D3D0CEC23A00CCD2C76B
:1001B0003A00CFCEC4CEC6C4C8D2C53A00C2DBD541
:1001C000343A00C2DBD5333A00C2DBD5323A00C242
:1001D000DBD5313A00C2DBD5CEC4DB00D0C5C6C802
:1001E000CC20CFCEC4D2C2C5D0C6C4C5CDC8DF00D6
:1001F000C2DBCACB00C2CACB00C4C2D53300C4C262
:10020000D53200C4C2D53100C2CEC43400C2CEC47F
:100210003300C2CEC43200C2CEC43100C2D5CEC477
:10022000DB00CBCEC3C8CAC020D0C0C1CED2DB0059
:10023000CED8C8C1CAC020E0E4F0E5F120E7E0ED87
:10024000FFF200D1D2C0D0CEC520C7CDC0D7C5CD1A
:10025000C8C500CDCECCC5D020C1C4C700CDCEC24C
:10026000CEC50041A042A1E045A3A4A5A64BA74D41
:10027000484FA8504354A9AA58E1ABACE2ADAE62D6
:10028000AFB0B161B2B3B4E365B6B7B8B9BABBBC8D
:10029000BD6FBE7063BF79E478E5C0C1E6C2C3C478
:1002A000C5C6C70011241FBECFE5D8E0DEBFCDBF55
:1002B00011E0A0E6B0E0ECE8F3E402C005900D9296
:1002C000A236B107D9F725E0A2E6B1E001C01D9240
:1002D000A93EB207E1F70E9414190C94C4210C94B2
:1002E000000028EE33E03093FB042093FA0429E069
:1002F000829FC0011124FC01E957FE4F808182FDDD
:1003000006C08091FA049091FB04892BB9F7809183
:10031000FA049091FB04892B31F0809163018111E3
:1003200002C081E008958FEF0895AC9A8FE99FE0B5
:100330000197F1F700C00000AC988FE99FE00197AA
:10034000F1F700C00000089588E480B986B784649E
:1003500086BF0898089528EE33E0309397052093E0
:10036000960594EA96BF06B607FC08C0209196054C
:1003700030919705232BB9F781E02DC091B1987F7B
:10038000983011F082E027C08E7F83B984E886BF61
:1003900006B607FC07C08091960590919705892BBA
:1003A000B9F7EACF81B1887F883121F4962FFB011C
:1003B00024E802C083E00FC08E2F891B8417A8F4A5
:1003C000819183B926BF06B607FE08C081B1887F38
:1003D000883291F384E08093660107C060919605AE
:1003E00070919705672B79F7C7CF84E986BF8FE8AF
:1003F00091E00197F1F700C0000080916601089537
:10040000982F28EE33E0309397052093960584EAE1
:1004100086BF06B607FC08C0209196053091970567
:10042000232BB9F781E034C081B1887F883011F087
:1004300082E02EC0916093B984E886BF06B607FCBF
:1004400007C08091960590919705892BB9F7EACF5F
:1004500091B1987F903431F420E050E0415051093F
:10046000E4EC08C083E014C033B1DB01A80FB91F6E
:100470003C932F5F822F90E0841795079CF4E6BF92
:1004800006B607FE08C031B1387F303569F384E025
:10049000809366011CC0A0919605B0919705AB2B87
:1004A00079F7C0CF24E826BF06B607FC07C0209125
:1004B000960530919705232BB9F7B4CF21B1287F4A
:1004C000283529F723B1FB01E80FF91F208384EDBC
:1004D00086BF8FE891E00197F1F700C0000080919E
:1004E00066010895CF93DF93CDB7DEB72A970FB695
:1004F000F894DEBF0FBECDBFFC01198285812AE0D2
:10050000622F0E94BA1D392F40E1849FC00111243F
:10051000832B8F778A8384810E94BA1D392F40E113
:10052000849FC0011124832B8B8383810E94BA1D79
:10053000392F40E1849FC0011124832B8C831D82BD
:1005400082810E94BA1D392F40E1849FC00111248D
:10055000832B8E8381810E94BA1D392F40E1849FB5
:10056000C0011124832B8F8380810E94BA1D292F03
:1005700030E1839FC0011124822B888719868AEA83
:100580008A874AE0BE016F5F7F4F80ED0E94AB011A
:1005900091E0811101C090E0892F81952A960FB6D4
:1005A000F894DEBF0FBECDBFDF91CF910895EF92DB
:1005B000FF920F931F93CF93DF93CDB7DEB72897AA
:1005C0000FB6F894DEBF0FBECDBF8C01CE010196F1
:1005D0007C0187E0F70111928A95E9F7188641E0DE
:1005E000BE01685F7F4F80ED0E94AB0147E0B7011D
:1005F00080ED0E940002811144C08981982F92955C
:100600009F708F70FAE09F9F800D1124F801858301
:100610008A81982F92959F708F70FAE09F9F800D2E
:100620001124F80184838B81982F92959F708F708D
:10063000FAE09F9F800D1124F80183838D81982F0C
:1006400092959F708F70FAE09F9F800D1124F801A2
:1006500082838E81982F92959F708F70FAE09F9F72
:10066000800D1124F80181838F81982F92959F70BE
:100670008F70FAE09F9F800D1124F801808380E045
:1006800001C08FEF28960FB6F894DEBF0FBECDBF26
:10069000DF91CF911F910F91FF90EF900895CF932D
:1006A000DF9300D0CDB7DEB71A8288E0898341E0BE
:1006B000BE016F5F7F4F80ED0E94AB0141E0BE0144
:1006C0006E5F7F4F80ED0E940002811107C081E0C4
:1006D0009A819A3A09F480E0819501C08FEF0F90DA
:1006E0000F90DF91CF910895CF92DF92EF92FF921A
:1006F0000F931F93CF93C82F88B3C6FB662760F96B
:1007000070E0660F771F9C2F991F9927991F892BDF
:10071000682BC5FB442740F950E0440F551F440F98
:10072000551F462BC4FB222720F930E053E0220F4F
:10073000331F5A95E1F7242B28BB0E94950188B3FB
:10074000807F88BBC3FB882780F9C0FBCC24C0F81E
:10075000D12C63E0CC0CDD1C6A95E1F7C82AC2FB02
:10076000EE24E0F8F12CEE0CFF1CEC28C1FB002776
:1007700000F910E0000F111F000F111F0E2908BB18
:100780000E94950185B3837E85BB88B3807F88BB3B
:10079000CF911F910F91FF90EF90DF90CF90089530
:1007A0002FEF89EF90E0215080409040E1F700C0AA
:1007B000000088B3807F88BB87B38F6087BB85B319
:1007C000837E85BB84B38C6184BB88B38C6088BB1B
:1007D0000E9495018FE19EE40197F1F700C00000AF
:1007E0000E9495018FE19EE40197F1F700C000009F
:1007F0000E949501C3980E9495018FE39FE10197A4
:10080000F1F700C0000088E20E94740388E00E94B3
:10081000740381E00E94740386E00E94740388B32D
:10082000807F88BB85B3837E85BB08958EE00C9462
:1008300074038FE00C9474038CE00C9474030C9498
:100840001C0481E00E9474031092650110926401FF
:100850008FE19EE40197F1F700C0000008958093B6
:10086000650160936401613039F048F0623031F025
:10087000633029F48C5A03C0805C01C08C5E8068B0
:100880000C947403CF92DF92EF92FF920F931F9319
:10089000CF93DF93C82F803C28F0D0E0FE01ED55C8
:1008A000FE4FC491AA9A88B3C6FB662760F970E030
:1008B000660F771F9C2F991F9927991F892B682BEB
:1008C000C5FB442740F950E0440F551F440F551F06
:1008D000462BC4FB222720F930E053E0220F331FC0
:1008E0005A95E1F7242B28BB0E94950188B3807F9D
:1008F00088BB88B3C3FB992790F9892BC0FBCC2414
:10090000C0F8D12C63E0CC0CDD1C6A95E1F7C82A55
:10091000C2FBEE24E0F8F12CEE0CFF1CEC28C1FB2E
:10092000002700F910E0000F111F000F111F0E2902
:1009300008BB0E94950185B3837E85BB88B3807F09
:1009400088BB809165018F5F843158F48093650185
:10095000DF91CF911F910F91FF90EF90DF90CF909B
:10096000089510926501809164018F5F8093640106
:10097000813039F050F0823031F0833031F484ED41
:1009800005C080EC03C084E901C080E8DF91CF910D
:100990001F910F91FF90EF90DF90CF900C94740314
:1009A0000F931F93CF93DF93D62F8C01C0E0CD1709
:1009B00081F0F80181918F01811107C080E20E94CE
:1009C0004204CF5FCD17D0F304C00E944204CF5F32
:1009D000EECFDF91CF911F910F910895CF92DF92CB
:1009E000EF92FF920F931F93CF93DF93CDB7DEB7B4
:1009F0006B970FB6F894DEBF0FBECDBF7C0162E0EF
:100A000080E00E942F0464E671E0CE0101960E940E
:100A10001B1E66EF70E0CE0101960E942B1EF701AF
:100A200080818F7039F467EB70E0CE0101960E94EF
:100A3000101E2DC080E090E0CC24C394D12CF7018F
:100A40003081A601082E02C0440F551F0A94E2F718
:100A5000232F30E024233523082E02C03595279517
:100A60000A94E2F78C010F5F1F4F232B61F04AE0DD
:100A7000BE016B5E7F4FC8010E94361EBC01CE01D5
:100A800001960E942B1EC80104301105C1F664E1D5
:100A9000CE0101960E94D00462E089E00E942F04FA
:100AA00060E671E0CE0101960E941B1E66EF70E0C9
:100AB000CE0101960E942B1EF7018081807F39F4C0
:100AC00067EB70E0CE0101960E94101E2BC004E07F
:100AD00010E0CC24C394D12CF701808190E09601E2
:100AE000002E02C0220F331F0A94E2F782239323C1
:100AF000002E02C0959587950A94E2F7892B69F03C
:100B00004AE0BE016B5E7F4FC80103970E94361E0C
:100B1000BC01CE0101960E942B1E0F5F1F4F0830B3
:100B20001105D1F664E1CE0101960E94D0046B96C6
:100B30000FB6F894DEBF0FBECDBFDF91CF911F91EE
:100B40000F91FF90EF90DF90CF900895EF92FF927A
:100B50000F931F93CF93DF93CDB7DEB76B970FB68D
:100B6000F894DEBF0FBECDBF7C018B0162E080E058
:100B70000E942F0462E870E0CE0101960E941B1EC5
:100B80008FEFE816F80619F467EB70E00EC04AE044
:100B9000BE016B5E7F4FC7010E94361EBC01CE01B5
:100BA00001960E942B1E65E770E0CE0101960E941F
:100BB000101E64E1CE0101960E94D00463E080E043
:100BC0000E942F0468E770E0CE0101960E941B1E70
:100BD0000F3F8FEF180719F467EB70E00EC04AE083
:100BE000BE016B5E7F4FC8010E94361EBC01CE0164
:100BF00001960E942B1E65E770E0CE0101960E94CF
:100C0000101E64E1CE0101960E94D0046B960FB6CF
:100C1000F894DEBF0FBECDBFDF91CF911F910F9132
:100C2000FF90EF9008950F931F93CF93DF93CDB76D
:100C3000DEB764970FB6F894DEBF0FBECDBFFC01E0
:100C40005581448133812281918180811F925F93FC
:100C50001F924F931F923F931F922F931F929F9328
:100C60001F928F9388EF90E09F938F938E010F5F79
:100C70001F4F1F930F930E948C1E61E080E00E9423
:100C80002F0464E1C8010E94D0040FB6F894DEBFBF
:100C90000FBECDBF64960FB6F894DEBF0FBECDBFBA
:100CA000DF91CF911F910F9108950F931F93CF93D1
:100CB000DF93D62FC0E0CD17A9F0FC0124918C0161
:100CC0000F5F1F4F211107C080E20E944204CF5FD7
:100CD000CD17D0F307C0FC0184910E944204CF5F7E
:100CE000C801E9CFDF91CF911F910F91089562E084
:100CF00080E00E942F0464E18BEB90E00C94550699
:100D0000CF93DF93EC010E942104CE010E94221EAA
:100D1000682FCE010E9455068AE3DF91CF910C9493
:100D2000420487B3806B87BB88B3806B88BB8EE53A
:100D30008DB908958FB988EE93E09093FD04809368
:100D4000FC0477990BC08091FC049091FD04892BE1
:100D5000C1F786E0809363018FEF08958FB1089506
:100D6000C49880EA0E949A0680E00E949A06C49A7B
:100D70000895CF93C82FC49883E00E949A068C2FC1
:100D80000E949A0680E00E949A06C49ACF91089524
:100D90001F93CF93DF93182FD62FC42FC49885E0CD
:100DA0000E949A06812F0E949A068D2F0E949A0611
:100DB0008C2F0E949A06C49ADF91CF911F910895BB
:100DC000CF93DF93D82FC62FC49882E00E949A0653
:100DD0008D2F0E949A068C2F0E949A06C49ADF914A
:100DE000CF91089588EE93E09093FB048093FA04EA
:100DF0008091760181110BC08091FA049091FB04DF
:100E0000892BB1F782E0809363018FEF0895F89406
:100E100080917601815080937601789480917C0155
:100E200090917C019F5F90937C019A3011F4109215
:100E30007C0108959F92AF92BF92CF92DF92EF9282
:100E4000FF920F931F93CF93DF93D82FC92FB62E06
:100E50000E94F2069DE0899FF0011124EC5EFA4F9A
:100E6000C080D180E280F3800D2F1C2F9DE0A92E41
:100E70002DE0922EB11003C08D2F9C2F41C040E079
:100E8000A89EF0011124EC5EFA4FBF016C5F7F4F0A
:100E9000DB018C91242F30E0481760F4CF01820FE2
:100EA000931FDC0115968C91200F311FD9018C9373
:100EB0004F5FEECF200F311FD90111978C918823FE
:100EC000D9F28481080F111D0E94F20690916301EE
:100ED000911114C0989EF0011124EC5EFA4F4081EC
:100EE000518162817381BA94C416D506E606F7066D
:100EF00009F283E08093630180E002C080E090E02B
:100F0000DF91CF911F910F91FF90EF90DF90CF90E5
:100F1000BF90AF909F900895AF92BF92CF92DF9213
:100F2000EF92FF920F931F93CF93DF936B017C019E
:100F3000142F59010E94B006DC2DD295DD0FD07E12
:100F4000902F9870D92BB701A601EBE176956795A4
:100F500057954795EA95D1F74370D42B86FF0BC080
:100F600084FF0BC082FD02C0C1E008C085E0809311
:100F700063018FEF58C0C3E001C0C2E0F894C49889
:100F800082E00E949A068C2F8295807F805E0E946C
:100F90009A06802F83700E949A06D701C60123E02B
:100FA000B695A795979587952A95D1F70E949A06A9
:100FB0008D2F0E949A06D701C60133E1B695A795F9
:100FC000979587953A95D1F70E949A06D701C60161
:100FD0004BE0B695A795979587954A95D1F70E94CE
:100FE0009A06812F0E949A067501D0E0D11749F028
:100FF000D83039F0F70181917F010E949A06DF5FB6
:10100000F5CFC49A02FF0DC0C4982FEF2C0F81E0DA
:1010100090E001C0880F2A95EAF780680E949A063E
:10102000C49A78948C2FDF91CF911F910F91FF90EC
:10103000EF90DF90CF90BF90AF9008958F929F92E6
:10104000AF92BF92EF92FF920F931F93CF93DF93D4
:101050007C01C62F49015A01162F16951695169533
:10106000D0E0D11791F00FEF970148E0C501B4012E
:101070000E948C0780916301882311F08FEF13C0C9
:1010800088E0E80EF11CDF5FECCF4C2F477031F0A9
:101090000FEF9701C501B4010E948C078091630195
:1010A0008111ECCF81E0DF91CF911F910F91FF90E3
:1010B000EF90BF90AF909F908F9008952F923F92A6
:1010C0004F925F926F927F928F929F92AF92BF9258
:1010D000CF92DF92EF92FF920F931F93CF93DF9304
:1010E00000D000D01F92CDB7DEB71C018B015D830D
:1010F0004C8379010E94B00680FD07C00E94B006B3
:1011000081FD05C080E090E091C080E001C081E0F9
:10111000C49890E0880F991F880F991F80690E94DA
:101120009A0680E00E949A06882E912CA12CB12C60
:1011300080E00E949A068983482E512C612C712CE4
:1011400080E00E949A068A8380E00E949A068B8340
:1011500080E00E949A06EC81FD8180831D821C82C2
:10116000CC80DD80C00ED11E80E00E949A06F60180
:1011700080838C819D8101969D838C83089781F764
:10118000C49A998193FF0BC0EA814E2F50E060E032
:1011900070E0FB818F2F90E0A0E0B0E006C080E01F
:1011A00090E0DC0140E050E0BA01F10110821182D0
:1011B0001282138229812370A22B762F652F542F40
:1011C0004427482B592B6A2B7B2BABE0440F551F30
:1011D000661F771FAA95D1F7B5E076946794579468
:1011E0004794BA95D1F783E0880C991CAA1CBB1CC4
:1011F0008A95D1F784289528A628B72848295929FF
:101200006A297B294083518362837383F7011082AB
:101210008DE20E94B906807CF7019081892B808342
:1012200040E060EC8DE20E94C806C8010F900F906C
:101230000F900F900F90DF91CF911F910F91FF9022
:10124000EF90DF90CF90BF90AF909F908F907F9066
:101250006F905F904F903F902F900895CF93DF93C2
:101260001F92CDB7DEB71982409177016091770167
:10127000909177018DE0849FA0011124485E5A4F20
:10128000869FB0011124675E7A4F899FC0011124A7
:101290009E012F5F3F4F8C5E9A4F0E945E088091A7
:1012A00077018F5F809377018A3011F41092770174
:1012B000809176018F5F809376018A3019F41092C5
:1012C000760103C08981807C29F085E080936301E9
:1012D0008FEF01C081E00F90DF91CF910895CF9201
:1012E000DF92EF92FF92CF93DF93D82F6A017B01B9
:1012F000DB01CA012BE1B695A795979587952A95AD
:10130000D1F7C82FC370842F8295880F807EC82B99
:10131000C49882E00E949A068D2F0E949A06D701F7
:10132000C60133E0B695A795979587953A95D1F77D
:101330000E949A068C2F0E949A06D701C60143E1AB
:10134000B695A795979587954A95D1F70E949A06E5
:10135000D701C6015BE0B695A795979587955A95F5
:10136000D1F70E949A06C49ADF91CF91FF90EF9037
:10137000DF90CF900895CF92DF92EF92FF92CF93BC
:10138000DF93D82F6A017B01C42FC295CC0FC07E9A
:101390002870C22B8BE176956795579547958A956E
:1013A000D1F74370C42BC49882E00E949A068D2F17
:1013B0000E949A06D701C60123E0B695A795979596
:1013C00087952A95D1F70E949A068C2F0E949A063B
:1013D000D701C60133E1B695A795979587953A95BC
:1013E000D1F70E949A06D701C6014BE0B695A795A2
:1013F000979587954A95D1F70E949A06C49ADF91EE
:10140000CF91FF90EF90DF90CF9008958A98929AB5
:1014100085B78C7F85BF8BB780648BBF08951FBC59
:101420008AE08EBD1DBC1CBC17BC16BC87E08BBD02
:1014300080ED8ABD19BC18BC89B7806189BF089549
:10144000CF93C82F0E949106BC9AC49AC49880EC8E
:101450000E949A06C49A40E860E889E20E94C806A1
:1014600065E08AE20E94E00669E889E20E94E006FF
:1014700062E088E20E94E00643E063E08BE20E94C3
:10148000C8064C2F6FEF8FE00E94C8068EE00E94C6
:10149000B906807EC81302C0C1E001C0CFEF44E0AE
:1014A00064E080E60E94C8068C2FCF910895CF9209
:1014B000DF92EF92FF92CF93F89484B38F7184BB45
:1014C00085B3806E85BB81B3877C81BB82B3886323
:1014D00082BBD49ADC98D59ADD9A8AB38F608ABB96
:1014E0008BB38F608BBB0E94D0030E941C040E94B0
:1014F00021040E94A4018EE095E00E94D7020E9480
:101500004F0387FF03C082E08093670182E090E091
:101510000E9457216B017C0181E090E00E944F21E5
:10152000C82F80E090E00E944F21A70196016C2F08
:101530000E94F91B579A0E94060A0E940F0A78948B
:101540002FEF89E698E1215080409040E1F700C0FC
:10155000000080E00E94200A18161CF083E08093AF
:101560006701CF91FF90EF90DF90CF9008950F9398
:10157000CF93DF93CDB7DEB727970FB6F894DEBFD2
:101580000FBECDBF81E090E039E022E0389FF0014E
:10159000399FF00D1124E158FE4F208701968336C4
:1015A0009105A1F781E08983809110058A8380915C
:1015B0000F058B8380910E058C83809111058D839F
:1015C000809112058E83809113058F8307EF9E0112
:1015D0002F5F3F4F47E060E070E0CB010E948C0737
:1015E00027960FB6F894DEBF0FBECDBFDF91CF9127
:1015F0000F910895EF92FF920F931F93CF93DF9374
:1016000000D000D0CDB7DEB78091690180618093B2
:10161000690101E010E099E0F92E60E0C801875F00
:101620009F4F0E946321F09EF001F19EF00D112466
:10163000E158FE4F17820F5F1F4F0336110569F700
:10164000E199FECF0E94B70A2FEF81EE94E021507E
:1016500080409040E1F700C000000E9421046CE04F
:1016600083E491E00E94550618E08EE20E94420455
:101670002FEF89E698E1215080409040E1F700C0CB
:101680000000115091F71092690101E010E0F12C77
:1016900089E0E82EE09EF001E19EF00D1124E15872
:1016A000FE4F6781601306C0C801875F9F4F0E948D
:1016B0006321F3940F5F1F4F0336110559F762E062
:1016C00080E00E942F0460E183E990E00E945506CB
:1016D0004AE0BE016F5F7F4F8F2D90E00E94361E63
:1016E00063E00E94D0040E94B70A2FEF87EA91E6D8
:1016F000215080409040E1F700C0000080E395E772
:1017000090937E0180937D01109267010F900F905E
:101710000F900F90DF91CF911F910F91FF90EF905D
:1017200008950F931F93CF93DF9300D0CDB7DEB70B
:10173000162F813011F085E001C084E0898389E0B3
:10174000189FF0011124E158FE4F82E080874A8300
:10175000612F70E080E090E007EF9E012F5F3F4F28
:1017600042E00E948C07812F0E9471010F900F9020
:10177000DF91CF911F910F9108950F931F93CF93F6
:10178000DF9300D000D000D0CDB7DEB7182F86E0B1
:101790009E012F5F3F4FF901982F11929A95E9F71B
:1017A00089836115710561F489E0189FF0011124A6
:1017B000E158FE4F82E08087672B79F441E00EC04C
:1017C000F90180E090E0DB01A80FB91F4C91419333
:1017D000019686309105B9F7E7CF46E0812F90E07A
:1017E000A0E0B0E007EFBC01CD010E948C071123FF
:1017F00021F0812F0E94710101C081E026960FB671
:10180000F894DEBF0FBECDBFDF91CF911F910F9136
:1018100008950F931F93CF93DF9300D000D000D093
:10182000CDB7DEB7182F86E09E012F5F3F4FF9013D
:10183000982F11929A95E9F7898389E0189FF00112
:101840001124E158FE4F82E08087612F70E080E034
:1018500090E007EF42E00E948C07112321F0812FD6
:101860000E94710101C081E026960FB6F894DEBF98
:101870000FBECDBFDF91CF911F910F9108950F93B0
:101880001F93CF93DF931F92CDB7DEB7182F6983D5
:1018900089E0189FF0011124E158FE4F82E0808713
:1018A000612F70E080E090E007EF9E012F5F3F4FD7
:1018B00041E00E948C078981823021F0812F0E94B3
:1018C000710101C081E00F90DF91CF911F910F91C5
:1018D00008951F920F920FB60F9211248F929F922C
:1018E000AF92BF92CF92DF92EF92FF922F933F93EE
:1018F0004F935F936F937F938F939F93AF93BF9318
:10190000EF93FF93CF93DF93CDB7DEB72E97DEBF74
:10191000CDBF9E01225F3F4FAE014B5F5F4FBE01C7
:101920006A5F7F4FCE0101960E945E088091690137
:1019300089809A80AB80BC8084FF11C0D501C4012E
:101940008F779927AA27BB2729E0289FF001299F95
:10195000F00D1124E158FE4F882D8F778783750194
:101960006401E894C7F8DD24EE24FF24C601875FF4
:101970009F4F0E944F2190E0A0E0B0E0C816D9062A
:10198000EA06FB0621F084E08093670140C089E00D
:101990008C9DF0018D9DF00D1124E158FE4F808546
:1019A0008460808792FE03C080858062808791FC7E
:1019B0000BC089E08C9DF0018D9DF00D1124E15844
:1019C000FE4F80858160808790FE0BC089E08C9DF2
:1019D000F0018D9DF00D1124E158FE4F80858D7F23
:1019E00080874D81FE01369680E090E059E05C9D55
:1019F00090015D9D300D112421583E4F841738F41D
:101A00005191D901A80FB91F5C930196F7CF2E967B
:101A10000FB6F894DEBF0FBECDBFDF91CF91FF911F
:101A2000EF91BF91AF919F918F917F916F915F9156
:101A30004F913F912F91FF90EF90DF90CF90BF900B
:101A4000AF909F908F900F900FBE0F901F901895A2
:101A50001F93CF93DF93182FCCE6D0E0CE010E94E6
:101A60004F21811739F0219680E0CF3CD807B1F79C
:101A700081E001C080E0DF91CF911F91089520B3F4
:101A800083B328732695807E282B2C3F19F420934E
:101A9000620132C080916201281771F0DC9A8AE0FD
:101AA00090E0EFE9FFE03197F1F700C00000019707
:101AB000C1F7DC982093620180E395E790937E0163
:101AC00080937D0182E090E061E070E030E0AB0166
:101AD000082E02C0440F551F0A94E2F742235323F5
:101AE000082E02C0559547950A94E2F7452B29F038
:101AF00001968830910559F78FEF0895CF930E9492
:101B00003F0DC82F8F3F41F480917D0190917E0160
:101B1000892BA9F78FEF05C00E943F0D8F3FE1F79A
:101B20008C2FCF910895CF92DF92EF92FF921F9367
:101B3000CF93DF9300D0CDB7DEB783E592E00E946C
:101B4000800610E087E1E82E81E0F82ECE010196B4
:101B50006C0162E080E00E942F041F921F93FF92AD
:101B6000EF92DF92CF920E948C1E64E0C6010E9429
:101B7000D0040E947E0D0F900F900F900F900F9049
:101B80000F908530C9F068F4823019F7812F0F90DB
:101B90000F90DF91CF911F91FF90EF90DF90CF904A
:101BA0000895863029F08F3FA1F60C940000D1CF24
:101BB000112331F01150CDCF133621F01F5FC9CF63
:101BC00013E6C7CF10E0C5CF4F925F926F927F921E
:101BD0008F929F92AF92BF92CF92DF92EF92FF923D
:101BE0000F931F93CF93DF9300D000D000D0CDB7D9
:101BF000DEB7482E0E94FA0A01E010E0512CF12CC9
:101C000049E0E42EC801875F9F4F0E944F21801357
:101C10000FC0E09EF001E19EF00D1124E158FE4F4F
:101C2000908592FF05C0F39421E0F21201C0582E76
:101C30000F5F1F4F0336110529F7FF2009F449C133
:101C400031E03F151CF40E94930D582E411013C033
:101C5000511013C062E080E00E942F0464E184E52B
:101C600090E00E9455068FEF97EAE1E681509040A0
:101C7000E040E1F71BC05520E1F060E070E0852D09
:101C80000E94BD0B87FD09C029E0529EF00111247E
:101C9000E158FE4F8081863061F00E9477063FEF69
:101CA00087EA91E6315080409040E1F700C00000A3
:101CB00010C1E1E04E1601F14E1688F0F2E04F122D
:101CC00008C189E0589EF0011124E158FE4F84813B
:101CD000E580F12CF82A8FEF838382831AC029E0F4
:101CE000529EF0011124E158FE4FE180F12C33E6C1
:101CF000832E912C81E012C039E0539EF001112413
:101D0000E158FE4F8281E380F12CF82A8FEF858322
:101D1000848320E3822E25E7922E8AE000E010E003
:101D2000FE0131966F019CE1692E91E0792EA82E7B
:101D3000B12C0E942104E114F10481F160E080E003
:101D40000E942F0460E183E492E00E9455068AE33A
:101D50000E944204FF92EF927F926F92DF92CF92A5
:101D60000E948C1E61E080E00E942F04F601019029
:101D70000020E9F73197BF016C197D09C6010E9467
:101D8000D0040F900F900F900F900F900F90442061
:101D900029F062E085E790E00E94550662E080E06D
:101DA0000E942F046EE08FE590E00E9455068AE3C2
:101DB0000E9442041F930F937F926F92DF92CF9203
:101DC0000E948C1E63E080E00E942F04F6010190C7
:101DD0000020E9F73197BF016C197D09C6010E9407
:101DE000D0040F900F900F900F900F900F90442001
:101DF00029F062E085E790E00E9455060E947E0D82
:101E00008530E1F030F4823001F1833009F461C0B3
:101E100090CF863031F08F3F09F08BCF0C940000CB
:101E200088CF81E090E0442011F080E090E08017BE
:101E300091070CF07ECF0A191B097BCF08151905F5
:101E40000CF077CF0A0D1B1D74CFC52CD12CF9E0F7
:101E50005F9EC00111249C0121583E4F790186E00C
:101E6000F9018083F1E04F16F9F04F1638F022E0C7
:101E700042122FC0F7011483058319C0C801875F80
:101E80009F4F0E944F21882361F00E94210460E04F
:101E900080E00E942F0464E180E392E00E945506F6
:101EA000FECEF701018303C0F9011283038389E0A9
:101EB0008C9DB0018D9D700D112461587E4F852D34
:101EC0000E94BD0B87FF03C0012B09F0E6CE0E94E4
:101ED000FA0A26960FB6F894DEBF0FBECDBFDF918B
:101EE000CF911F910F91FF90EF90DF90CF90BF9017
:101EF000AF909F908F907F906F905F904F900895DC
:101F000082E00C94E40D81E00C94E40D80E00C94EC
:101F1000E40DCF92DF92EF92FF920F931F93CF9336
:101F2000DF93CDB7DEB7A6970FB6F894DEBF0FBE2E
:101F3000CDBF86E0E4EEF0E0DE01919601900D92D7
:101F40008A95E1F78CE0EAEEF0E0DE01559601902B
:101F50000D928A95E1F780E591E00E9480068EE07F
:101F600095E00E94D70287FF03C082E0809367015B
:101F700010E05FE1C52E51E0D52ECE0101967C0127
:101F8000809113051F928F93809112051F928F935A
:101F9000809111051F928F9380910E051F928F9350
:101FA00080910F051F928F93809110051F928F9340
:101FB000DF92CF92FF92EF920E948C1E63E080E04E
:101FC0000E942F0462E1C7010E94D00463E0812FC8
:101FD000880F810F0E942F0484E80E94420401E0D0
:101FE0000FB6F894DEBF0FBECDBF123008F000E090
:101FF0000E947E0D8530B1F030F4823009F443C088
:10200000843059F044C0863029F1873009F03FC050
:10201000153008F0B5CF1F5FB3CF112309F4B0CF4F
:102020001150AECF212F30E0F901EE0FFF1FEE0D62
:10203000FF1D0488F589E02D8081A1E2B0E0AC0F9E
:10204000BD1FA20FB31F9C91891710F48F5F19C099
:10205000008396CF812F90E0FC01EE0FFF1FEE0D65
:10206000FF1D0488F589E02D2081021718F4215006
:10207000208386CFA1E2B0E0AC0FBD1FA80FB91F2F
:102080008C9180837DCF8EE095E00E947202A696AF
:102090000FB6F894DEBF0FBECDBFDF91CF911F9179
:1020A0000F91FF90EF90DF90CF9008950F931F93C3
:1020B000CF9384E091E00E94800681E090E00E944E
:1020C0004F21C82F00E010E060E08AE00E942F045A
:1020D000C03219F1C03361F0C1110DC006EF10E03C
:1020E000C0E009C0C03239F560E08AE00E942F04E8
:1020F00000E011E0C0E365E0C8010E9455060E94BF
:102100007E0D853079F3863061F4CC2369F3C033DA
:10211000D9F660E08AE00E942F040BEF10E0C0E2E5
:10212000EACF823079F46C2F81E090E0CF911F915B
:102130000F910C946321C03339F660E08AE00E946D
:102140002F04CCCFCF911F910F910895CF92DF92A2
:10215000EF92FF92CF93DF93CDB7DEB727970FB6FD
:10216000F894DEBF0FBECDBF82E090E00E94572101
:102170006B017C018DE091E00E94800660E08AE0C6
:102180000E942F042AE0AE014F5F5F4FC701B601E6
:102190000E94411E65E00E94D0040E947E0D8530A1
:1021A00059F08630A9F08230F9F4B701A60182E037
:1021B00090E00E94702118C0C1148CE2D80681E022
:1021C000E806F104D8F6CC0CDD1CEE1CFF1CD6CFC3
:1021D00081E8C81685E2D806E104F10478F2F694A5
:1021E000E794D794C794CACF27960FB6F894DEBF6A
:1021F0000FBECDBFDF91CF91FF90EF90DF90CF90DA
:102200000895CF9380E291E00E94800680E090E004
:102210000E944F21C82F60E08AE00E942F0465E0F1
:10222000C11103C08CE191E002C086E191E00E94FF
:1022300055060E947E0D853051F0863061F0823067
:1022400071F46C2F80E090E0CF910C946321C11168
:10225000E2CFC1E0E0CFC130F1F6C0E0DCCFCF91FA
:1022600008952F923F924F925F926F927F928F923A
:102270009F92AF92BF92CF92DF92EF92FF920F9315
:102280001F93CF93DF93CDB7DEB7C856D1090FB6F2
:10229000F894DEBF0FBECDBF4C01CE0101967C018C
:1022A00083E6F70111928A95E9F7A62E81E090E086
:1022B0006C0102C0CC0CDD1C6A95E2F701E010E075
:1022C000412C89E0782EC801875F9F4F0E944F21E3
:1022D000801318C0709EF001719EF00D1124E1581A
:1022E000FE4F208530E02C213D210A2C02C035957F
:1022F00027950A94E2F7232B29F0F701E40DF11D4D
:10230000808343940F5F1F4F03361105E1F6612C64
:10231000512C77247394042D10E06E01F4E6CF0E57
:10232000D11C180121E0221A3108C4010E94800644
:102330004AE0B601C8010E94361EF6010190002055
:10234000E9F76E2F6C19C6010E94D00463E088E69D
:1023500091E00E9455065701A50CB11C412CF501D6
:1023600021915F01A9962FAFA9972223C9F0439429
:10237000642D81E00E942F0464E088E691E00E94D1
:1023800055064AE0B601A996EFADA9978E2F90E0C9
:102390000E94361E63E00E94D004F3E04F12DFCFAC
:1023A000672D80E00E942F0484E80E9442040E946E
:1023B0007E0D8530F1F038F4823031F1833009F050
:1023C000B4CF80E025C0863031F08F3F09F0ADCF2B
:1023D0000C940000AACF862D90E0821593050CF096
:1023E000A4CF639482E0871510F073949ECF53942A
:1023F0009CCF662009F499CF6A9491E0791611F088
:102400007A9493CF5A9491CFF701E60DF11D808114
:10241000C859DF4F0FB6F894DEBF0FBECDBFDF91B6
:10242000CF911F910F91FF90EF90DF90CF90BF90D1
:10243000AF909F908F907F906F905F904F903F9064
:102440002F90089562E08CE791E00C943111CF92C7
:10245000DF92FF920F931F93CF93DF93CDB7DEB739
:10246000A9970FB6F894DEBF0FBECDBFF82ED62EBB
:1024700086E791E00E94800664E088E691E00E9491
:1024800055060F2D10E04AE0BE016D5D7F4FC8017B
:102490000E94361E63E00E94D00460E082E10E9448
:1024A0002F048D2D90E04AE0BE016D5D7F4F0196B7
:1024B0000E94361E62E00E94D0044D2D6F2D81E0F7
:1024C0000E94910B87FF03C00E9477061CC089E021
:1024D000809FF001819FF00D1124E158FE4F808113
:1024E000843011F080E0C6C0DE01559680E090E0B7
:1024F000AF019A01280F391FF90120812D93019610
:1025000087309105B1F74D2D6F2D82E00E94910B20
:1025100087FF07C00E947706F12CCC24C394D12CEE
:1025200051C089E0809FF001819FF00D1124E15896
:10253000FE4F80818530B1F6DE015C9680E090E050
:10254000AF019A01280F391FF90120812D930196BF
:1025500087309105B1F7E0CFCE0146960E94130671
:10256000F1103DC0CE014D960E94EE0463E080E084
:102570000E942F046BE571E0CE0101960E941B1EA4
:1025800066EF70E0CE0101960E942B1E8E8D8F703B
:10259000B1F567EB70E0CE0101960E94101E64E178
:1025A000CE0101960E94D0040E947E0D873008F073
:1025B0004FC0853008F05EC0833009F45BC08430C2
:1025C00009F453C0888D8F3F39F662E080E00E94A5
:1025D0002F0467E08BE890E00E945506E5CFF1E01C
:1025E000FF12E2CF69A17AA17627672776278F8D20
:1025F00098A19827892798270E94A605D5CF80E023
:1026000090E02E8D30E0A601082E02C0440F551F29
:102610000A94E2F724233523082E02C03595279526
:102620000A94E2F78C010F5F1F4F232B61F04AE001
:10263000BE016D5D7F4FC8010E94361EBC01CE01F8
:1026400001960E942B1EC80104301105D1F6A7CFB8
:10265000873031F08F3F09F0B5CF0C940000B2CF36
:10266000F110B0CFFF24F394ADCFFF2009F4AACF2F
:10267000FA94A8CFA9960FB6F894DEBF0FBECDBFCF
:10268000DF91CF911F910F91FF90DF90CF90089530
:10269000CF93DF9362E086E791E00E943111D82F5B
:1026A000882391F0C0E06C2F8D2F0E942712853077
:1026B00019F0863029F008C0CC23A9F3C150F3CF1C
:1026C000CF3188F7CF5FEFCFDF91CF910895CF93D0
:1026D000C82F0E947E0D0E94210464E183EA90E0ED
:1026E0000E9455060E947E0D823029F462E08C2FF4
:1026F000CF910C943F0CCF910895EF92FF921F93CE
:10270000CF93DF9300D000D0CDB7DEB761E08AE889
:1027100091E00E943111182F882309F44CC08AE8F7
:1027200091E00E94800664E088E691E00E945506F0
:10273000E12EF12C4AE0BE016F5F7F4FC7010E947E
:10274000361E63E00E94D00463E0812F0E943F0C9C
:1027500087FF03C00E94770627C029E02E9DC00195
:102760002F9D900D11249C0121583E4F7901F901B4
:102770002081233001F580589E4F0E94EE0463E0D3
:1027800080E00E942F0467E085EC90E00E945506EF
:10279000F70182814AE0BE016F5F7F4F90E00E94A7
:1027A000361E62E00E94D0040E947E0D833019F430
:1027B000812F0E9467130F900F900F900F90DF9161
:1027C000CF911F91FF90EF9008958F929F92AF92BB
:1027D000BF92CF92DF92EF92FF920F931F93CF930E
:1027E000DF9300D000D01F92CDB7DEB788E991E02B
:1027F0000E948006AA24A394B12C10E000E0EE24ED
:10280000EA94FE2CCC24CA94DC2C39E0832EC5013A
:10281000875F9F4F0E944F21982E8A112FC08A9C5C
:10282000F0018B9CF00D1124E158FE4F808580FF54
:1028300025C0111101C0192D0F5F40E0692D82E004
:102840000E94910B87FF03C00E94770617C08A9CE5
:10285000F0018B9CF00D1124E158FE4F80818530F2
:1028600069F42381848190E0922B8C159D0530F4CE
:102870002581E680F12CF22A192D6C012FEFA21A86
:10288000B20A83E6A816B10411F6BE016F5F7F4F4E
:10289000FB0101900020E9F731975F01A61AB70A02
:1028A0004AE0802F90E00E94361E62E06A0D0E948E
:1028B000D00464E088E691E00E9455061123E1F01F
:1028C00040E0612F81E00E94910B87FF03C00E94CE
:1028D000770612C029E0129FC0011124FC01E158C3
:1028E000FE4F2081243041F480589E4F0E941306F1
:1028F000B701C6010E94A6050E947E0D833029F013
:102900008F3F59F18230C1F706C0002331F180E0DA
:102910000E94671322C0002301F160E088E991E082
:102920000E943111082F8823C1F010E0612F802F01
:102930000E942712853049F018F4833071F0F6CFE9
:10294000863039F08F3F49F0F1CF112379F31150E0
:10295000EDCF1F3158F71F5FE9CF0F900F900F9009
:102960000F900F90DF91CF911F910F91FF90EF90FB
:10297000DF90CF90BF90AF909F908F9008957F92FF
:102980008F929F92AF92BF92CF92DF92EF92FF927F
:102990000F931F93CF93DF93CDB7DEB764970FB636
:1029A000F894DEBF0FBECDBF5C01E12CF50124E041
:1029B000E29EE00DF11D112484819581892B11F097
:1029C000E394F4CF01E0F12C11E0F50180819181D5
:1029D0000E948006C501F4E0FF9E800D911D112428
:1029E0009C012C5F3F4F6901912CF60120813181C0
:1029F0002115310529F1DE01119680E090E07A2E53
:102A00008B2EF901E80FF91F4491403C18F0E49136
:102A1000E05E01C0E491ED9301968331910589F761
:102A20009394692D81E00E942F0463E1872D982DF6
:102A30000E94D004F4E0CF0ED11C23E09212D5CF37
:102A4000612F80E00E942F0484E80E9442040E94CB
:102A50007E0D853061F1C8F4823099F1833009F040
:102A6000B4CF64960FB6F894DEBF0FBECDBFDF9132
:102A7000CF911F910F91FF90EF90DF90CF90BF907B
:102A8000AF909F908F907F900895863031F08F3F68
:102A900009F09BCF0C94000098CF0E1508F095CF4D
:102AA0000F5F133010F41F5F90CFF3948ECF02307E
:102AB00008F48BCF0150113011F0115086CFFA94E9
:102AC00084CFF50134E0039FE00DF11D1124028055
:102AD000F381E02D099579CF0F931F93CF93DF9367
:102AE0000E94FA0AC1E0D0E010E009E0CE01875F61
:102AF0009F4F0E944F218C130AC00C9FF0010D9F25
:102B0000F00D1124E158FE4F808582FD1F5F219654
:102B1000C336D10559F7123038F00E94930D90E07A
:102B200090937901809378018CE790E0DF91CF91C9
:102B30001F910F910C94BF14CF92DF92EF92FF92EE
:102B4000CF9380EA90E00E94BF1482E090E00E9460
:102B500057216B017C0181E090E00E944F21C82F3A
:102B600080E090E00E944F21A70196016C2FCF9149
:102B7000FF90EF90DF90CF900C94F91B8CEC90E0DD
:102B80000C94BF146F927F928F929F92AF92BF92DC
:102B9000CF92DF92EF92FF920F931F93CF93DF9329
:102BA00000D000D01F92CDB7DEB733E0732EEE24F5
:102BB000E394F12C00E010E05EE3C52E51E0D52E49
:102BC000CE0101965C016AE0862E912C7AE0672E98
:102BD0008EE690E00E94800662E080E00E942F0472
:102BE0001F930F93DF92CF92BF92AF920E948C1EE1
:102BF00064E0C5010E94D00462E0872D0E942F048A
:102C00000E9419040E947E0D0F900F900F900F905C
:102C10000F900F908530C1F040F4833009F457C015
:102C2000E8F4823009F445C0D3CF873069F128F049
:102C30008F3F71F60C940000CBCF0E191F0917FFC0
:102C4000C7CF0FE017E2C4CF0E0D1F1D0F3097E264
:102C500019070CF4BDCF00E010E0BACF88EEE816FB
:102C600083E0F8063CF4C701689E7001699EF00C91
:102C7000112403C0EE24E394F12C711003C023E06F
:102C8000722EA6CF7A94A4CF92E0E916F10434F024
:102C9000C701B4010E94C61D7B0104C088EEE82E66
:102CA00083E0F82E83E0781202C0712C91CF7394E8
:102CB0008FCF0E941C0487E090E00E945D210817DE
:102CC000190739F484EB90E00E94BF1402C00E94FF
:102CD0001C040F900F900F900F900F90DF91CF91E9
:102CE0001F910F91FF90EF90DF90CF90BF90AF902A
:102CF0009F908F907F906F900895EF92FF920F9327
:102D00001F93CF93DF93CDB7DEB76E970FB6F894CE
:102D1000DEBF0FBECDBFCE0101967C018EE1F70173
:102D200011928A95E9F7EDEAF1E085919491898312
:102D3000E7EAF1E0859194918B87E0EFF1E0E4918F
:102D4000ED8B8CED91E00E94800660E081E00E94B6
:102D50002F0464E183E491E00E94D00462E085E006
:102D60000E942F0410E00AE062E080E00E942F043D
:102D700064E1C701019F800D911D11240E94D004C0
:102D80000E947E0D8530F1F080F48250823060F731
:102D90006E960FB6F894DEBF0FBECDBFDF91CF9118
:102DA0001F910F91FF90EF900895863029F08F3F8B
:102DB000D9F60C940000D8CF123011F410E0D4CF23
:102DC0001F5FD2CF111102C012E0CECF1150CCCF75
:102DD0005F926F927F928F929F92AF92BF92CF92AB
:102DE000DF92EF92FF920F931F93CF93DF9300D068
:102DF00000D000D0CDB7DEB7582E82E292E00E941C
:102E0000800661E080E00E942F0484E80E94420472
:102E100061E081E00E942F046AE085ED91E00E946C
:102E2000550662E081E00E942F0464E18CED91E0A0
:102E30000E94550677247394CC24C394D12C852CFE
:102E4000912C39E0632ECE0101965C010E947E0D2B
:102E5000853009F440C0D8F4823009F460C0833072
:102E6000A9F726960FB6F894DEBF0FBECDBFDF914F
:102E7000CF911F910F91FF90EF90DF90CF90BF9077
:102E8000AF909F908F907F906F905F900895863065
:102E900029F08F3FD9F60C940000D8CF92E0791238
:102EA00011C062E080E00E942F0480E20E94420490
:102EB00061E080E00E942F0484E80E9442047724AD
:102EC0007394C4CF672D80E00E942F0480E20E949B
:102ED000420473941CC0E1E07E1211C061E080E006
:102EE0000E942F0480E20E94420462E080E00E947F
:102EF0002F0484E80E94420492E0792EA7CF672D28
:102F000080E00E942F0480E20E9442047A94672DA0
:102F100080E00E942F0484E80E94420497CFF1E0F1
:102F20007F1254C16091780170917901611571052A
:102F3000E1F196E0F501292F11922A95E9F799839D
:102F4000669EF001679EF00D1124E158FE4F8087C8
:102F5000072E000C880B990B07EF950142E00E94A9
:102F60008C0782EB91E00E948006809178010E949C
:102F7000710187FD0EC08091780190917901689E62
:102F8000F001699EF00D1124E158FE4F80818630DA
:102F900061F00E9477068FEF97EAE1E6815090405A
:102FA000E040E1F700C0000051CF8091780190919E
:102FB0007901009759F0689EF001699EF00D112487
:102FC000E158FE4FE80DF91DE08001C0E12C85EDD0
:102FD00091E00E94800661E080E00E942F0484E876
:102FE0000E94420461E081E00E942F0465E08FECC2
:102FF00091E00E94550661E08BE00E942F0465E09D
:1030000089EC91E00E94550662E081E00E942F0465
:1030100065E083EC91E00E94550662E08BE00E943F
:103020002F0465E08DEB91E00E945506F12C01E044
:1030300010E061E086E00E942F0464E0E0FE03C03F
:1030400085EF91E002C080EF91E00E94550661E0BB
:1030500080E10E942F0464E0E1FE03C085EF91E06F
:1030600002C080EF91E00E94550662E086E00E9477
:103070002F0464E0E2FE03C085EF91E002C080EF20
:1030800091E00E94550662E080E10E942F0464E016
:10309000E3FE03C085EF91E002C080EF91E00E9463
:1030A000550663E080E00E942F040E947E0D85306B
:1030B00089F038F4823008F4BCCF843008F4C6CEEE
:1030C00044C0873011F130F08F3F09F0B2CF0C943B
:1030D0000000AFCF8E2D90E00F2C02C09595879504
:1030E0000A94E2F780FF09C0C6010F2C01C0880FC7
:1030F0000A94EAF78095E8229CCFC6010F2C01C004
:10310000880F0A94EAF7E82A94CF1123A1F002303D
:1031100009F460C0602F812F0E942F0480E20E947A
:1031200042040F5FF394602F80E00E942F0484E834
:103130000E9442047DCF602F812F0E942F0480E2E5
:103140000E944204F394165F23C0812F90E00A97F7
:10315000A4F4013009F450C0602F812F0E942F0485
:1031600080E20E9442040150FA94602F8AE00E949B
:103170002F0484E80E94420427C0112389F0602FA5
:10318000812F0E942F0480E20E944204FA941A5078
:10319000602F812F0E942F0484E80E94420449CFAF
:1031A000013009F046CF61E080E00E942F0480E208
:1031B0000E94420462E08AE00E942F0484E80E9498
:1031C000420483E0F82E02E01AE033CF852D0E94FE
:1031D0007D163CCE1A3009F0AECF62E08AE00E9444
:1031E0002F0480E20E94420461E080E00E942F04EC
:1031F00084E80E9442041ACF1111C1CFD4CF87E0D6
:103200000C94E81686E00C94E81685E00C94E81619
:1032100084E00C94E81683E00C94E81682E00C94A9
:10322000E81681E00C94E816CF93DF93CDB7DEB7B4
:1032300064970FB6F894DEBF0FBECDBF0E94570A49
:1032400033243394E0E26E2EE1E07E2ECE0101962F
:103250006C01FEE5AF2EF1E0BF2EA2E04A2EB9E0F0
:103260005B2E18E8812E13E1912E80916901982F31
:103270009270282F217080FD06C0911104C07FE953
:10328000E72E71E0F72E30916801311103C03092C2
:10329000680108C010926801222321F068E9E62E37
:1032A00061E0F62E992341F090916801913021F46C
:1032B0005AE8E52E51E0F52E83FF04C04CECE42ED5
:1032C00040E0F42E60E080E00E942F0464E1C7013A
:1032D0000E9455068EE095E00E94D702809113056A
:1032E0001F928F93809112051F928F9380911105E9
:1032F0001F928F9380910E051F928F9380910F05DF
:103300001F928F93809110051F928F937F926F92DF
:10331000DF92CF920E948C1E80910E0590910F0536
:10332000982789279827909309058093080580910D
:1033300010059091110598278927982790930B05E0
:1033400080930A058091120590911305982789278B
:10335000982790930D0580930C0563E080E00E9410
:103360002F040FB6F894DEBF0FBECDBF809167016A
:103370008823A1F08091690188608093690164E1EC
:1033800085EC90E00E94550663E087E00E942F04E0
:1033900080916701805D0E94420404C064E1C6011F
:1033A0000E94D004809169011F928F93BF92AF92C7
:1033B000DF92CF920E948C1E61E080E00E942F0479
:1033C00064E1C6010E94D0040F900F900F900F90FF
:1033D0000F900F908091660181114092670180915A
:1033E0006A01882319F085E0809367018091630169
:1033F000882319F083E0809367011092690110928D
:10340000070510920605109205051092040510920A
:1034100003051092020501E010E0C801875F9F4F8D
:103420000E944F21801353C0209102053091030563
:103430002F5F3F4F3093030520930205509EF0010C
:10344000519EF00D1124E158FE4F908595FF05C067
:1034500090916901906290936901509EF001519E94
:10346000F00D1124E158FE4F908590FF18C0209177
:103470000605309107052F5F3F4F309307052093D6
:10348000060520906901922D9160909369010E9438
:10349000280D882321F0822D816480936901509E3C
:1034A000F001519EF00D1124E158FE4F808581FFFF
:1034B0000EC0809104059091050501969093050535
:1034C00080930405809169018260809369018091F5
:1034D000690185FF02C0DA9A01C0DA98809169011A
:1034E00080FF02C0DB9A01C0DB988091690186FFF2
:1034F00002C0D99A01C0D9988091690181FD04C0A8
:1035000080916701882311F0D89801C0D89A0F5F85
:103510001F4F0336110509F080CF8091670190E0BD
:10352000982F882720916901822B9093FF04809324
:10353000FE0489B38F7090E090930105809300059D
:1035400080917A0190917B01892B69F40E94B70ADE
:1035500090927B0180927A0160E083E10E942F04C7
:103560008AE20E94420408EE13E08091700181110A
:1035700019C08FE99FE00197F1F700C000000E9499
:103580003F0D823061F40E943F0D8F3FE1F780E6EE
:1035900090E00E94BF140E94210410926901015022
:1035A000110919F780917001882309F45ECE0E94F9
:1035B000ED1C181624F085E08093670156CEDD9847
:1035C00080916701853011F4109267011091C00558
:1035D00086E090E00E944F21181341C0E091C2059F
:1035E000F091C305FE27EF27FE278091C405909137
:1035F000C505982789279827AF01480F591F2091A3
:10360000C1054930510538F020682093C10540922A
:10361000C20583E026C02330E9F4EE0FFF1FE2501D
:10362000FB4FA0ECB5E020E030E012968217930744
:1036300061F040815181329611965C9311971296F8
:103640004C9312972F5F3F4FF0CF880F8093C205A6
:103650008D5F07C020682093C1053092C205DD9AB6
:1036600004CE0E944A1CFBCF1F920F920FB60F92FE
:1036700011248F939F93AF93BF938091FA049091FD
:10368000FB04892B49F08091FA049091FB04019787
:103690009093FB048093FA048091FC049091FD04C4
:1036A000892B49F08091FC049091FD04019790933F
:1036B000FD048093FC0480917D0190917E01892B13
:1036C00049F080917D0190917E01019790937E0158
:1036D00080937D0180917A0190917B01892B49F043
:1036E00080917A0190917B01019790937B01809367
:1036F0007A018091720190917301A0917401B0914F
:103700007501892B8A2B8B2B99F0809172019091F6
:103710007301A0917401B09175010197A109B109DC
:103720008093720190937301A0937401B09375011B
:10373000BF91AF919F918F910F900FBE0F901F90EF
:1037400018951F920F920FB60F9211248F939F938B
:10375000EF93FF938BB19CB18C7111F083E019C092
:10376000E0917101F0E0E856FA4F90838091710189
:103770008F5F80937101883211F4109271018091F2
:1037800070018F5F80937001883229F4109270016C
:1037900082E080936A01FF91EF919F918F910F904A
:1037A0000FBE0F901F9018955D9BFECF8CB95E9B4E
:1037B000FECF5E9A0895282F8FEF9FEFE0ECF5E0A3
:1037C0002150B0F0BF016F5F7F4F3081832738E019
:1037D000AC015695479580FF06C0CA01E1E08E27EF
:1037E000E0EA9E2701C0CA01315091F7FB01E8CF02
:1037F00008950F931F93CF93DF93182FC62F66233F
:1038000011F001E001C002E0113011F0D8E001C078
:10381000D7E084E0220F331F441F551F8A95D1F74C
:1038200060E074E284EF90E00E94DA1D21503109DB
:103830002F773327D5508E9A969810936F011130B9
:1038400029F082E090E0A0E0B0E004C088EE93E0D0
:10385000A0E0B0E080936B0190936C01A0936D01A8
:10386000B0936E01919A899A909A88981BB888E9CA
:103870008AB981E0023009F080E0C0688C2BCD2F3E
:10388000CC0FC82BC0BD10BC29B9DF91CF911F91BF
:103890000F910895EF92FF920F931F93CF93DF93B1
:1038A000C82F80916F01882341F0813009F08EC0CC
:1038B0009C2F80E0E0ECF5E035C08C2F0E94DB1BF4
:1038C000F82ED92F969A00EC15E0CC2339F0F801A8
:1038D00081918F010E94D41BC150F7CF8F2D0E9480
:1038E000D41B8D2F0E94D41B969880916B019091D0
:1038F0006C01A0916D01B0916E0180937201909363
:103900007301A0937401B09375018091720190913D
:103910007301A0917401B0917501892B8A2B8B2BB7
:10392000A1F754C0915020F02081820F3196FACF38
:10393000D82FD195969AFFEF29EF80E0F1502040E3
:103940008040E1F700C000008AE30E94D41B00EC35
:1039500015E0CC23F1F07801F801808182958F7019
:1039600090E3980F9A3310F0895C01C0892F0E9470
:10397000D41B0F5F1F4FF70180818F7090E3980F6A
:103980009A3310F0895C01C0892F0E94D41BC1506A
:10399000E0CF9D2F92959F7080E3890F8A3310F0BE
:1039A00087E3890F0E94D41B8D2F8F70D0E3D80F2F
:1039B000DA3310F0895C01C08D2F0E94D41B8DE09A
:1039C0000E94D41B8AE00E94D41B9698DF91CF916D
:1039D0001F910F91FF90EF9008958F929F92AF9259
:1039E000BF92CF92DF92EF92FF920F931F93CF93EC
:1039F000C0906B01D0906C01E0906D01F0906E0171
:103A000060916F019091E80520E080E0C092720122
:103A1000D0927301E0927401F092750130917001BF
:103A200031110DC08090720190907301A0907401CB
:103A3000B090750189288A288B2881F734C0E92F36
:103A4000F0E09F5F61110AC0E856FA4F3081E82F1D
:103A5000F0E0E054FA4F30838F5F1AC0E856FA4F17
:103A600030813D3009F43CC03A3391F0482F50E0AA
:103A7000211158C0208130ED320F3A3208F44CC089
:103A80002755FA01E054FA4F2295207F208321E048
:103A9000983209F490E0F8943091700131503093ED
:103AA00070017894B3CF611153C09093E805282F2B
:103AB00030E020543A4FF9013197008110E0102F87
:103AC000002731979081092BCEEFC80F8C2F0E94D1
:103AD000DB1B0817190711F48C2F40C085E03BC091
:103AE000983219F09093E80502C01092E805F89416
:103AF000909170019150909370017894282F90E0EC
:103B0000E0ECF5E0215020F03081930F3196FACFB0
:103B10009111E4CF815022C03A3010F02753B1CF39
:103B2000232FAFCF208130ED320F3A3210F02755DE
:103B300005C03A3010F0275301C0232FFA01E0549A
:103B4000FA4F2F703081232B20838F5F20E0A0CF8E
:103B50009093E80581E080936A018FEFCF911F91E8
:103B60000F91FF90EF90DF90CF90BF90AF909F901C
:103B70008F900895991B79E004C0991F961708F05B
:103B8000961B881F7A95C9F78095089597FB072E95
:103B900016F4009407D077FD09D00E94FC1D07FCA5
:103BA00005D03EF4909581959F4F0895709561954D
:103BB0007F4F0895A1E21A2EAA1BBB1BFD010DC069
:103BC000AA1FBB1FEE1FFF1FA217B307E407F507CD
:103BD00020F0A21BB30BE40BF50B661F771F881FA9
:103BE000991F1A9469F760957095809590959B013F
:103BF000AC01BD01CF010895AA1BBB1B51E107C059
:103C0000AA1FBB1FA617B70710F0A61BB70B881F6C
:103C1000991F5A95A9F780959095BC01CD010895FB
:103C2000FB01DC010D900020E9F7119705900D9242
:103C30000020E1F70895FB01DC0105900D920020C2
:103C4000E1F70895FC0105900020E9F78095909533
:103C50008E0F9F1F0895FB01DC010D900020E9F7F6
:103C6000119701900D920020E1F70895BB274A308B
:103C700031F4992322F4BDE2909581959F4F0C94E5
:103C8000731EBB272A3051F4992342F4BDE290956C
:103C90008095709561957F4F8F4F9F4F0C94511E6B
:103CA000BB27FA01A62F6217710581059105330B19
:103CB00030FB66F0AA27660F771F881F991FAA1F7F
:103CC000A21710F0A21B63953850A9F7A05DAA3384
:103CD00008F0A95DA19336F7B111B1931082CA0122
:103CE0000C94A520BB27FB015527AA27880F991FF5
:103CF000AA1FA41710F0A41B83955051B9F7A05D1B
:103D0000AA3308F0A95DA193009779F7B111B19397
:103D10001192CB010C94A520AEE0B0E0E2E9FEE107
:103D20000C949B210D891E8986E08C831A8309835C
:103D30008FEF9FE79E838D83AE01475E5F4F6F8954
:103D4000788DCE0101960E94AE1EEF81F885E00FBE
:103D5000F11F10822E96E4E00C94B721ABE0B0E0A6
:103D6000E4EBFEE10C948D216C017B018A01FC01E6
:103D700017821682838181FFCCC1CE0101963C015E
:103D8000F6019381F70193FD859193FF81917F0166
:103D9000882309F4BAC1853239F493FD859193FFE4
:103DA00081917F01853229F4B60190E00E94B5200F
:103DB000E7CF912C212C312CFFE1F315D8F08B3279
:103DC00079F038F4803279F08332A1F4232D206128
:103DD0001DC08D3261F0803369F4232D216016C03F
:103DE000832D8260382EE32DE4603E2E2AC0F32D11
:103DF000F8601DC037FC2DC020ED280F2A3040F0A0
:103E00008E32B9F436FC81C1232D2064322E19C0C4
:103E100036FE06C08AE0989E200D1124922E11C015
:103E2000EAE02E9E200D1124222EF32DF0623F2E6B
:103E300008C08C3621F4832D8068382E02C0883665
:103E400041F4F70193FD859193FF81917F018111E9
:103E5000B3CF982F9F7D9554933028F40C5F1F4F5C
:103E60009FE399830DC0833631F0833771F083353A
:103E700009F059C021C0F801808189830E5F1F4F6E
:103E800088248394912C530113C02801F2E04F0E33
:103E9000511CF801A080B18036FE03C0692D70E08E
:103EA00002C06FEF7FEFC5010E949A204C01820192
:103EB000F32DFF773F2E16C0280122E0420E511C41
:103EC000F801A080B18036FE03C0692D70E002C009
:103ED0006FEF7FEFC5010E948F204C01F32DF0683A
:103EE0003F2E820133FC1BC0822D90E0881699067C
:103EF000B0F4B60180E290E00E94B5202A94F4CF9D
:103F0000F50137FC859137FE81915F01B60190E0A4
:103F10000E94B52021102A9421E0821A9108811470
:103F2000910471F7E8C0843611F0893641F5F80143
:103F300037FE07C060817181828193810C5F1F4FC2
:103F400008C060817181072E000C880B990B0E5FF1
:103F50001F4FF32DFF763F2E97FF09C09095809558
:103F6000709561957F4F8F4F9F4FF0683F2E2AE0ED
:103F700030E0A3010E94F120882E861845C08537C5
:103F800031F4232D2F7EB22E2AE030E025C0932D70
:103F9000997FB92E8F36C1F018F4883579F0B5C005
:103FA000803719F0883721F0B0C0E92FE061BE2ECC
:103FB000B4FE0DC0FB2DF460BF2E09C034FE0AC054
:103FC000292F2660B22E06C028E030E005C020E18F
:103FD00030E002C020E132E0F801B7FE07C06081A6
:103FE0007181828193810C5F1F4F06C06081718156
:103FF00080E090E00E5F1F4FA3010E94F120882E09
:104000008618FB2DFF773F2E36FE0DC0232D2E7F09
:10401000A22E891458F434FE0BC032FC09C0832D43
:104020008E7EA82E05C0B82CA32C03C0B82C01C0CE
:10403000B92CA4FE0FC0FE01E80DF11D8081803374
:1040400021F49A2D997EA92E09C0A2FE06C0B39430
:10405000B39404C08A2D867809F0B394A3FC11C0F0
:10406000A0FE06C0B21488F4280C922C9B180EC037
:10407000B21460F4B60180E290E00E94B520B394DF
:10408000F7CFB21418F42B1802C0982C212CA4FEE0
:1040900010C0B60180E390E00E94B520A2FE17C0D8
:1040A000A1FC03C088E790E002C088E590E0B6017B
:1040B0000CC08A2D867859F0A1FE02C08BE201C0A7
:1040C00080E2A7FC8DE2B60190E00E94B520891441
:1040D00038F4B60180E390E00E94B5209A94F7CFBF
:1040E0008A94F301E80DF11D8081B60190E00E94F1
:1040F000B5208110F5CF222009F442CEB60180E22E
:1041000090E00E94B5202A94F6CFF601868197812F
:1041100002C08FEF9FEF2B96E2E10C94A921FC01E6
:104120000590615070400110D8F7809590958E0FE2
:104130009F1F0895FC016150704001900110D8F755
:10414000809590958E0F9F1F0895DC01FC01672FCD
:1041500071917723E1F7329704C07C916D9370835E
:104160006291AE17BF07C8F308950F931F93CF93C3
:10417000DF93FB01238121FD03C08FEF9FEF2CC054
:1041800022FF16C04681578124813581421753078B
:1041900044F4A081B1819D012F5F3F4F3183208383
:1041A0008C93268137812F5F3F4F3783268314C03E
:1041B0008B01EC01FB010084F185E02D0995892B31
:1041C000E1F6D80116968D919C9117970196179656
:1041D0009C938E931697CE01DF91CF911F910F91F3
:1041E0000895FA01AA27283051F1203181F1E8948D
:1041F0006F936E7F6E5F7F4F8F4F9F4FAF4FB1E0DA
:104200003ED0B4E03CD0670F781F891F9A1FA11DD4
:10421000680F791F8A1F911DA11D6A0F711D811DD5
:10422000911DA11D20D009F468943F912AE0269F9A
:1042300011243019305D3193DEF6CF010895462FF9
:104240004770405D4193B3E00FD0C9F7F6CF462FDA
:104250004F70405D4A3318F0495D31FD4052419343
:1042600002D0A9F7EACFB4E0A69597958795779500
:104270006795BA95C9F700976105710508959B0187
:10428000AC010A2E06945795479537952795BA9510
:10429000C9F7620F731F841F951FA01D0895E19930
:1042A000FECF9FBB8EBBE09A99278DB30895A6E100
:1042B000B0E044E050E00C947F21A8E1B0E042E09F
:1042C00050E00C947F21262FE199FECF9FBB8EBB3F
:1042D0002DBB0FB6F894E29AE19A0FBE01960895AD
:1042E000242F0E946421252F0E9464210C947821A0
:1042F0000E946321272F0C946421DC01CB01FC0177
:10430000E199FECF06C0FFBBEEBBE09A31960DB23D
:104310000D9241505040B8F708952F923F924F921E
:104320005F926F927F928F929F92AF92BF92CF9245
:10433000DF92EF92FF920F931F93CF93DF93CDB74E
:10434000DEB7CA1BDB0B0FB6F894DEBF0FBECDBFC6
:1043500009942A88398848885F846E847D848C8497
:104360009B84AA84B984C884DF80EE80FD800C81A0
:104370001B81AA81B981CE0FD11D0FB6F894DEBF83
:0C4380000FBECDBFED010895F894FFCFF3
:10438C00850100007C0122129801E5138A017D133E
:10439C00760148136C01C215000000001C020000DD
:1043AC001702111912020E190D020B190802081925
:1043BC0003020519FE010219F901FF1800000000A3
:1043CC0026010000200101110D01A6100401561058
:1043DC00000000006C0100005001890F4301FA0A33
:1043EC003201BE1526019C150000000032010000B0
:1043FC00F000860FE600830FDB00800F22026C15A5
:10440C00000000001F0C63173B3B10050F050E0549
:10441C001105120513053A00253032752E25303260
:10442C00752E253032752020253032753A253032E4
:10443C00753A253032750025303264002564002031
:10444C00253032752E253032752E253032752025CB
:10445C003032753A253032753A25303275002530B8
:10446C00346400D090D0A0D092D093D0A8D090D06B
:10447C0092D0A0D0A8D0B3D0A8D0A9D09000257548
:02448C0000002E
:00000001FF
