:100000000C9417010C94F90B0C9434010C943401EA
:100010000C9434010C9434010C9434010C94E917C1
:100020000C9434010C9434010C9434010C9434017C
:100030000C9434010C9456180C9434010C94340133
:100040000C9434010C9434010C9434010C9434015C
:100050000C943401EDE5E4EEF1F2F3EFEDEE00CDBA
:10006000CEC2CEC520C7CDC0D7C5CDC8C500CFC074
:10007000D0CECBDC00ECF100EEF2EAEB2ECCD2C716
:100080003A00E2EAEB2ECCD2C73A003CEFF3F1F2B1
:10009000EE3E00EEE1EDE0F0F3E6E5EDEE20C1C46A
:1000A000C73A00D1E1F0EEF1E8F2FC3F20E4E02DA8
:1000B00022C2C2CEC42200EDE5F200EDE5F220F14D
:1000C000E2FFE7E800EEF8E8E1EAE000CDC5D22083
:1000D000C3CED2CEC2CDCED1D2C800C2D0C5CCDF25
:1000E00020D3D0CEC200C2D0C5CCDF20CCD2C70036
:1000F000C0C4D0C5D100CFCE20CEC4CDCECCD3008D
:10010000C4CBDF20C2D1C5D5004E4F4E4500455669
:10011000454E004F444400D7C5D2CDCED1D2DC00ED
:10012000D1CACED0CED1D2DC00415343494900528E
:10013000545500D0C5C6C8CC00D1C2DFC7DC2052A0
:100140005334383500CFD0CEC3D0C0CCCCC8D0CEFD
:10015000C2C0CDC8C500D1CAC0CDC8D0CEC2C0CDE6
:10016000C8C500C4C0D2C02FC2D0C5CCDF00D0C526
:10017000CBC500C4C2D500C2CEC400C1C4C700CD27
:10018000C0D1D2D0CEC9CAC000C0D0D5C8C200CD5F
:10019000C020D1C2DFC7C800CCC5CDDE00CDC5C8E8
:1001A000D1CFD0C0C2CDCED1D2DC00C0C2C0D0C869
:1001B000DF00D0C0C1CED2C03100CED8C8C1CAC0C5
:1001C00020E0E4F0E5F120E7E0EDFFF200D1D2C05D
:1001D000D0CEC520C7CDC0D7C5CDC8C500CDCECCEB
:1001E000C5D020C1C4C700CDCEC2CEC50041A042FB
:1001F000A1E045A3A4A5A64BA74D484FA850435442
:10020000A9AA58E1ABACE2ADAE62AFB0B161B2B396
:10021000B4E365B6B7B8B9BABBBCBD6FBE7063BF57
:1002200079E478E5C0C1E6C2C3C4C5C6C7001124DD
:100230001FBECFE5D8E0DEBFCDBF11E0A0E6B0E045
:10024000E6EFFCE302C005900D92A232B107D9F7A8
:1002500025E0A2E2B1E001C01D92A73AB207E1F7A2
:100260000E94C9150C94791E0C94000028EE33E00E
:100270003093B9042093B80429E0829FC00111246F
:10028000FC01EB5BFE4F808182FD06C08091B804CB
:100290009091B904892BB9F78091B8049091B90471
:1002A000892B31F080912301811102C081E00895F2
:1002B0008FEF08950895AC9A8FE99FE00197F1F7C9
:1002C00000C00000AC988FE99FE00197F1F700C0F3
:1002D0000000089588E480B986B7846486BF0898D2
:1002E000089528EE33E0309355052093540594EAA1
:1002F00096BF06B607FC08C02091540530915505FD
:10030000232BB9F781E02DC091B1987F983011F07F
:1003100082E027C08E7F83B984E886BF06B607FCDB
:1003200007C08091540590915505892BB9F7EACF04
:1003300081B1887F883121F4962FFB0124E802C027
:1003400083E00FC08E2F891B8417A8F4819183B995
:1003500026BF06B607FE08C081B1887F883291F3B8
:1003600084E08093260107C0609154057091550583
:10037000672B79F7C7CF84E986BF8FE891E00197B3
:10038000F1F700C00000809126010895982F28EE13
:1003900033E0309355052093540584EA86BF06B6B2
:1003A00007FC08C02091540530915505232BB9F75F
:1003B00081E034C081B1887F883011F082E02EC0A6
:1003C000916093B984E886BF06B607FC07C08091A8
:1003D000540590915505892BB9F7EACF91B1987FD3
:1003E000903431F420E050E041505109E4EC08C071
:1003F00083E014C033B1DB01A80FB91F3C932F5F1A
:10040000822F90E0841795079CF4E6BF06B607FE9E
:1004100008C031B1387F303569F384E0809326011C
:100420001CC0A0915405B0915505AB2B79F7C0CFF6
:1004300024E826BF06B607FC07C02091540530917A
:100440005505232BB9F7B4CF21B1287F283529F7DB
:1004500023B1FB01E80FF91F208384ED86BF8FE8ED
:1004600091E00197F1F700C0000080912601089506
:10047000CF93DF93CDB7DEB72A970FB6F894DEBFE0
:100480000FBECDBFFC01198285812AE0622F0E9438
:100490006F1A392F40E1849FC0011124832B8F777D
:1004A0008A8384810E946F1A392F40E1849FC001A2
:1004B0001124832B8B8383810E946F1A392F40E193
:1004C000849FC0011124832B8C831D8282810E9412
:1004D0006F1A392F40E1849FC0011124832B8E8332
:1004E00081810E946F1A392F40E1849FC00111243D
:1004F000832B8F8380810E946F1A292F30E1839F85
:10050000C0011124822B888719868AEA8A874AE0EB
:10051000BE016F5F7F4F80ED0E94710191E08111FC
:1005200001C090E0892F81952A960FB6F894DEBF1E
:100530000FBECDBFDF91CF910895EF92FF920F9341
:100540001F93CF93DF93CDB7DEB728970FB6F894FC
:10055000DEBF0FBECDBF8C01CE0101967C0187E0CE
:10056000F70111928A95E9F7188641E0BE01685FAC
:100570007F4F80ED0E94710147E0B70180ED0E943E
:10058000C601811144C08981982F92959F708F7008
:10059000FAE09F9F800D1124F80185838A81982FAE
:1005A00092959F708F70FAE09F9F800D1124F80143
:1005B00084838B81982F92959F708F70FAE09F9F14
:1005C000800D1124F80183838D81982F92959F705F
:1005D0008F70FAE09F9F800D1124F80182838E8135
:1005E000982F92959F708F70FAE09F9F800D112435
:1005F000F80181838F81982F92959F708F70FAE018
:100600009F9F800D1124F801808380E001C08FEF4F
:1006100028960FB6F894DEBF0FBECDBFDF91CF9105
:100620001F910F91FF90EF900895CF93DF9300D02B
:10063000CDB7DEB71A8288E0898341E0BE016F5FE3
:100640007F4F80ED0E94710141E0BE016E5F7F4FE0
:1006500080ED0E94C601811107C081E09A819A3A1B
:1006600009F480E0819501C08FEF0F900F90DF912A
:10067000CF910895CF92DF92EF92FF920F931F9345
:10068000CF93C82F88B3C6FB662760F970E0660F6A
:10069000771F9C2F991F9927991F892B682BC5FBC2
:1006A000442740F950E0440F551F440F551F462B77
:1006B000C4FB222720F930E053E0220F331F5A9564
:1006C000E1F7242B28BB0E945B0188B3807F88BBA5
:1006D000C3FB882780F9C0FBCC24C0F8D12C63E091
:1006E000CC0CDD1C6A95E1F7C82AC2FBEE24E0F8C9
:1006F000F12CEE0CFF1CEC28C1FB002700F910E0E8
:10070000000F111F000F111F0E2908BB0E945B0173
:1007100085B3837E85BB88B3807F88BBCF911F91D3
:100720000F91FF90EF90DF90CF9008952FEF89EF1A
:1007300090E0215080409040E1F700C0000088B375
:10074000807F88BB87B38F6087BB85B3837E85BB83
:1007500084B38C6184BB88B38C6088BB0E945B01CE
:100760008FE19EE40197F1F700C000000E945B0159
:100770008FE19EE40197F1F700C000000E945B0149
:10078000C3980E945B018FE39FE10197F1F700C0DE
:10079000000088E20E943A0388E00E943A0381E068
:1007A0000E943A0386E00E943A0388B3807F88BBA8
:1007B00085B3837E85BB08958EE00C943A038FE069
:1007C0000C943A038CE00C943A030C94E20381E01D
:1007D0000E943A0310922501109224018FE19EE4B9
:1007E0000197F1F700C00000089580932501609300
:1007F0002401613039F048F0623031F0633029F47F
:100800008C5A03C0805C01C08C5E80680C943A03F3
:10081000CF92DF92EF92FF920F931F93CF93DF93CC
:10082000C82F803C28F0D0E0FE01E35DFE4FC4916C
:10083000AA9A88B3C6FB662760F970E0660F771F37
:100840009C2F991F9927991F892B682BC5FB44273B
:1008500040F950E0440F551F440F551F462BC4FB71
:10086000222720F930E053E0220F331F5A95E1F799
:10087000242B28BB0E945B0188B3807F88BB88B390
:10088000C3FB992790F9892BC0FBCC24C0F8D12C4D
:1008900063E0CC0CDD1C6A95E1F7C82AC2FBEE24AC
:1008A000E0F8F12CEE0CFF1CEC28C1FB002700F94E
:1008B00010E0000F111F000F111F0E2908BB0E942E
:1008C0005B0185B3837E85BB88B3807F88BB8091C5
:1008D00025018F5F843158F480932501DF91CF91FA
:1008E0001F910F91FF90EF90DF90CF90089510929D
:1008F0002501809124018F5F80932401813039F09C
:1009000050F0823031F0833031F484ED05C080EC5A
:1009100003C084E901C080E8DF91CF911F910F915E
:10092000FF90EF90DF90CF900C943A030F931F93BA
:10093000CF93DF93D62F8C01C0E0CD1781F0F80163
:1009400081918F01811107C080E20E940804CF5F6E
:10095000CD17D0F304C00E940804CF5FEECFDF9123
:10096000CF911F910F910895CF92DF92EF92FF9256
:100970000F931F93CF93DF93CDB7DEB76B970FB66F
:10098000F894DEBF0FBECDBF7C0162E080E00E9424
:10099000F50367E771E0CE0101960E94D01A62ED7F
:1009A00070E0CE0101960E94E01AF70180818F70FD
:1009B00039F467EB70E0CE0101960E94C51A2DC094
:1009C00080E090E0CC24C394D12CF7013081A601C3
:1009D000082E02C0440F551F0A94E2F7232F30E07F
:1009E00024233523082E02C0359527950A94E2F773
:1009F0008C010F5F1F4F232B61F04AE0BE016B5E3D
:100A00007F4FC8010E94EB1ABC01CE0101960E94E3
:100A1000E01AC80104301105C1F664E1CE01019667
:100A20000E94960462E089E00E94F50363E771E0AA
:100A3000CE0101960E94D01A62ED70E0CE010196BF
:100A40000E94E01AF7018081807F39F467EB70E043
:100A5000CE0101960E94C51A2BC004E010E0CC2400
:100A6000C394D12CF701808190E09601002E02C042
:100A7000220F331F0A94E2F782239323002E02C031
:100A8000959587950A94E2F7892B69F04AE0BE01B3
:100A90006B5E7F4FC80103970E94EB1ABC01CE0129
:100AA00001960E94E01A0F5F1F4F08301105D1F622
:100AB00064E1CE0101960E9496046B960FB6F894FD
:100AC000DEBF0FBECDBFDF91CF911F910F91FF9081
:100AD000EF90DF90CF900895EF92FF920F931F93C6
:100AE000CF93DF93CDB7DEB76B970FB6F894DEBF29
:100AF0000FBECDBF7C018B0162E080E00E94F50358
:100B000062E870E0CE0101960E94D01A8FEFE816DD
:100B1000F80619F467EB70E00EC04AE0BE016B5EA8
:100B20007F4FC7010E94EB1ABC01CE0101960E94C3
:100B3000E01A65E770E0CE0101960E94C51A64E1F3
:100B4000CE0101960E94960463E080E00E94F503C6
:100B500068E770E0CE0101960E94D01A0F3F8FEF38
:100B6000180719F467EB70E00EC04AE0BE016B5E37
:100B70007F4FC8010E94EB1ABC01CE0101960E9472
:100B8000E01A65E770E0CE0101960E94C51A64E1A3
:100B9000CE0101960E9496046B960FB6F894DEBFC4
:100BA0000FBECDBFDF91CF911F910F91FF90EF90BE
:100BB00008950F931F93CF93DF93CDB7DEB764975C
:100BC0000FB6F894DEBF0FBECDBFFC015581448146
:100BD00033812281918180811F925F931F924F9375
:100BE0001F923F931F922F931F929F931F928F9359
:100BF00084ED90E09F938F938E010F5F1F4F1F93A3
:100C00000F930E94411B61E080E00E94F50364E1C4
:100C1000C8010E9496040FB6F894DEBF0FBECDBF88
:100C200064960FB6F894DEBF0FBECDBFDF91CF91B3
:100C30001F910F9108950F931F93CF93DF93D62F9A
:100C4000C0E0CD17A9F0FC0124918C010F5F1F4F6C
:100C5000211107C080E20E940804CF5FCD17D0F3B6
:100C600007C0FC0184910E940804CF5FC801E9CF4E
:100C7000DF91CF911F910F91089562E080E00E9473
:100C8000F50364E18BEB90E00C941B06CF93DF93AC
:100C9000EC010E94E703CE010E94D71A682FCE0113
:100CA0000E941B068AE3DF91CF910C94080487B35E
:100CB000806B87BB88B3806B88BB8EE58DB9089548
:100CC0008FB988EE93E09093BB048093BA04779930
:100CD0000BC08091BA049091BB04892BC1F786E0C8
:100CE000809323018FEF08958FB10895C49880EA0F
:100CF0000E94600680E00E946006C49A0895CF9327
:100D0000C82FC49883E00E9460068C2F0E94600662
:100D100080E00E946006C49ACF9108951F93CF93FC
:100D2000DF93182FD62FC42FC49885E00E94600649
:100D3000812F0E9460068D2F0E9460068C2F0E94DA
:100D40006006C49ADF91CF911F910895CF93DF93EE
:100D5000D82FC62FC49882E00E9460068D2F0E9473
:100D600060068C2F0E946006C49ADF91CF9108958F
:100D700088EE93E09093B9048093B8048091360193
:100D800081110BC08091B8049091B904892BB1F7FF
:100D900082E0809323018FEF0895F89480913601CB
:100DA000815080933601789480913A0190913A0174
:100DB0009F5F90933A019A3011F410923A0108958E
:100DC0009F92AF92BF92CF92DF92EF92FF920F93DA
:100DD0001F93CF93DF93D82FC92FB62E0E94B8064A
:100DE0009DE0899FF0011124EE52FB4FC080D1801D
:100DF000E280F3800D2F1C2F9DE0A92E2DE0922E76
:100E0000B11003C08D2F9C2F41C040E0A89EF0017F
:100E10001124EE52FB4FBF016C5F7F4FDB018C91C1
:100E2000242F30E0481760F4CF01820F931FDC01BC
:100E300015968C91200F311FD9018C934F5FEECF07
:100E4000200F311FD90111978C918823D9F2848109
:100E5000080F111D0E94B80690912301911114C032
:100E6000989EF0011124EE52FB4F40815181628126
:100E70007381BA94C416D506E606F70609F283E034
:100E80008093230180E002C080E090E0DF91CF9169
:100E90001F910F91FF90EF90DF90CF90BF90AF9098
:100EA0009F900895AF92BF92CF92DF92EF92FF9200
:100EB0000F931F93CF93DF936B017C01142F590184
:100EC0000E947606DC2DD295DD0FD07E902F987093
:100ED000D92BB701A601EBE1769567955795479514
:100EE000EA95D1F74370D42B86FF0BC084FF0BC06B
:100EF00082FD02C0C1E008C085E0809323018FEF2E
:100F000058C0C3E001C0C2E0F894C49882E00E94D7
:100F100060068C2F8295807F805E0E946006802F05
:100F200083700E946006D701C60123E0B695A7959D
:100F3000979587952A95D1F70E9460068D2F0E947C
:100F40006006D701C60133E1B695A79597958795B9
:100F50003A95D1F70E946006D701C6014BE0B695DD
:100F6000A795979587954A95D1F70E946006812F9E
:100F70000E9460067501D0E0D11749F0D83039F0F1
:100F8000F70181917F010E946006DF5FF5CFC49A6F
:100F900002FF0DC0C4982FEF2C0F81E090E001C03C
:100FA000880F2A95EAF780680E946006C49A7894B0
:100FB0008C2FDF91CF911F910F91FF90EF90DF90D9
:100FC000CF90BF90AF9008958F929F92AF92BF92B3
:100FD000EF92FF920F931F93CF93DF937C01C62F65
:100FE00049015A01162F169516951695D0E0D1177E
:100FF00091F00FEF970148E0C501B4010E9452073C
:1010000080912301882311F08FEF13C088E0E80E50
:10101000F11CDF5FECCF4C2F477031F00FEF9701E1
:10102000C501B4010E945207809123018111ECCFC8
:1010300081E0DF91CF911F910F91FF90EF90BF90D2
:10104000AF909F908F9008952F923F924F925F9212
:101050006F927F928F929F92AF92BF92CF92DF92C8
:10106000EF92FF920F931F93CF93DF9300D000D0A6
:101070001F92CDB7DEB71C018B015D834C837901D4
:101080000E94760680FD07C00E94760681FD05C09D
:1010900080E090E091C080E001C081E0C49890E0E1
:1010A000880F991F880F991F80690E94600680E051
:1010B0000E946006882E912CA12CB12C80E00E9409
:1010C00060068983482E512C612C712C80E00E948F
:1010D00060068A8380E00E9460068B8380E00E9425
:1010E0006006EC81FD8180831D821C82CC80DD80C6
:1010F000C00ED11E80E00E946006F60180838C81C4
:101100009D8101969D838C83089781F7C49A99816C
:1011100093FF0BC0EA814E2F50E060E070E0FB814E
:101120008F2F90E0A0E0B0E006C080E090E0DC010E
:1011300040E050E0BA01F101108211821282138264
:1011400029812370A22B762F652F542F4427482BFB
:10115000592B6A2B7B2BABE0440F551F661F771F63
:10116000AA95D1F7B5E07694679457944794BA95C9
:10117000D1F783E0880C991CAA1CBB1C8A95D1F777
:1011800084289528A628B728482959296A297B291F
:101190004083518362837383F70110828DE20E9442
:1011A0007F06807CF7019081892B808340E060EC92
:1011B0008DE20E948E06C8010F900F900F900F9045
:1011C0000F90DF91CF911F910F91FF90EF90DF90E3
:1011D000CF90BF90AF909F908F907F906F905F90D7
:1011E0004F903F902F900895CF93DF931F92CDB7EC
:1011F000DEB7198240913701609137019091370134
:101200008DE0849FA00111244A525B4F869FB0015C
:10121000112469527B4F899FC00111249E012F5FC9
:101220003F4F8E529B4F0E942408809137018F5F61
:10123000809337018A3011F4109237018091360182
:101240008F5F809336018A3019F41092360103C003
:101250008981807C29F085E0809323018FEF01C094
:1012600081E00F90DF91CF910895CF92DF92EF92BE
:10127000FF92CF93DF93D82F6A017B01DB01CA0174
:101280002BE1B695A795979587952A95D1F7C82F05
:10129000C370842F8295880F807EC82BC49882E00B
:1012A0000E9460068D2F0E946006D701C60133E0C0
:1012B000B695A795979587953A95D1F70E946006C0
:1012C0008C2F0E946006D701C60143E1B695A79511
:1012D000979587954A95D1F70E946006D701C60178
:1012E0005BE0B695A795979587955A95D1F70E949B
:1012F0006006C49ADF91CF91FF90EF90DF90CF907E
:101300000895CF92DF92EF92FF92CF93DF93D82F81
:101310006A017B01C42FC295CC0FC07E2870C22BFE
:101320008BE176956795579547958A95D1F74370E8
:10133000C42BC49882E00E9460068D2F0E94600634
:10134000D701C60123E0B695A795979587952A956D
:10135000D1F70E9460068C2F0E946006D701C6015B
:1013600033E1B695A795979587953A95D1F70E9461
:101370006006D701C6014BE0B695A795979587956E
:101380004A95D1F70E946006C49ADF91CF91FF90F1
:10139000EF90DF90CF9008958A98929A85B78C7FCE
:1013A00085BF8BB780648BBF08951FBC8AE08EBD5C
:1013B0001DBC1CBC17BC16BC87E08BBD80ED8ABD74
:1013C00019BC18BC89B7806189BF0895CF93C82F15
:1013D0000E945706BC9AC49AC49880EC0E9460068A
:1013E000C49A40E860E889E20E948E0665E08AE2DD
:1013F0000E94A60669E889E20E94A60662E088E2E9
:101400000E94A60643E063E08BE20E948E064C2F0A
:101410006FEF8FE00E948E068EE00E947F06807E36
:10142000C81302C0C1E001C0CFEF44E064E080E631
:101430000E948E068C2FCF910895CF92DF92EF926B
:10144000FF92CF93F89484B38F7184BB85B3806E81
:1014500085BB81B3877C81BB82B3886382BBD49A0E
:10146000DC98D59ADD9A8AB38F608ABB8BB38F6084
:101470008BBB0E9496030E94E2030E94E7030E9436
:101480006A018CEC94E00E949D020E94150387FF84
:1014900003C082E08093270182E090E00E940C1E4E
:1014A0006B017C0181E090E00E94041EC82F80E067
:1014B00090E00E94041EA70196016C2F0E94AE18B6
:1014C000579A0E94CC090E94D50978942FEF89E69B
:1014D00098E1215080409040E1F700C0000080E09A
:1014E0000E94E60918161CF083E080932701CF9133
:1014F000FF90EF90DF90CF9008950F93CF93DF93FD
:10150000CDB7DEB727970FB6F894DEBF0FBECDBFBD
:1015100081E090E039E022E0389FF001399FF00D42
:101520001124E35CFE4F2087019683369105A1F7D5
:1015300081E089838091CE048A838091CD048B835E
:101540008091CC048C838091CF048D838091D004D2
:101550008E838091D1048F8307EF9E012F5F3F4FD1
:1015600047E060E070E0CB010E94520727960FB67B
:10157000F894DEBF0FBECDBFDF91CF910F910895DC
:10158000EF92FF920F931F93CF93DF9300D000D081
:10159000CDB7DEB78091290180618093290101E0F8
:1015A00010E099E0F92E60E0C801875F9F4F0E942C
:1015B000181EF09EF001F19EF00D1124E35CFE4F29
:1015C00017820F5F1F4F0336110569F7E199FECFB0
:1015D0000E947D0A2FEF81EE94E0215080409040E0
:1015E000E1F700C000000E94E7036CE086E591E0AF
:1015F0000E941B0618E08EE20E9408042FEF89E685
:1016000098E1215080409040E1F700C00000115067
:1016100091F71092290101E010E0F12C89E0E82E09
:10162000E09EF001E19EF00D1124E35CFE4F678126
:10163000601306C0C801875F9F4F0E94181EF39475
:101640000F5F1F4F0336110559F762E080E00E94DB
:10165000F50360E183E990E00E941B064AE0BE01C9
:101660006F5F7F4F8F2D90E00E94EB1A63E00E9426
:1016700096040E947D0A2FEF87EA91E62150804070
:101680009040E1F700C0000080E395E790933C01B3
:1016900080933B01109227010F900F900F900F90B5
:1016A000DF91CF911F910F91FF90EF9008950F93CD
:1016B0001F93CF93DF9300D0CDB7DEB7162F8130C5
:1016C00011F085E001C084E0898389E0189FF00172
:1016D0001124E35CFE4F82E080874A83612F70E033
:1016E00080E090E007EF9E012F5F3F4F42E00E94B5
:1016F0005207812F0E9436010F900F90DF91CF91FA
:101700001F910F9108950F931F93CF93DF9300D0F4
:1017100000D000D0CDB7DEB7182F86E09E012F5F36
:101720003F4FF901982F11929A95E9F78983611536
:10173000710561F489E0189FF0011124E35CFE4F0C
:1017400082E08087672B79F441E00EC0F90180E0E8
:1017500090E0DB01A80FB91F4C91419301968630B0
:101760009105B9F7E7CF46E0812F90E0A0E0B0E027
:1017700007EFBC01CD010E945207112321F0812FF8
:101780000E94360101C081E026960FB6F894DEBFB4
:101790000FBECDBFDF91CF911F910F9108950F9391
:1017A0001F93CF93DF931F92CDB7DEB7182F6983B6
:1017B00089E0189FF0011124E35CFE4F82E08087EE
:1017C000612F70E080E090E007EF9E012F5F3F4FB8
:1017D00041E00E9452078981823021F0812F0E94CE
:1017E000360101C081E00F90DF91CF911F910F91E1
:1017F00008951F920F920FB60F9211248F929F920D
:10180000AF92BF92CF92DF92EF92FF922F933F93CE
:101810004F935F936F937F938F939F93AF93BF93F8
:10182000EF93FF93CF93DF93CDB7DEB72E97DEBF55
:10183000CDBF9E01225F3F4FAE014B5F5F4FBE01A8
:101840006A5F7F4FCE0101960E9424088091290192
:1018500089809A80AB80BC8084FF11C0D501C4010F
:101860008F779927AA27BB2729E0289FF001299F76
:10187000F00D1124E35CFE4F882D8F77878375016F
:101880006401E894C7F8DD24EE24FF24C601875FD5
:101890009F4F0E94041E90E0A0E0B0E0C816D90659
:1018A000EA06FB0621F084E08093270140C089E02E
:1018B0008C9DF0018D9DF00D1124E35CFE4F808521
:1018C0008460808792FE03C080858062808791FC5F
:1018D0000BC089E08C9DF0018D9DF00D1124E35C1F
:1018E000FE4F80858160808790FE0BC089E08C9DD3
:1018F000F0018D9DF00D1124E35CFE4F80858D7FFE
:1019000080874D81FE01369680E090E059E05C9D35
:1019100090015D9D300D1124235C3E4F841738F4F7
:101920005191D901A80FB91F5C930196F7CF2E965C
:101930000FB6F894DEBF0FBECDBFDF91CF91FF9100
:10194000EF91BF91AF919F918F917F916F915F9137
:101950004F913F912F91FF90EF90DF90CF90BF90EC
:10196000AF909F908F900F900FBE0F901F90189583
:101970001F93CF93DF93182FCCE6D0E0CE010E94C7
:10198000041E811739F0219680E0CF3CD807B1F7CB
:1019900081E001C080E0DF91CF911F91089520B3D5
:1019A00083B328732695807E282B2C3F19F420932F
:1019B000220132C080912201281771F0DC9A8AE05E
:1019C00090E0EFE9FFE03197F1F700C000000197E8
:1019D000C1F7DC982093220180E395E790933C01C6
:1019E00080933B0182E090E061E070E030E0AB0189
:1019F000082E02C0440F551F0A94E2F742235323D6
:101A0000082E02C0559547950A94E2F7452B29F018
:101A100001968830910559F78FEF0895CF930E9472
:101A2000CF0CC82F8F3F41F480913B0190913C0136
:101A3000892BA9F78FEF05C00E94CF0C8F3FE1F7EC
:101A40008C2FCF9108952F923F924F925F926F9279
:101A50007F928F929F92AF92BF92CF92DF92EF923E
:101A6000FF920F931F93CF93DF9300D000D000D04D
:101A7000CDB7DEB7282E0E94C00A01E010E059E081
:101A8000F52EC801875F9F4F0E94041E801308C077
:101A9000F09EF001F19EF00D1124E35CFE4F808575
:101AA0000F5F1F4F0336110561F78DED91E00E9426
:101AB0004606312C03EF10E09E012F5F3F4F690176
:101AC00062E080E00E94F503A32CB12C1F923F92AC
:101AD0001F930F93DF92CF920E94411B64E0C601D7
:101AE0000E9496040E940E0D0F900F900F900F9081
:101AF0000F900F90853079F018F4823089F0E0CFA4
:101B0000863029F08F3FE1F60C940000D9CF3320C6
:101B100051F03A94D5CF33E6331641F03394D0CF19
:101B2000222031F018C043E6342ECACF312CC8CF62
:101B3000311013C062E080E00E94F50364E184E5A7
:101B400090E00E941B068FEF97EAE1E681509040FB
:101B5000E040E1F71DC03320F1F060E070E0832D3C
:101B60000E94830B87FD0BC089E08A9DF0018B9D4D
:101B7000F00D1124E35CFE4F8081863061F00E94FD
:101B80003D06FFEF27EA31E6F15020403040E1F713
:101B900000C0000018C181E0281621F1281698F035
:101BA00092E0291210C189E08A9DF0018B9DF00D11
:101BB0001124E35CFE4F8481E580F12CF82A8FEF3D
:101BC000838382831EC089E08A9DF0018B9DF00D86
:101BD0001124E35CFE4FE180F12C33E6832E912C3F
:101BE00081E014C089E08A9DF0018B9DF00D1124E5
:101BF000E35CFE4F8281E380F12CF82A8FEF85832E
:101C0000848320E3822E25E7922E8AE000E010E014
:101C100098EF492E90E0592E682E712C0E94E70310
:101C2000332081F160E080E00E94F50360E18DECFB
:101C300091E00E941B068AE30E940804FF92EF9243
:101C40005F924F92DF92CF920E94411B61E080E051
:101C50000E94F503F60101900020E9F73197BF01DA
:101C60006C197D09C6010E9496040F900F900F9089
:101C70000F900F900F90222029F062E085E790E00E
:101C80000E941B0662E080E00E94F5036EE08FE593
:101C900090E00E941B068AE30E9408041F930F93A2
:101CA0005F924F92DF92CF920E94411B63E080E0EF
:101CB0000E94F503F60101900020E9F73197BF017A
:101CC0006C197D09C6010E9496040F900F900F9029
:101CD0000F900F900F90222029F062E085E790E0AE
:101CE0000E941B060E940E0D8530E1F030F4823018
:101CF00001F1833009F467C091CF863031F08F3F16
:101D000009F08CCF0C94000089CF81E090E0222074
:101D100011F080E090E0801791070CF07FCF06195A
:101D200017097CCF081519050CF078CF060D171D83
:101D300075CF29E02A9DC0012B9D900D1124FC0137
:101D4000E35CFE4F7F0186E08083F1E02F1631F1E6
:101D50002F1638F022E0221236C0F70114830583D3
:101D600020C0C801875F9F4F0E94041E882399F0FE
:101D70000E94E70360E080E00E94F50364E18AEBE3
:101D800091E00E941B063FEF87EA91E631508040C8
:101D90009040E1F7FDCEF701018303C0F701128304
:101DA000038389E08A9DB0018B9D700D1124635CD3
:101DB0007E4F832D0E94830B87FF03C0012B09F008
:101DC000DECE0E94C00A26960FB6F894DEBF0FBE84
:101DD000CDBFDF91CF911F910F91FF90EF90DF90DA
:101DE000CF90BF90AF909F908F907F906F905F90BB
:101DF0004F903F902F90089582E00C94230D81E046
:101E00000C94230D80E00C94230DCF92DF92EF927F
:101E1000FF920F931F93CF93DF93CDB7DEB7A697B3
:101E20000FB6F894DEBF0FBECDBF86E0E0ECF0E069
:101E3000DE01919601900D928A95E1F78CE0E6EC37
:101E4000F0E0DE01559601900D928A95E1F783E668
:101E500091E00E9446068CEC94E00E949D0287FF70
:101E600003C082E08093270110E05BEFC52E50E0B5
:101E7000D52ECE0101967C018091D1041F928F93C3
:101E80008091D0041F928F938091CF041F928F93E3
:101E90008091CC041F928F938091CD041F928F93D9
:101EA0008091CE041F928F93DF92CF92FF92EF9298
:101EB0000E94411B63E080E00E94F50362E1C701DC
:101EC0000E94960463E0812F880F810F0E94F50322
:101ED00084E80E94080401E00FB6F894DEBF0FBE4C
:101EE000CDBF123008F000E00E940E0D8530B1F039
:101EF00030F4823009F443C0843059F044C0863055
:101F000029F1873009F03FC0153008F0B5CF1F5FC9
:101F1000B3CF112309F4B0CF1150AECF212F30E051
:101F2000F901EE0FFF1FEE0DFF1D0488F589E02D6E
:101F30008081A1E2B0E0AC0FBD1FA20FB31F9C9146
:101F4000891710F48F5F19C0008396CF812F90E01E
:101F5000FC01EE0FFF1FEE0DFF1D0488F589E02D3B
:101F60002081021718F42150208386CFA1E2B0E02F
:101F7000AC0FBD1FA80FB91F8C9180837DCF8CEC57
:101F800094E00E943802A6960FB6F894DEBF0FBE0A
:101F9000CDBFDF91CF911F910F91FF90EF90DF9018
:101FA000CF9008950F931F93CF9387E191E00E9404
:101FB000460681E090E00E94041EC82F00E010E079
:101FC00060E08AE00E94F503C03219F1C03361F08D
:101FD000C1110DC009E011E0C0E009C0C03239F5FF
:101FE00060E08AE00E94F50303E111E0C0E365E0F0
:101FF000C8010E941B060E940E0D853079F38630C1
:1020000061F4CC2369F3C033D9F660E08AE00E9422
:10201000F5030EE011E0C0E2EACF823079F46C2FD4
:1020200081E090E0CF911F910F910C94181EC03366
:1020300039F660E08AE00E94F503CCCFCF911F9182
:102040000F910895CF92DF92EF92FF92CF93DF939B
:10205000CDB7DEB727970FB6F894DEBF0FBECDBF62
:1020600082E090E00E940C1E6B017C0180E291E016
:102070000E94460660E08AE00E94F5032AE0AE0175
:102080004F5F5F4FC701B6010E94F61A65E00E94DC
:1020900096040E940E0D853059F08630A9F08230EA
:1020A000F9F4B701A60182E090E00E94251E18C055
:1020B000C1148CE2D80681E0E806F104D8F6CC0C15
:1020C000DD1CEE1CFF1CD6CF81E8C81685E2D806C1
:1020D000E104F10478F2F694E794D794C794CACF58
:1020E00027960FB6F894DEBF0FBECDBFDF91CF911C
:1020F000FF90EF90DF90CF900895CF9383E391E02E
:102100000E94460680E090E00E94041EC82F60E016
:102110008AE00E94F50365E0C11103C08FE291E0FF
:1021200002C089E291E00E941B060E940E0D8530DC
:1021300051F0863061F0823071F46C2F80E090E0D5
:10214000CF910C94181EC111E2CFC1E0E0CFC13095
:10215000F1F6C0E0DCCFCF9108952F923F924F92DD
:102160005F926F927F928F929F92AF92BF92CF9227
:10217000DF92EF92FF920F931F93CF93DF93CDB730
:10218000DEB7C856D1090FB6F894DEBF0FBECDBF7B
:102190004C01CE0101967C0183E6F70111928A95EC
:1021A000E9F7A62E81E090E06C0102C0CC0CDD1CAA
:1021B0006A95E2F701E010E0412C89E0782EC80131
:1021C000875F9F4F0E94041E801318C0709EF0010D
:1021D000719EF00D1124E35CFE4F208530E02C2130
:1021E0003D210A2C02C0359527950A94E2F7232B4E
:1021F00029F0F701E40DF11D808343940F5F1F4F19
:1022000003361105E1F6612C512C77247394042DCB
:1022100010E06E01F4E6CF0ED11C180121E0221A65
:102220003108C4010E9446064AE0B601C8010E9476
:10223000EB1AF60101900020E9F76E2F6C19C60128
:102240000E94960463E08BE791E00E941B06570111
:10225000A50CB11C412CF50121915F01A9962FAF6E
:10226000A9972223C9F04394642D81E00E94F503CD
:1022700064E08BE791E00E941B064AE0B601A99654
:10228000EFADA9978E2F90E00E94EB1A63E00E94B9
:102290009604F3E04F12DFCF672D80E00E94F50334
:1022A00084E80E9408040E940E0D8530F1F038F495
:1022B000823031F1833009F0B4CF80E025C0863020
:1022C00031F08F3F09F0ADCF0C940000AACF862DDE
:1022D00090E0821593050CF0A4CF639482E08715FB
:1022E00010F073949ECF53949CCF662009F499CF3D
:1022F0006A9491E0791611F07A9493CF5A9491CF21
:10230000F701E60DF11D8081C859DF4F0FB6F89433
:10231000DEBF0FBECDBFDF91CF911F910F91FF9018
:10232000EF90DF90CF90BF90AF909F908F907F9075
:102330006F905F904F903F902F90089562E08FE8EC
:1023400091E00C94AD10CF92DF92FF920F931F9308
:10235000CF93DF93CDB7DEB7A9970FB6F894DEBF62
:102360000FBECDBFF82ED62E89E891E00E9446061A
:1023700064E08BE791E00E941B060F2D10E04AE01D
:10238000BE016D5D7F4FC8010E94EB1A63E00E94A1
:10239000960460E082E10E94F5038D2D90E04AE012
:1023A000BE016D5D7F4F01960E94EB1A62E00E94B4
:1023B00096044D2D6F2D81E00E94570B87FF03C0BF
:1023C0000E943D061CC089E0809FF001819FF00DB6
:1023D0001124E35CFE4F8081843011F080E0C6C0A0
:1023E000DE01559680E090E0AF019A01280F391F79
:1023F000F90120812D93019687309105B1F74D2D7C
:102400006F2D82E00E94570B87FF07C00E943D0698
:10241000F12CCC24C394D12C51C089E0809FF001D1
:10242000819FF00D1124E35CFE4F80818530B1F671
:10243000DE015C9680E090E0AF019A01280F391F21
:10244000F90120812D93019687309105B1F7E0CFF6
:10245000CE0146960E94D905F1103DC0CE014D96A1
:102460000E94B40463E080E00E94F5036EE671E030
:10247000CE0101960E94D01A62ED70E0CE01019665
:102480000E94E01A8E8D8F70B1F567EB70E0CE017F
:1024900001960E94C51A64E1CE0101960E9496043D
:1024A0000E940E0D873008F04FC0853008F05EC0E6
:1024B000833009F45BC0843009F453C0888D8F3FAA
:1024C00039F662E080E00E94F50367E08BE890E077
:1024D0000E941B06E5CFF1E0FF12E2CF69A17AA1CD
:1024E0007627672776278F8D98A1982789279827A1
:1024F0000E946C05D5CF80E090E02E8D30E0A601E3
:10250000082E02C0440F551F0A94E2F724233523F6
:10251000082E02C0359527950A94E2F78C010F5FCB
:102520001F4F232B61F04AE0BE016D5D7F4FC80154
:102530000E94EB1ABC01CE0101960E94E01AC8016C
:1025400004301105D1F6A7CF873031F08F3F09F065
:10255000B5CF0C940000B2CFF110B0CFFF24F394AC
:10256000ADCFFF2009F4AACFFA94A8CFA9960FB651
:10257000F894DEBF0FBECDBFDF91CF911F910F91B9
:10258000FF90DF90CF900895CF93DF9362E089E8CA
:1025900091E00E94AD10D82F882391F0C0E06C2FFD
:1025A0008D2F0E94A311853019F0863029F008C0C4
:1025B000CC23A9F3C150F3CFCF3188F7CF5FEFCF52
:1025C000DF91CF910895CF93C82F0E940E0D0E94E6
:1025D000E70364E183EA90E00E941B060E940E0D6F
:1025E000823029F462E08C2FCF910C94CF0BCF91E5
:1025F0000895EF92FF921F93CF93DF9300D000D006
:10260000CDB7DEB761E08DE991E00E94AD10182FE3
:10261000882309F44CC08DE991E00E94460664E0ED
:102620008BE791E00E941B06E12EF12C4AE0BE01EF
:102630006F5F7F4FC7010E94EB1A63E00E94960410
:1026400063E0812F0E94CF0B87FF03C00E943D06ED
:1026500027C029E02E9DC0012F9D900D11249C01C3
:10266000235C3E4F7901F9012081233001F5825C22
:102670009E4F0E94B40463E080E00E94F50367E08F
:1026800085EC90E00E941B06F70182814AE0BE01C2
:102690006F5F7F4F90E00E94EB1A62E00E94960409
:1026A0000E940E0D833019F4812F0E94E3120F90C7
:1026B0000F900F900F90DF91CF911F91FF90EF90AF
:1026C00008958F929F92AF92BF92CF92DF92EF9236
:1026D000FF920F931F93CF93DF9300D000D01F92F0
:1026E000CDB7DEB78BEA91E00E944606AA24A394F8
:1026F000B12C10E000E0EE24EA94FE2CCC24CA9425
:10270000DC2C39E0832EC501875F9F4F0E94041E99
:10271000982E8A112FC08A9CF0018B9CF00D1124F9
:10272000E35CFE4F808580FF25C0111101C0192D8B
:102730000F5F40E0692D82E00E94570B87FF03C0C6
:102740000E943D0617C08A9CF0018B9CF00D11245D
:10275000E35CFE4F8081853069F42381848190E0C1
:10276000922B8C159D0530F42581E680F12CF22A00
:10277000192D6C012FEFA21AB20A83E6A816B10434
:1027800011F6BE016F5F7F4FFB0101900020E9F75A
:1027900031975F01A61AB70A4AE0802F90E00E94A5
:1027A000EB1A62E06A0D0E94960464E08BE791E008
:1027B0000E941B061123E1F040E0612F81E00E949E
:1027C000570B87FF03C00E943D0612C029E0129FED
:1027D000C0011124FC01E35CFE4F2081243041F450
:1027E000825C9E4F0E94D905B701C6010E946C050C
:1027F0000E940E0D833029F08F3F59F18230C1F7CE
:1028000006C0002331F180E00E94E31222C00023C1
:1028100001F160E08BEA91E00E94AD10082F88235F
:10282000C1F010E0612F802F0E94A311853049F084
:1028300018F4833071F0F6CF863039F08F3F49F0CD
:10284000F1CF112379F31150EDCF1F3158F71F5FEE
:10285000E9CF0F900F900F900F900F90DF91CF91D5
:102860001F910F91FF90EF90DF90CF90BF90AF90AE
:102870009F908F9008957F928F929F92AF92BF9278
:10288000CF92DF92EF92FF920F931F93CF93DF933C
:10289000CDB7DEB764970FB6F894DEBF0FBECDBFDD
:1028A0005C01E12CF50124E0E29EE00DF11D112414
:1028B00084819581892B11F0E394F4CF01E0F12C10
:1028C00011E0F501808191810E944606C501F4E086
:1028D000FF9E800D911D11249C012C5F3F4F6901CB
:1028E000912CF601208131812115310529F1DE017C
:1028F000119680E090E07A2E8B2EF901E80FF91FF7
:102900004491403C18F0E491E05E01C0E491ED9305
:1029100001968331910589F79394692D81E00E9496
:10292000F50363E1872D982D0E949604F4E0CF0E05
:10293000D11C23E09212D5CF612F80E00E94F503D5
:1029400084E80E9408040E940E0D853061F1C8F4ED
:10295000823099F1833009F0B4CF64960FB6F894C1
:10296000DEBF0FBECDBFDF91CF911F910F91FF90C2
:10297000EF90DF90CF90BF90AF909F908F907F901F
:102980000895863031F08F3F09F09BCF0C94000002
:1029900098CF0E1508F095CF0F5F133010F41F5F1E
:1029A00090CFF3948ECF023008F48BCF01501130CA
:1029B00011F0115086CFFA9484CFF50134E0039FD3
:1029C000E00DF11D11240280F381E02D099579CFEE
:1029D000CF92DF92EF92FF92CF938CE790E00E942C
:1029E0003B1482E090E00E940C1E6B017C0181E0B0
:1029F00090E00E94041EC82F80E090E00E94041E18
:102A0000A70196016C2FCF91FF90EF90DF90CF90B0
:102A10000C94AE188CEA90E00C943B146F927F9269
:102A20008F929F92AF92BF92CF92DF92EF92FF92DE
:102A30000F931F93CF93DF9300D000D01F92CDB799
:102A4000DEB733E0732EEE24E394F12C00E010E0C7
:102A50005AE1C52E51E0D52ECE0101965C016AE007
:102A6000862E912C7AE0672E8EE690E00E94460634
:102A700062E080E00E94F5031F930F93DF92CF92F4
:102A8000BF92AF920E94411B64E0C5010E94960470
:102A900062E0872D0E94F5030E94DF030E940E0D65
:102AA0000F900F900F900F900F900F908530C1F006
:102AB00040F4833009F457C0E8F4823009F445C08B
:102AC000D3CF873069F128F08F3F71F60C94000066
:102AD000CBCF0E191F0917FFC7CF0FE017E2C4CFE6
:102AE0000E0D1F1D0F3097E219070CF4BDCF00E04B
:102AF00010E0BACF88EEE81683E0F8063CF4C70190
:102B0000689E7001699EF00C112403C0EE24E394CA
:102B1000F12C711003C023E0722EA6CF7A94A4CFBB
:102B200092E0E916F10434F0C701B4010E947B1A67
:102B30007B0104C088EEE82E83E0F82E83E0781253
:102B400002C0712C91CF73948FCF0E94E20387E073
:102B500090E00E94121E0817190739F480E990E0EE
:102B60000E943B1402C00E94E2030F900F900F904E
:102B70000F900F90DF91CF911F910F91FF90EF90E9
:102B8000DF90CF90BF90AF909F908F907F906F908D
:102B90000895CF93DF93CDB7DEB764970FB6F8945F
:102BA000DEBF0FBECDBF0E941D0A33243394ECEF6D
:102BB0006E2EE0E07E2ECE0101966C01FFE1AF2E7D
:102BC000F1E0BF2EA2E04A2EB9E05B2E18E8812E7C
:102BD00013E1912E80912901982F9270282F217056
:102BE00080FD06C0911104C072EBE72E71E0F72E54
:102BF00030912801311103C03092280108C0109291
:102C00002801222321F06BEAE62E61E0F62E9923BB
:102C100041F090912801913021F45DE9E52E51E0D9
:102C2000F52E83FF04C04CECE42E40E0F42E60E06F
:102C300080E00E94F50364E1C7010E941B068CEC52
:102C400094E00E949D028091D1041F928F93809105
:102C5000D0041F928F938091CF041F928F93809105
:102C6000CC041F928F938091CD041F928F938091FB
:102C7000CE041F928F937F926F92DF92CF920E9429
:102C8000411B8091CC049091CD04982789279827E7
:102C90009093C7048093C6048091CE049091CF0492
:102CA0009827892798279093C9048093C804809116
:102CB000D0049091D1049827892798279093CB042A
:102CC0008093CA0463E080E00E94F5030FB6F89495
:102CD000DEBF0FBECDBF809127018823A1F0809178
:102CE000290188608093290164E185EC90E00E94CD
:102CF0001B0663E087E00E94F50380912701805D59
:102D00000E94080404C064E1C6010E9496048091F8
:102D100029011F928F93BF92AF92DF92CF920E94B0
:102D2000411B61E080E00E94F50364E1C6010E945E
:102D300096040F900F900F900F900F900F9080912E
:102D4000260181114092270180912A01882319F0E0
:102D500085E08093270180912301882319F083E087
:102D600080932701109229011092C5041092C40487
:102D70001092C3041092C2041092C1041092C004B5
:102D800001E010E0C801875F9F4F0E94041E80137E
:102D900053C02091C0043091C1042F5F3F4F309346
:102DA000C1042093C004509EF001519EF00D1124E7
:102DB000E35CFE4F908595FF05C0909129019062DC
:102DC00090932901509EF001519EF00D1124E35C77
:102DD000FE4F908590FF18C02091C4043091C50427
:102DE0002F5F3F4F3093C5042093C40420902901E6
:102DF000922D9160909329010E94B80C882321F0B4
:102E0000822D816480932901509EF001519EF00D26
:102E10001124E35CFE4F808581FF0EC08091C204C7
:102E20009091C30401969093C3048093C20480914F
:102E300029018260809329018091290185FF02C0C8
:102E4000DA9A01C0DA988091290180FF02C0DB9AEA
:102E500001C0DB988091290186FF02C0D99A01C088
:102E6000D9988091290181FD04C080912701882390
:102E700011F0D89801C0D89A0F5F1F4F0336110583
:102E800009F080CF8091270190E0982F882720912A
:102E90002901822B9093BD048093BC0489B38F7069
:102EA00090E09093BF048093BE048091380190918C
:102EB0003901892B69F40E947D0A90923901809230
:102EC000380160E083E10E94F5038AE20E94080471
:102ED00008EE13E080913001811119C08FE99FE065
:102EE0000197F1F700C000000E94CF0C823061F41E
:102EF0000E94CF0C8F3FE1F780E690E00E943B14E8
:102F00000E94E703109229010150110919F78091DD
:102F10003001882309F45ECE0E94A219181624F00D
:102F200085E08093270156CEDD988091270185307A
:102F300011F41092270110917E0586E090E00E9426
:102F4000041E181341C0E0918005F0918105FE2711
:102F5000EF27FE2780918205909183059827892786
:102F60009827AF01480F591F20917F05493051051F
:102F700038F0206820937F054092800583E026C0CA
:102F80002330E9F4EE0FFF1FE454FB4FAEE7B5E04A
:102F900020E030E012968217930761F04081518162
:102FA000329611965C93119712964C9312972F5F5D
:102FB0003F4FF0CF880F809380058D5F07C020685A
:102FC00020937F0530928005DD9A04CE0E94FF1881
:102FD000FBCF1F920F920FB60F9211248F939F93E6
:102FE000AF93BF938091B8049091B904892B49F0B5
:102FF0008091B8049091B90401979093B90480939B
:10300000B8048091BA049091BB04892B49F0809157
:10301000BA049091BB0401979093BB048093BA04C7
:1030200080913B0190913C01892B49F080913B01BB
:1030300090913C01019790933C0180933B018091DA
:10304000380190913901892B49F080913801909194
:1030500039010197909339018093380180913201B1
:1030600090913301A0913401B0913501892B8A2BC5
:103070008B2B99F08091320190913301A091340112
:10308000B09135010197A109B10980933201909364
:103090003301A0933401B0933501BF91AF919F915B
:1030A0008F910F900FBE0F901F9018951F920F9247
:1030B0000FB60F9211248F939F93EF93FF938BB1D1
:1030C0009CB18C7111F083E019C0E0913101F0E006
:1030D000EA5AFA4F9083809131018F5F80933101DA
:1030E000883211F410923101809130018F5F80930A
:1030F0003001883229F41092300182E080932A0155
:10310000FF91EF919F918F910F900FBE0F901F90A5
:1031100018955D9BFECF8CB95E9BFECF5E9A08959D
:10312000282F8FEF9FEFEEE7F5E02150B0F0BF01C1
:103130006F5F7F4F3081832738E0AC01569547950C
:1031400080FF06C0CA01E1E08E27E0EA9E2701C0A9
:10315000CA01315091F7FB01E8CF08950F931F93F7
:10316000CF93DF93182FC62F662311F001E001C023
:1031700002E0113011F0D8E001C0D7E084E0220F66
:10318000331F441F551F8A95D1F760E074E284EF26
:1031900090E00E948F1A215031092F773327D550A4
:1031A0008E9A969810932F01113029F082E090E0CA
:1031B000A0E0B0E004C088EE93E0A0E0B0E080932F
:1031C0002B0190932C01A0932D01B0932E01919A85
:1031D000899A909A88981BB888E98AB981E0023068
:1031E00009F080E0C0688C2BCD2FCC0FC82BC0BD60
:1031F00010BC29B9DF91CF911F910F910895EF92E3
:10320000FF920F931F93CF93DF93C82F80912F01CD
:10321000882341F0813009F08EC09C2F80E0EEE7DA
:10322000F5E035C08C2F0E949018F82ED92F969A71
:103230000EE715E0CC2339F0F80181918F010E944F
:103240008918C150F7CF8F2D0E9489188D2F0E94A9
:103250008918969880912B0190912C01A0912D01B5
:10326000B0912E018093320190933301A0933401E9
:10327000B09335018091320190913301A0913401D6
:10328000B0913501892B8A2B8B2BA1F754C091501B
:1032900020F02081820F3196FACFD82FD195969ABF
:1032A000FFEF29EF80E0F15020408040E1F700C0BF
:1032B00000008AE30E9489180EE715E0CC23F1F0A4
:1032C0007801F801808182958F7090E3980F9A338E
:1032D00010F0895C01C0892F0E9489180F5F1F4F71
:1032E000F70180818F7090E3980F9A3310F0895C1A
:1032F00001C0892F0E948918C150E0CF9D2F92955F
:103300009F7080E3890F8A3310F087E3890F0E9452
:1033100089188D2F8F70D0E3D80FDA3310F0895CC5
:1033200001C08D2F0E9489188DE00E9489188AE0C3
:103330000E9489189698DF91CF911F910F91FF906D
:10334000EF9008958F929F92AF92BF92CF92DF92AB
:10335000EF92FF920F931F93CF93C0902B01D090C9
:103360002C01E0902D01F0902E0160912F019091A1
:10337000A60520E080E0C0923201D0923301E092B5
:103380003401F09235013091300131110DC080903F
:10339000320190903301A0903401B090350189281A
:1033A0008A288B2881F734C0E92FF0E09F5F6111F4
:1033B0000AC0EA5AFA4F3081E82FF0E0E258FA4F9B
:1033C00030838F5F1AC0EA5AFA4F30813D3009F4DA
:1033D0003CC03A3391F0482F50E0211158C0208171
:1033E00030ED320F3A3208F44CC02755FA01E2585A
:1033F000FA4F2295207F208321E0983209F490E053
:10340000F894309130013150309330017894B3CF3B
:10341000611153C09093A605282F30E022583A4FEF
:10342000F9013197008110E0102F0027319790812A
:10343000092BCEEFC80F8C2F0E9490180817190780
:1034400011F48C2F40C085E03BC0983219F0909366
:10345000A60502C01092A605F894909130019150F3
:10346000909330017894282F90E0EEE7F5E021501A
:1034700020F03081930F3196FACF9111E4CF815033
:1034800022C03A3010F02753B1CF232FAFCF208185
:1034900030ED320F3A3210F0275505C03A3010F0B7
:1034A000275301C0232FFA01E258FA4F2F703081C1
:1034B000232B20838F5F20E0A0CF9093A60581E08F
:1034C00080932A018FEFCF911F910F91FF90EF9082
:1034D000DF90CF90BF90AF909F908F900895991BF1
:1034E00079E004C0991F961708F0961B881F7A95FB
:1034F000C9F78095089597FB072E16F4009407D01E
:1035000077FD09D00E94B11A07FC05D03EF49095D2
:1035100081959F4F0895709561957F4F0895A1E221
:103520001A2EAA1BBB1BFD010DC0AA1FBB1FEE1F3D
:10353000FF1FA217B307E407F50720F0A21BB30B88
:10354000E40BF50B661F771F881F991F1A9469F704
:1035500060957095809590959B01AC01BD01CF0160
:103560000895AA1BBB1B51E107C0AA1FBB1FA617CA
:10357000B70710F0A61BB70B881F991F5A95A9F71C
:1035800080959095BC01CD010895FB01DC010D9063
:103590000020E9F7119705900D920020E1F70895BA
:1035A000FB01DC0105900D920020E1F70895FC017C
:1035B00005900020E9F7809590958E0F9F1F089544
:1035C000FB01DC010D900020E9F7119701900D92AD
:1035D0000020E1F70895BB274A3031F4992322F403
:1035E000BDE2909581959F4F0C94281BBB272A30F4
:1035F00051F4992342F4BDE29095809570956195C0
:103600007F4F8F4F9F4F0C94061BBB27FA01A62FAD
:103610006217710581059105330B30FB66F0AA270F
:10362000660F771F881F991FAA1FA21710F0A21BF1
:1036300063953850A9F7A05DAA3308F0A95DA1935E
:1036400036F7B111B1931082CA010C945A1DBB27F1
:10365000FB015527AA27880F991FAA1FA41710F04E
:10366000A41B83955051B9F7A05DAA3308F0A95D5A
:10367000A193009779F7B111B1931192CB010C94FA
:103680005A1DAEE0B0E0E7E4FBE10C94501E0D895A
:103690001E8986E08C831A8309838FEF9FE79E83C0
:1036A0008D83AE01475E5F4F6F89788DCE010196A5
:1036B0000E94631BEF81F885E00FF11F10822E96A8
:1036C000E4E00C946C1EABE0B0E0E9E6FBE10C94A6
:1036D000421E6C017B018A01FC01178216828381E4
:1036E00081FFCCC1CE0101963C01F6019381F70127
:1036F00093FD859193FF81917F01882309F4BAC1DD
:10370000853239F493FD859193FF81917F01853254
:1037100029F4B60190E00E946A1DE7CF912C212C7C
:10372000312CFFE1F315D8F08B3279F038F4803288
:1037300079F08332A1F4232D20611DC08D3261F018
:10374000803369F4232D216016C0832D8260382ECA
:10375000E32DE4603E2E2AC0F32DF8601DC037FC37
:103760002DC020ED280F2A3040F08E32B9F436FCFF
:1037700081C1232D2064322E19C036FE06C08AE096
:10378000989E200D1124922E11C0EAE02E9E200D4D
:103790001124222EF32DF0623F2E08C08C3621F426
:1037A000832D8068382E02C0883641F4F70193FDDE
:1037B000859193FF81917F018111B3CF982F9F7DD8
:1037C0009554933028F40C5F1F4F9FE399830DC0ED
:1037D000833631F0833771F0833509F059C021C049
:1037E000F801808189830E5F1F4F88248394912C78
:1037F000530113C02801F2E04F0E511CF801A080C4
:10380000B18036FE03C0692D70E002C06FEF7FEF1C
:10381000C5010E944F1D4C018201F32DFF773F2E01
:1038200016C0280122E0420E511CF801A080B18090
:1038300036FE03C0692D70E002C06FEF7FEFC50157
:103840000E94441D4C01F32DF0683F2E820133FC91
:103850001BC0822D90E088169906B0F4B60180E274
:1038600090E00E946A1D2A94F4CFF50137FC8591FF
:1038700037FE81915F01B60190E00E946A1D211020
:103880002A9421E0821A91088114910471F7E8C00A
:10389000843611F0893641F5F80137FE07C06081A2
:1038A0007181828193810C5F1F4F08C0608171819B
:1038B000072E000C880B990B0E5F1F4FF32DFF7620
:1038C0003F2E97FF09C090958095709561957F4F29
:1038D0008F4F9F4FF0683F2E2AE030E0A3010E94F7
:1038E000A61D882E861845C0853731F4232D2F7EDE
:1038F000B22E2AE030E025C0932D997FB92E8F3665
:10390000C1F018F4883579F0B5C0803719F08837E0
:1039100021F0B0C0E92FE061BE2EB4FE0DC0FB2D3A
:10392000F460BF2E09C034FE0AC0292F2660B22ED3
:1039300006C028E030E005C020E130E002C020E110
:1039400032E0F801B7FE07C0608171818281938106
:103950000C5F1F4F06C06081718180E090E00E5FB8
:103960001F4FA3010E94A61D882E8618FB2DFF77EE
:103970003F2E36FE0DC0232D2E7FA22E891458F423
:1039800034FE0BC032FC09C0832D8E7EA82E05C0EC
:10399000B82CA32C03C0B82C01C0B92CA4FE0FC0B6
:1039A000FE01E80DF11D8081803321F49A2D997E6E
:1039B000A92E09C0A2FE06C0B394B39404C08A2DF8
:1039C000867809F0B394A3FC11C0A0FE06C0B2141F
:1039D00088F4280C922C9B180EC0B21460F4B60127
:1039E00080E290E00E946A1DB394F7CFB21418F4FD
:1039F0002B1802C0982C212CA4FE10C0B60180E325
:103A000090E00E946A1DA2FE17C0A1FC03C088E7D7
:103A100090E002C088E590E0B6010CC08A2D86785F
:103A200059F0A1FE02C08BE201C080E2A7FC8DE24A
:103A3000B60190E00E946A1D891438F4B60180E353
:103A400090E00E946A1D9A94F7CF8A94F301E80DE2
:103A5000F11D8081B60190E00E946A1D8110F5CFB2
:103A6000222009F442CEB60180E290E00E946A1D55
:103A70002A94F6CFF6018681978102C08FEF9FEFDF
:103A80002B96E2E10C945E1EFC01059061507040A3
:103A90000110D8F7809590958E0F9F1F0895FC0117
:103AA0006150704001900110D8F7809590958E0F6D
:103AB0009F1F0895DC01FC01672F71917723E1F7C7
:103AC000329704C07C916D9370836291AE17BF07EB
:103AD000C8F308950F931F93CF93DF93FB012381C6
:103AE00021FD03C08FEF9FEF2CC022FF16C046813F
:103AF0005781248135814217530744F4A081B18155
:103B00009D012F5F3F4F318320838C932681378126
:103B10002F5F3F4F3783268314C08B01EC01FB01DD
:103B20000084F185E02D0995892BE1F6D8011696E0
:103B30008D919C911797019617969C938E9316974B
:103B4000CE01DF91CF911F910F910895FA01AA271D
:103B5000283051F1203181F1E8946F936E7F6E5FD0
:103B60007F4F8F4F9F4FAF4FB1E03ED0B4E03CD07E
:103B7000670F781F891F9A1FA11D680F791F8A1F61
:103B8000911DA11D6A0F711D811D911DA11D20D0C8
:103B900009F468943F912AE0269F11243019305D82
:103BA0003193DEF6CF010895462F4770405D419373
:103BB000B3E00FD0C9F7F6CF462F4F70405D4A33C0
:103BC00018F0495D31FD4052419302D0A9F7EACF88
:103BD000B4E0A6959795879577956795BA95C9F7B7
:103BE00000976105710508959B01AC010A2E0694AA
:103BF0005795479537952795BA95C9F7620F731F63
:103C0000841F951FA01D0895E199FECF9FBB8EBB19
:103C1000E09A99278DB30895A6E1B0E044E050E022
:103C20000C94341EA8E1B0E042E050E00C94341E45
:103C3000262FE199FECF9FBB8EBB2DBB0FB6F8940C
:103C4000E29AE19A0FBE01960895242F0E94191E50
:103C5000252F0E94191E0C942D1E0E94181E272F1E
:103C60000C94191EDC01CB01FC01E199FECF06C0CA
:103C7000FFBBEEBBE09A31960DB20D924150504021
:103C8000B8F708952F923F924F925F926F927F9272
:103C90008F929F92AF92BF92CF92DF92EF92FF925C
:103CA0000F931F93CF93DF93CDB7DEB7CA1BDB0B08
:103CB0000FB6F894DEBF0FBECDBF09942A883988AD
:103CC00048885F846E847D848C849B84AA84B984B4
:103CD000C884DF80EE80FD800C811B81AA81B981C0
:103CE000CE0FD11D0FB6F894DEBF0FBECDBFED01D4
:063CF0000895F894FFCFD7
:103CF600980100008F019E11AB0161139D01F9121D
:103D06008901C4127F010E15000000003901000070
:103D160033017D10200122101701D20F0000000090
:103D26007F0100006301050F5601C00A45010A150F
:103D36003901E814E7015A010000000045010000BE
:103D4600F000020FE600FF0EDB00FC0E0000000094
:103D56001F0C63173B3BCE04CD04CC04CF04D00428
:103D6600D1043A00253032752E253032752E253095
:103D760032752020253032753A253032753A253095
:103D860032750025303264002564002025303275F6
:103D96002E253032752E2530327520253032753A73
:103DA600253032753A2530327500253034640025C9
:023DB600750096
:00000001FF
