:100000000C9405010C94E70B0C9422010C94220132
:100010000C9422010C9422010C9422010C948E1752
:100020000C9422010C9422010C9422010C942201C4
:100030000C9422010C94FB170C9422010C942201C5
:100040000C9422010C9422010C9422010C942201A4
:100050000C942201EDE5E4EEF1F2F3EFEDEE00CDCC
:10006000CEC2CEC520C7CDC0D7C5CDC8C500CFC074
:10007000D0CECBDC00ECF100EEF2EAEB2ECCD2C716
:100080003A00E2EAEB2ECCD2C73A003CEFF3F1F2B1
:10009000EE3E00EEE1EDE0F0F3E6E5EDEE20C1C46A
:1000A000C73A00D1E1F0EEF1E8F2FC3F20E4E02DA8
:1000B00022C2C2CEC42200EDE5F200EDE5F220F14D
:1000C000E2FFE7E800EEF8E8E1EAE000CDC5D22083
:1000D000C3CED2CEC2CDCED1D2C800C2D0C5CCDF25
:1000E00020D3D0CEC200C2D0C5CCDF20CCD2C70036
:1000F000C0C4D0C5D100CFCE20CEC4CDCECCD3008D
:10010000C4CBDF20C2D1C5D5004E4F4E4500455669
:10011000454E004F444400D7C5D2CDCED1D2DC00ED
:10012000D1CACED0CED1D2DC00415343494900528E
:10013000545500D0C5C6C8CC00D1C2DFC7DC2052A0
:100140005334383500CFD0CEC3D0C0CCCCC8D0CEFD
:10015000C2C0CDC8C500D1CAC0CDC8D0CEC2C0CDE6
:10016000C8C500C4C0D2C02FC2D0C5CCDF00D0C526
:10017000CBC500C4C2D500C2CEC400C1C4C700CD27
:10018000C0D1D2D0CEC9CAC000C0D0D5C8C200CD5F
:10019000C020D1C2DFC7C800CCC5CDDE00CDC5C8E8
:1001A000D1CFD0C0C2CDCED1D2DC00C0C2C0D0C869
:1001B000DF00D0C0C1CED2C03100CDCECCC5D02062
:1001C000C1C4C700CDCEC2CEC50041A042A1E0450A
:1001D000A3A4A5A64BA74D484FA8504354A9AA587D
:1001E000E1ABACE2ADAE62AFB0B161B2B3B4E36566
:1001F000B6B7B8B9BABBBCBD6FBE7063BF79E4789F
:10020000E5C0C1E6C2C3C4C5C6C711241FBECFE541
:10021000D8E0DEBFCDBF11E0A0E6B0E0E0E4FCE353
:1002200002C005900D92A232B107D9F725E0A2E2F3
:10023000B1E001C01D92A73AB207E1F70E946E1526
:100240000C941E1E0C94000028EE33E03093B90489
:100250002093B80429E0829FC0011124FC01EB5BCC
:10026000FE4F808182FD06C08091B8049091B90450
:10027000892BB9F78091B8049091B904892B31F09A
:1002800080912301811102C081E008958FEF0895CC
:100290000895AC9A8FE99FE00197F1F700C0000044
:1002A000AC988FE99FE00197F1F700C00000089536
:1002B00088E480B986B7846486BF0898089528EEDC
:1002C00033E0309355052093540594EA96BF06B663
:1002D00007FC08C02091540530915505232BB9F730
:1002E00081E02DC091B1987F983011F082E027C055
:1002F0008E7F83B984E886BF06B607FC07C080916D
:10030000540590915505892BB9F7EACF81B1887FC3
:10031000883121F4962FFB0124E802C083E00FC04E
:100320008E2F891B8417A8F4819183B926BF06B646
:1003300007FE08C081B1887F883291F384E0809302
:10034000260107C06091540570915505672B79F718
:10035000C7CF84E986BF8FE891E00197F1F700C02D
:100360000000809126010895982F28EE33E0309305
:1003700055052093540584EA86BF06B607FC08C0DD
:100380002091540530915505232BB9F781E034C0F5
:1003900081B1887F883011F082E02EC0916093B9DE
:1003A00084E886BF06B607FC07C08091540590918B
:1003B0005505892BB9F7EACF91B1987F903431F484
:1003C00020E050E041505109E4EC08C083E014C043
:1003D00033B1DB01A80FB91F3C932F5F822F90E050
:1003E000841795079CF4E6BF06B607FE08C031B136
:1003F000387F303569F384E0809326011CC0A091DA
:100400005405B0915505AB2B79F7C0CF24E826BF32
:1004100006B607FC07C02091540530915505232BE3
:10042000B9F7B4CF21B1287F283529F723B1FB01D3
:10043000E80FF91F208384ED86BF8FE891E00197D4
:10044000F1F700C00000809126010895CF93DF935B
:10045000CDB7DEB72A970FB6F894DEBF0FBECDBF7B
:10046000FC01198285812AE0622F0E94141A392F1B
:1004700040E1849FC0011124832B8F778A8384817C
:100480000E94141A392F40E1849FC0011124832B4C
:100490008B8383810E94141A392F40E1849FC0010D
:1004A0001124832B8C831D8282810E94141A392F80
:1004B00040E1849FC0011124832B8E8381810E949F
:1004C000141A392F40E1849FC0011124832B8F839C
:1004D00080810E94141A292F30E1839FC0011124CA
:1004E000822B888719868AEA8A874AE0BE016F5F75
:1004F0007F4F80ED0E945F0191E0811101C090E08B
:10050000892F81952A960FB6F894DEBF0FBECDBF16
:10051000DF91CF910895EF92FF920F931F93CF93A6
:10052000DF93CDB7DEB728970FB6F894DEBF0FBEC6
:10053000CDBF8C01CE0101967C0187E0F7011192BD
:100540008A95E9F7188641E0BE01685F7F4F80ED2C
:100550000E945F0147E0B70180ED0E94B401811164
:1005600044C08981982F92959F708F70FAE09F9F69
:10057000800D1124F80185838A81982F92959F70B0
:100580008F70FAE09F9F800D1124F80184838B8186
:10059000982F92959F708F70FAE09F9F800D112485
:1005A000F80183838D81982F92959F708F70FAE068
:1005B0009F9F800D1124F80182838E81982F929540
:1005C0009F708F70FAE09F9F800D1124F801818346
:1005D0008F81982F92959F708F70FAE09F9F800D6A
:1005E0001124F801808380E001C08FEF28960FB6B8
:1005F000F894DEBF0FBECDBFDF91CF911F910F9159
:10060000FF90EF900895CF93DF9300D0CDB7DEB782
:100610001A8288E0898341E0BE016F5F7F4F80EDE1
:100620000E945F0141E0BE016E5F7F4F80ED0E943E
:10063000B401811107C081E09A819A3A09F480E0FF
:10064000819501C08FEF0F900F90DF91CF910895AA
:10065000CF92DF92EF92FF920F931F93CF93C82F09
:1006600088B3C6FB662760F970E0660F771F9C2F82
:10067000991F9927991F892B682BC5FB442740F99F
:1006800050E0440F551F440F551F462BC4FB222733
:1006900020F930E053E0220F331F5A95E1F7242B65
:1006A00028BB0E94490188B3807F88BBC3FB882791
:1006B00080F9C0FBCC24C0F8D12C63E0CC0CDD1C4D
:1006C0006A95E1F7C82AC2FBEE24E0F8F12CEE0CA3
:1006D000FF1CEC28C1FB002700F910E0000F111FE0
:1006E000000F111F0E2908BB0E94490185B3837EAC
:1006F00085BB88B3807F88BBCF911F910F91FF90FE
:10070000EF90DF90CF9008952FEF89EF90E0215088
:1007100080409040E1F700C0000088B3807F88BB34
:1007200087B38F6087BB85B3837E85BB84B38C61C1
:1007300084BB88B38C6088BB0E9449018FE19EE432
:100740000197F1F700C000000E9449018FE19EE48B
:100750000197F1F700C000000E944901C3980E9470
:1007600049018FE39FE10197F1F700C0000088E2A3
:100770000E94280388E00E94280381E00E94280349
:1007800086E00E94280388B3807F88BB85B3837E80
:1007900085BB08958EE00C9428038FE00C94280309
:1007A0008CE00C9428030C94D00381E00E94280371
:1007B00010922501109224018FE19EE40197F1F738
:1007C00000C00000089580932501609324016130EA
:1007D00039F048F0623031F0633029F48C5A03C0AC
:1007E000805C01C08C5E80680C942803CF92DF92FD
:1007F000EF92FF920F931F93CF93DF93C82F803C0C
:1008000028F0D0E0FE01E65FFE4FC491AA9A88B3BB
:10081000C6FB662760F970E0660F771F9C2F991F53
:100820009927991F892B682BC5FB442740F950E075
:10083000440F551F440F551F462BC4FB222720F998
:1008400030E053E0220F331F5A95E1F7242B28BBE9
:100850000E94490188B3807F88BB88B3C3FB992776
:1008600090F9892BC0FBCC24C0F8D12C63E0CC0CD0
:10087000DD1C6A95E1F7C82AC2FBEE24E0F8F12CF2
:10088000EE0CFF1CEC28C1FB002700F910E0000F64
:10089000111F000F111F0E2908BB0E94490185B3CB
:1008A000837E85BB88B3807F88BB809125018F5F65
:1008B000843158F480932501DF91CF911F910F91DE
:1008C000FF90EF90DF90CF900895109225018091D6
:1008D00024018F5F80932401813039F050F0823001
:1008E00031F0833031F484ED05C080EC03C084E93D
:1008F00001C080E8DF91CF911F910F91FF90EF90A1
:10090000DF90CF900C9428030F931F93CF93DF9326
:10091000D62F8C01C0E0CD1781F0F80181918F01B5
:10092000811107C080E20E94F603CF5FCD17D0F39C
:1009300004C00E94F603CF5FEECFDF91CF911F91ED
:100940000F910895CF92DF92EF92FF920F931F9332
:10095000CF93DF93CDB7DEB76B970FB6F894DEBFBA
:100960000FBECDBF7C0162E080E00E94E30367E739
:1009700071E0CE0101960E94751A62ED70E0CE0121
:1009800001960E94851AF70180818F7039F467EB18
:1009900070E0CE0101960E946A1A2DC080E090E0BE
:1009A000CC24C394D12CF7013081A601082E02C0BB
:1009B000440F551F0A94E2F7232F30E024233523F8
:1009C000082E02C0359527950A94E2F78C010F5F37
:1009D0001F4F232B61F04AE0BE016B5E7F4FC801C1
:1009E0000E94901ABC01CE0101960E94851AC8018E
:1009F00004301105C1F664E1CE0101960E94840421
:100A000062E089E00E94E30363E771E0CE010196B2
:100A10000E94751A62ED70E0CE0101960E94851A5F
:100A2000F7018081807F39F467EB70E0CE01019699
:100A30000E946A1A2BC004E010E0CC24C394D12C8D
:100A4000F701808190E09601002E02C0220F331F33
:100A50000A94E2F782239323002E02C0959587958E
:100A60000A94E2F7892B69F04AE0BE016B5E7F4F82
:100A7000C80103970E94901ABC01CE0101960E9402
:100A8000851A0F5F1F4F08301105D1F664E1CE01C2
:100A900001960E9484046B960FB6F894DEBF0FBED9
:100AA000CDBFDF91CF911F910F91FF90EF90DF901D
:100AB000CF900895EF92FF920F931F93CF93DF9300
:100AC000CDB7DEB76B970FB6F894DEBF0FBECDBFC4
:100AD0007C018B0162E080E00E94E30362E870E049
:100AE000CE0101960E94751A8FEFE816F80619F4E8
:100AF00067EB70E00EC04AE0BE016B5E7F4FC7013E
:100B00000E94901ABC01CE0101960E94851A65E7E9
:100B100070E0CE0101960E946A1A64E1CE0101964E
:100B20000E94840463E080E00E94E30368E770E0D1
:100B3000CE0101960E94751A0F3F8FEF180719F426
:100B400067EB70E00EC04AE0BE016B5E7F4FC801EC
:100B50000E94901ABC01CE0101960E94851A65E799
:100B600070E0CE0101960E946A1A64E1CE010196FE
:100B70000E9484046B960FB6F894DEBF0FBECDBF03
:100B8000DF91CF911F910F91FF90EF9008950F93F8
:100B90001F93CF93DF93CDB7DEB764970FB6F8946A
:100BA000DEBF0FBECDBFFC01558144813381228160
:100BB000918180811F925F931F924F931F923F9369
:100BC0001F922F931F929F931F928F9384ED90E01B
:100BD0009F938F938E010F5F1F4F1F930F930E9460
:100BE000E61A61E080E00E94E30364E1C8010E942C
:100BF00084040FB6F894DEBF0FBECDBF64960FB667
:100C0000F894DEBF0FBECDBFDF91CF911F910F9142
:100C100008950F931F93CF93DF93D62FC0E0CD1786
:100C2000A9F0FC0124918C010F5F1F4F211107C017
:100C300080E20E94F603CF5FCD17D0F307C0FC011E
:100C400084910E94F603CF5FC801E9CFDF91CF9175
:100C50001F910F91089562E080E00E94E30364E138
:100C60008BEB90E00C940906CF93DF93EC010E948C
:100C7000D503CE010E947C1A682FCE010E9409067E
:100C80008AE3DF91CF910C94F60387B3806B87BB27
:100C900088B3806B88BB8EE58DB908958FB988EED7
:100CA00093E09093BB048093BA0477990BC0809132
:100CB000BA049091BB04892BC1F786E0809323018D
:100CC0008FEF08958FB10895C49880EA0E944E0670
:100CD00080E00E944E06C49A0895CF93C82FC4980E
:100CE00083E00E944E068C2F0E944E0680E00E94F8
:100CF0004E06C49ACF9108951F93CF93DF93182F78
:100D0000D62FC42FC49885E00E944E06812F0E94E2
:100D10004E068D2F0E944E068C2F0E944E06C49ABE
:100D2000DF91CF911F910895CF93DF93D82FC62FD6
:100D3000C49882E00E944E068D2F0E944E068C2F92
:100D40000E944E06C49ADF91CF91089588EE93E0F9
:100D50009093B9048093B8048091360181110BC03F
:100D60008091B8049091B904892BB1F782E0809307
:100D700023018FEF0895F89480913601815080937C
:100D80003601789480913A0190913A019F5F909357
:100D90003A019A3011F410923A0108959F92AF925D
:100DA000BF92CF92DF92EF92FF920F931F93CF9358
:100DB000DF93D82FC92FB62E0E94A6069DE0899FEB
:100DC000F0011124EE52FB4FC080D180E280F3800D
:100DD0000D2F1C2F9DE0A92E2DE0922EB11003C0E7
:100DE0008D2F9C2F41C040E0A89EF0011124EE52AF
:100DF000FB4FBF016C5F7F4FDB018C91242F30E0F4
:100E0000481760F4CF01820F931FDC0115968C9177
:100E1000200F311FD9018C934F5FEECF200F311F70
:100E2000D90111978C918823D9F28481080F111D63
:100E30000E94A60690912301911114C0989EF00182
:100E40001124EE52FB4F4081518162817381BA942B
:100E5000C416D506E606F70609F283E0809323015F
:100E600080E002C080E090E0DF91CF911F910F9170
:100E7000FF90EF90DF90CF90BF90AF909F9008953C
:100E8000AF92BF92CF92DF92EF92FF920F931F9398
:100E9000CF93DF936B017C01142F59010E946406EC
:100EA000DC2DD295DD0FD07E902F9870D92BB70115
:100EB000A601EBE17695679557954795EA95D1F7A9
:100EC0004370D42B86FF0BC084FF0BC082FD02C091
:100ED000C1E008C085E0809323018FEF58C0C3E0D4
:100EE00001C0C2E0F894C49882E00E944E068C2FA4
:100EF0008295807F805E0E944E06802F83700E94C4
:100F00004E06D701C60123E0B695A795979587951C
:100F10002A95D1F70E944E068D2F0E944E06D701CA
:100F2000C60133E1B695A795979587953A95D1F780
:100F30000E944E06D701C6014BE0B695A79597953E
:100F400087954A95D1F70E944E06812F0E944E0642
:100F50007501D0E0D11749F0D83039F0F70181910F
:100F60007F010E944E06DF5FF5CFC49A02FF0DC0DD
:100F7000C4982FEF2C0F81E090E001C0880F2A95D4
:100F8000EAF780680E944E06C49A78948C2FDF910D
:100F9000CF911F910F91FF90EF90DF90CF90BF9076
:100FA000AF9008958F929F92AF92BF92EF92FF926F
:100FB0000F931F93CF93DF937C01C62F49015A01F2
:100FC000162F169516951695D0E0D11791F00FEFC4
:100FD000970148E0C501B4010E94400780912301B8
:100FE000882311F08FEF13C088E0E80EF11CDF5F5B
:100FF000ECCF4C2F477031F00FEF9701C501B401D2
:101000000E944007809123018111ECCF81E0DF91A4
:10101000CF911F910F91FF90EF90BF90AF909F9055
:101020008F9008952F923F924F925F926F927F928E
:101030008F929F92AF92BF92CF92DF92EF92FF92E8
:101040000F931F93CF93DF9300D000D01F92CDB7A3
:10105000DEB71C018B015D834C8379010E9464061D
:1010600080FD07C00E94640681FD05C080E090E01D
:1010700091C080E001C081E0C49890E0880F991F82
:10108000880F991F80690E944E0680E00E944E06DC
:10109000882E912CA12CB12C80E00E944E068983D1
:1010A000482E512C612C712C80E00E944E068A83C0
:1010B00080E00E944E068B8380E00E944E06EC8109
:1010C000FD8180831D821C82CC80DD80C00ED11EFC
:1010D00080E00E944E06F60180838C819D810196FE
:1010E0009D838C83089781F7C49A998193FF0BC0E5
:1010F000EA814E2F50E060E070E0FB818F2F90E09E
:10110000A0E0B0E006C080E090E0DC0140E050E00C
:10111000BA01F10110821182128213822981237097
:10112000A22B762F652F542F4427482B592B6A2B3F
:101130007B2BABE0440F551F661F771FAA95D1F795
:10114000B5E07694679457944794BA95D1F783E0C5
:10115000880C991CAA1CBB1C8A95D1F78428952859
:10116000A628B728482959296A297B294083518311
:1011700062837383F70110828DE20E946D06807C8A
:10118000F7019081892B808340E060EC8DE20E9422
:101190007C06C8010F900F900F900F900F90DF9179
:1011A000CF911F910F91FF90EF90DF90CF90BF9064
:1011B000AF909F908F907F906F905F904F903F90F7
:1011C0002F900895CF93DF931F92CDB7DEB719828A
:1011D0004091370160913701909137018DE0849FF4
:1011E000A00111244A525B4F869FB001112469521D
:1011F0007B4F899FC00111249E012F5F3F4F8E526C
:101200009B4F0E941208809137018F5F80933701B6
:101210008A3011F410923701809136018F5F8093EC
:1012200036018A3019F41092360103C08981807C1E
:1012300029F085E0809323018FEF01C081E00F90BA
:10124000DF91CF910895CF92DF92EF92FF92CF93EB
:10125000DF93D82F6A017B01DB01CA012BE1B69530
:10126000A795979587952A95D1F7C82FC370842F96
:101270008295880F807EC82BC49882E00E944E061B
:101280008D2F0E944E06D701C60133E0B695A79573
:10129000979587953A95D1F70E944E068C2F0E941C
:1012A0004E06D701C60143E1B695A7959795879558
:1012B0004A95D1F70E944E06D701C6015BE0B6956C
:1012C000A795979587955A95D1F70E944E06C49A8F
:1012D000DF91CF91FF90EF90DF90CF900895CF9264
:1012E000DF92EF92FF92CF93DF93D82F6A017B01B9
:1012F000C42FC295CC0FC07E2870C22B8BE176958F
:101300006795579547958A95D1F74370C42BC49834
:1013100082E00E944E068D2F0E944E06D701C60124
:1013200023E0B695A795979587952A95D1F70E94C2
:101330004E068C2F0E944E06D701C60133E1B695AA
:10134000A795979587953A95D1F70E944E06D701B4
:10135000C6014BE0B695A795979587954A95D1F725
:101360000E944E06C49ADF91CF91FF90EF90DF90DC
:10137000CF9008958A98929A85B78C7F85BF8BB756
:1013800080648BBF08951FBC8AE08EBD1DBC1CBC51
:1013900017BC16BC87E08BBD80ED8ABD19BC18BC9C
:1013A00089B7806189BF0895CF93C82F0E944506F1
:1013B000BC9AC49AC49880EC0E944E06C49A40E835
:1013C00060E889E20E947C0665E08AE20E94940659
:1013D00069E889E20E94940662E088E20E9494062D
:1013E00043E063E08BE20E947C064C2F6FEF8FE0BE
:1013F0000E947C068EE00E946D06807EC81302C0AB
:10140000C1E001C0CFEF44E064E080E60E947C06CA
:101410008C2FCF910895CF92DF92EF92FF92CF93CE
:10142000F89484B38F7184BB85B3806E85BB81B320
:10143000877C81BB82B3886382BBD49ADC98D59ABF
:10144000DD9A8AB38F608ABB8BB38F608BBB0E949F
:1014500084030E94D0030E94D5030E9458018CECA3
:1014600094E00E948B020E94030387FF03C082E086
:101470008093270182E090E00E94B11D6B017C0106
:1014800081E090E00E94A91DC82F80E090E00E94BA
:10149000A91DA70196016C2F0E945318579A0E940C
:1014A000BA090E94C30978942FEF89E698E1215088
:1014B00080409040E1F700C0000080E00E94D40925
:1014C00018161CF083E080932701CF91FF90EF90D6
:1014D000DF90CF9008950F93CF93DF93CDB7DEB712
:1014E00027970FB6F894DEBF0FBECDBF81E090E026
:1014F00039E022E0389FF001399FF00D1124E35CC0
:10150000FE4F2087019683369105A1F781E08983FC
:101510008091CE048A838091CD048B838091CC040A
:101520008C838091CF048D838091D0048E838091B1
:10153000D1048F8307EF9E012F5F3F4F47E060E0AC
:1015400070E0CB010E94400727960FB6F894DEBFEB
:101550000FBECDBFDF91CF910F910895EF92FF9213
:101560000F931F93CF93DF9300D000D0CDB7DEB79A
:101570008091290180618093290101E010E099E0C8
:10158000F92E60E0C801875F9F4F0E94BD1DF09E4D
:10159000F001F19EF00D1124E35CFE4F17820F5F06
:1015A0001F4F0336110569F7E199FECF0E946B0AC0
:1015B0002FEF81EE94E0215080409040E1F700C091
:1015C00000000E94D5036CE086E591E00E940906C8
:1015D00018E08EE20E94F6032FEF89E698E1215091
:1015E00080409040E1F700C00000115091F7109248
:1015F000290101E010E0F12C89E0E82EE09EF001E5
:10160000E19EF00D1124E35CFE4F6781601306C07C
:10161000C801875F9F4F0E94BD1DF3940F5F1F4F4E
:101620000336110559F762E080E00E94E30360E1B0
:1016300083E990E00E9409064AE0BE016F5F7F4F98
:101640008F2D90E00E94901A63E00E9484040E9413
:101650006B0A2FEF87EA91E6215080409040E1F736
:1016600000C0000080E395E790933C0180933B012C
:10167000109227010F900F900F900F90DF91CF9154
:101680001F910F91FF90EF9008950F931F93CF93A9
:10169000DF9300D0CDB7DEB7162F813011F085E093
:1016A00001C084E0898389E0189FF0011124E35C84
:1016B000FE4F82E080874A83612F70E080E090E0F7
:1016C00007EF9E012F5F3F4F42E00E944007812FAE
:1016D0000E9424010F900F90DF91CF911F910F91E5
:1016E00008950F931F93CF93DF9300D000D000D0C5
:1016F000CDB7DEB7182F86E09E012F5F3F4FF9016F
:10170000982F11929A95E9F789836115710561F413
:1017100089E0189FF0011124E35CFE4F82E080878E
:10172000672B79F441E00EC0F90180E090E0DB0125
:10173000A80FB91F4C914193019686309105B9F7D6
:10174000E7CF46E0812F90E0A0E0B0E007EFBC01DA
:10175000CD010E944007112321F0812F0E94240116
:1017600001C081E026960FB6F894DEBF0FBECDBF54
:10177000DF91CF911F910F9108950F931F93CF93F6
:10178000DF931F92CDB7DEB7182F698389E0189FCA
:10179000F0011124E35CFE4F82E08087612F70E04E
:1017A00080E090E007EF9E012F5F3F4F41E00E94F5
:1017B00040078981823021F0812F0E94240101C0DD
:1017C00081E00F90DF91CF911F910F9108951F92AB
:1017D0000F920FB60F9211248F929F92AF92BF92E9
:1017E000CF92DF92EF92FF922F933F934F935F93AD
:1017F0006F937F938F939F93AF93BF93EF93FF93D9
:10180000CF93DF93CDB7DEB72E97DEBFCDBF9E015E
:10181000225F3F4FAE014B5F5F4FBE016A5F7F4F5C
:10182000CE0101960E9412088091290189809A8038
:10183000AB80BC8084FF11C0D501C4018F7799278C
:10184000AA27BB2729E0289FF001299FF00D11242A
:10185000E35CFE4F882D8F77878375016401E894E0
:10186000C7F8DD24EE24FF24C601875F9F4F0E9446
:10187000A91D90E0A0E0B0E0C816D906EA06FB0674
:1018800021F084E08093270140C089E08C9DF00125
:101890008D9DF00D1124E35CFE4F80858460808770
:1018A00092FE03C080858062808791FC0BC089E036
:1018B0008C9DF0018D9DF00D1124E35CFE4F808521
:1018C0008160808790FE0BC089E08C9DF0018D9D2A
:1018D000F00D1124E35CFE4F80858D7F80874D8164
:1018E000FE01369680E090E059E05C9D90015D9DA0
:1018F000300D1124235C3E4F841738F45191D901E7
:10190000A80FB91F5C930196F7CF2E960FB6F894E7
:10191000DEBF0FBECDBFDF91CF91FF91EF91BF91A1
:10192000AF919F918F917F916F915F914F913F9177
:101930002F91FF90EF90DF90CF90BF90AF909F904E
:101940008F900F900FBE0F901F9018951F93CF93FD
:10195000DF93182FCCE6D0E0CE010E94A91D81179D
:1019600039F0219680E0CF3CD807B1F781E001C083
:1019700080E0DF91CF911F91089520B383B3287346
:101980002695807E282B2C3F19F42093220132C00B
:1019900080912201281771F0DC9A8AE090E0EFE94B
:1019A000FFE03197F1F700C000000197C1F7DC9824
:1019B0002093220180E395E790933C0180933B01C3
:1019C00082E090E061E070E030E0AB01082E02C000
:1019D000440F551F0A94E2F742235323082E02C0F6
:1019E000559547950A94E2F7452B29F001968830E2
:1019F000910559F78FEF0895CF930E94BD0CC82F22
:101A00008F3F41F480913B0190913C01892BA9F7D4
:101A10008FEF05C00E94BD0C8F3FE1F78C2FCF9157
:101A200008954F925F926F927F928F929F92AF92A2
:101A3000BF92CF92DF92EF92FF920F931F93CF93BB
:101A4000DF9300D000D000D0CDB7DEB7482E0E9483
:101A5000AE0A01E010E0B12C59E0F52EC801875F15
:101A60009F4F0E94A91D80130AC0F09EF001F19EB5
:101A7000F00D1124E35CFE4F808582FDB3940F5F6F
:101A80001F4F0336110551F78AEB91E00E9434068F
:101A9000512C03EF10E0CE0101966C0162E080E072
:101AA0000E94E303E52CF12C1F925F921F930F938A
:101AB000DF92CF920E94E61A64E0C6010E9484047D
:101AC0000E94FC0C0F900F900F900F900F900F90B2
:101AD000853079F018F4823089F0E0CF863029F033
:101AE0008F3FE1F60C940000D9CF552051F05A9465
:101AF000D5CF93E6591641F05394D0CF442031F01E
:101B000011C043E6542ECACF512CC8CF51100DC07E
:101B100062E080E00E94E30364E184E590E00E94DB
:101B2000090617C0552009F4E7C060E070E0852D74
:101B30000E94710B87FD0BC089E08E9DF0018F9D87
:101B4000F00D1124E35CFE4F8081863061F00E942D
:101B50002B062FEF87EA91E6215080409040E1F775
:101B600000C00000D7C021E0421669F0421620F004
:101B700082E04816F9F0CEC0018110E033E6832EF2
:101B8000912C81E039C08281038110E0182B511023
:101B900002C000E010E089E08E9DF0018F9DF00D05
:101BA0001124E35CFE4F8FEF8583848320C022E005
:101BB0004212B0C091E0B9120DC089E08E9DF001D3
:101BC0008F9DF00D1124E35CFE4F8481058110E0B0
:101BD000182B02C000E010E089E08E9DF0018F9D7F
:101BE000F00D1124E35CFE4F8FEF8383828320E3AB
:101BF000822E25E7922E8AE098EF692E90E0792ECA
:101C0000A82EB12C8FE590E00E9434061F930F930D
:101C10007F926F92DF92CF920E94E61A62E080E09C
:101C20000E94E303F60101900020E9F73197BF011C
:101C30006C197D09C6010E9484040F900F900F90CB
:101C40000F900F900F90442029F062E085E790E01C
:101C50000E9409060E94FC0C8530D9F030F48230D5
:101C6000F9F0833009F456C0CDCF863029F08F3F8C
:101C700049F60C940000C6CF81E090E0442011F0BA
:101C800080E090E0801791070CF0BCCF0A191B0987
:101C9000B9CF081519050CF0B5CF0A0D1B1DB2CF31
:101CA00089E08E9DF0018F9DF00D1124E35CFE4FC5
:101CB00086E0808321E0421651F0421630F082E047
:101CC000481228C01483058304C0018302C0128314
:101CD000038389E08E9DB0018F9D700D1124635C9C
:101CE0007E4F852D0E94710B87FF03C0012B09F0E9
:101CF0002ECF0E94AE0A0EC091E0491258CF89E063
:101D00008E9DF0018F9DF00D1124E35CFE4F8281CA
:101D100083813FCF26960FB6F894DEBF0FBECDBFAE
:101D2000DF91CF911F910F91FF90EF90DF90CF90B7
:101D3000BF90AF909F908F907F906F905F904F90EB
:101D4000089582E00C94110D81E00C94110D80E057
:101D50000C94110DCF92DF92EF92FF920F931F938D
:101D6000CF93DF93CDB7DEB7A6970FB6F894DEBF5B
:101D70000FBECDBF86E0E0ECF0E0DE019196019071
:101D80000D928A95E1F78CE0E6ECF0E0DE015596E5
:101D900001900D928A95E1F783E691E00E94340666
:101DA0008CEC94E00E948B0287FF03C082E080935A
:101DB000270110E05BEFC52E50E0D52ECE01019635
:101DC0007C018091D1041F928F938091D0041F9247
:101DD0008F938091CF041F928F938091CC041F9298
:101DE0008F938091CD041F928F938091CE041F9288
:101DF0008F93DF92CF92FF92EF920E94E61A63E0F8
:101E000080E00E94E30362E1C7010E94840463E072
:101E1000812F880F810F0E94E30384E80E94F6035C
:101E200001E00FB6F894DEBF0FBECDBF123008F050
:101E300000E00E94FC0C8530B1F030F4823009F4EF
:101E400043C0843059F044C0863029F1873009F00E
:101E50003FC0153008F0B5CF1F5FB3CF112309F491
:101E6000B0CF1150AECF212F30E0F901EE0FFF1FA0
:101E7000EE0DFF1D0488F589E02D8081A1E2B0E020
:101E8000AC0FBD1FA20FB31F9C91891710F48F5F79
:101E900019C0008396CF812F90E0FC01EE0FFF1F49
:101EA000EE0DFF1D0488F589E02D2081021718F43E
:101EB0002150208386CFA1E2B0E0AC0FBD1FA80F58
:101EC000B91F8C9180837DCF8CEC94E00E94260218
:101ED000A6960FB6F894DEBF0FBECDBFDF91CF91AF
:101EE0001F910F91FF90EF90DF90CF9008950F9387
:101EF0001F93CF9387E191E00E94340681E090E048
:101F00000E94A91DC82F00E010E060E08AE00E9456
:101F1000E303C03219F1C03361F0C1110DC009E013
:101F200011E0C0E009C0C03239F560E08AE00E94EB
:101F3000E30303E111E0C0E365E0C8010E94090684
:101F40000E94FC0C853079F3863061F4CC2369F370
:101F5000C033D9F660E08AE00E94E3030EE011E0AE
:101F6000C0E2EACF823079F46C2F81E090E0CF912B
:101F70001F910F910C94BD1DC03339F660E08AE0CB
:101F80000E94E303CCCFCF911F910F910895CF9280
:101F9000DF92EF92FF92CF93DF93CDB7DEB7279713
:101FA0000FB6F894DEBF0FBECDBF82E090E00E9476
:101FB000B11D6B017C0180E291E00E94340660E07B
:101FC0008AE00E94E3032AE0AE014F5F5F4FC70142
:101FD000B6010E949B1A65E00E9484040E94FC0CDA
:101FE000853059F08630A9F08230F9F4B701A601A6
:101FF00082E090E00E94CA1D18C0C1148CE2D8068D
:1020000081E0E806F104D8F6CC0CDD1CEE1CFF1CC8
:10201000D6CF81E8C81685E2D806E104F10478F24B
:10202000F694E794D794C794CACF27960FB6F8943E
:10203000DEBF0FBECDBFDF91CF91FF90EF90DF905D
:10204000CF900895CF9383E391E00E94340680E01F
:1020500090E00E94A91DC82F60E08AE00E94E3037F
:1020600065E0C11103C08FE291E002C089E291E016
:102070000E9409060E94FC0C853051F0863061F008
:10208000823071F46C2F80E090E0CF910C94BD1DF4
:10209000C111E2CFC1E0E0CFC130F1F6C0E0DCCF4A
:1020A000CF9108952F923F924F925F926F927F92BD
:1020B0008F929F92AF92BF92CF92DF92EF92FF9258
:1020C0000F931F93CF93DF93CDB7DEB7C856D109D7
:1020D0000FB6F894DEBF0FBECDBF4C01CE01019606
:1020E0007C0183E6F70111928A95E9F7A62E81E03B
:1020F00090E06C0102C0CC0CDD1C6A95E2F701E0B7
:1021000010E0412C89E0782EC801875F9F4F0E9424
:10211000A91D801318C0709EF001719EF00D11244E
:10212000E35CFE4F208530E02C213D210A2C02C0CB
:10213000359527950A94E2F7232B29F0F701E40D52
:10214000F11D808343940F5F1F4F03361105E1F6A5
:10215000612C512C77247394042D10E06E01F4E669
:10216000CF0ED11C180121E0221A3108C4010E94AF
:1021700034064AE0B601C8010E94901AF6010190A7
:102180000020E9F76E2F6C19C6010E94840463E0F9
:102190008BE791E00E9409065701A50CB11C412C68
:1021A000F50121915F01A9962FAFA9972223C9F0CC
:1021B0004394642D81E00E94E30364E08BE791E0A7
:1021C0000E9409064AE0B601A996EFADA9978E2FA5
:1021D00090E00E94901A63E00E948404F3E04F12A2
:1021E000DFCF672D80E00E94E30384E80E94F603BE
:1021F0000E94FC0C8530F1F038F4823031F18330EC
:1022000009F0B4CF80E025C0863031F08F3F09F06F
:10221000ADCF0C940000AACF862D90E082159305D7
:102220000CF0A4CF639482E0871510F073949ECFD6
:1022300053949CCF662009F499CF6A9491E0791663
:1022400011F07A9493CF5A9491CFF701E60DF11DD6
:102250008081C859DF4F0FB6F894DEBF0FBECDBFE7
:10226000DF91CF911F910F91FF90EF90DF90CF9072
:10227000BF90AF909F908F907F906F905F904F90A6
:102280003F902F90089562E08FE891E00C945210F7
:10229000CF92DF92FF920F931F93CF93DF93CDB72F
:1022A000DEB7A9970FB6F894DEBF0FBECDBFF82EEC
:1022B000D62E89E891E00E94340664E08BE791E035
:1022C0000E9409060F2D10E04AE0BE016D5D7F4FB0
:1022D000C8010E94901A63E00E94840460E082E1D9
:1022E0000E94E3038D2D90E04AE0BE016D5D7F4FBB
:1022F00001960E94901A62E00E9484044D2D6F2D79
:1023000081E00E94450B87FF03C00E942B061CC082
:1023100089E0809FF001819FF00D1124E35CFE4F66
:102320008081843011F080E0C6C0DE01559680E0E7
:1023300090E0AF019A01280F391FF90120812D93F8
:10234000019687309105B1F74D2D6F2D82E00E94E7
:10235000450B87FF07C00E942B06F12CCC24C394A9
:10236000D12C51C089E0809FF001819FF00D112494
:10237000E35CFE4F80818530B1F6DE015C9680E043
:1023800090E0AF019A01280F391FF90120812D93A8
:10239000019687309105B1F7E0CFCE0146960E94B5
:1023A000C705F1103DC0CE014D960E94A20463E026
:1023B00080E00E94E3036EE671E0CE0101960E9488
:1023C000751A62ED70E0CE0101960E94851A8E8D1D
:1023D0008F70B1F567EB70E0CE0101960E946A1A2A
:1023E00064E1CE0101960E9484040E94FC0C8730B7
:1023F00008F04FC0853008F05EC0833009F45BC040
:10240000843009F453C0888D8F3F39F662E080E054
:102410000E94E30367E08BE890E00E940906E5CFA5
:10242000F1E0FF12E2CF69A17AA17627672776272C
:102430008F8D98A19827892798270E945A05D5CF74
:1024400080E090E02E8D30E0A601082E02C0440FFF
:10245000551F0A94E2F724233523082E02C0359530
:1024600027950A94E2F78C010F5F1F4F232B61F031
:102470004AE0BE016D5D7F4FC8010E94901ABC0109
:10248000CE0101960E94851AC80104301105D1F6CB
:10249000A7CF873031F08F3F09F0B5CF0C94000003
:1024A000B2CFF110B0CFFF24F394ADCFFF2009F4E9
:1024B000AACFFA94A8CFA9960FB6F894DEBF0FBEA4
:1024C000CDBFDF91CF911F910F91FF90DF90CF9003
:1024D0000895CF93DF9362E089E891E00E94521063
:1024E000D82F882391F0C0E06C2F8D2F0E944811C7
:1024F000853019F0863029F008C0CC23A9F3C150EB
:10250000F3CFCF3188F7CF5FEFCFDF91CF91089531
:10251000CF93C82F0E94FC0C0E94D50364E183EA8C
:1025200090E00E9409060E94FC0C823029F462E0CF
:102530008C2FCF910C94BD0BCF910895EF92FF9209
:102540001F93CF93DF9300D000D0CDB7DEB761E00B
:102550008DE991E00E945210182F882309F44CC095
:102560008DE991E00E94340664E08BE791E00E94DF
:102570000906E12EF12C4AE0BE016F5F7F4FC701D3
:102580000E94901A63E00E94840463E0812F0E94FD
:10259000BD0B87FF03C00E942B0627C029E02E9D9C
:1025A000C0012F9D900D11249C01235C3E4F7901A9
:1025B000F9012081233001F5825C9E4F0E94A20424
:1025C00063E080E00E94E30367E085EC90E00E9416
:1025D0000906F70182814AE0BE016F5F7F4F90E0FC
:1025E0000E94901A62E00E9484040E94FC0C8330D6
:1025F00019F4812F0E9488120F900F900F900F9066
:10260000DF91CF911F91FF90EF9008958F929F924D
:10261000AF92BF92CF92DF92EF92FF920F931F93F0
:10262000CF93DF9300D000D01F92CDB7DEB78BEAF7
:1026300091E00E943406AA24A394B12C10E000E09B
:10264000EE24EA94FE2CCC24CA94DC2C39E0832EB0
:10265000C501875F9F4F0E94A91D982E8A112FC028
:102660008A9CF0018B9CF00D1124E35CFE4F808569
:1026700080FF25C0111101C0192D0F5F40E0692DA9
:1026800082E00E94450B87FF03C00E942B0617C003
:102690008A9CF0018B9CF00D1124E35CFE4F80813D
:1026A000853069F42381848190E0922B8C159D05FF
:1026B00030F42581E680F12CF22A192D6C012FEFE0
:1026C000A21AB20A83E6A816B10411F6BE016F5F22
:1026D0007F4FFB0101900020E9F731975F01A61AB7
:1026E000B70A4AE0802F90E00E94901A62E06A0DDB
:1026F0000E94840464E08BE791E00E9409061123A4
:10270000E1F040E0612F81E00E94450B87FF03C0AC
:102710000E942B0612C029E0129FC0011124FC0167
:10272000E35CFE4F2081243041F4825C9E4F0E9486
:10273000C705B701C6010E945A050E94FC0C8330F0
:1027400029F08F3F59F18230C1F706C0002331F1E3
:1027500080E00E94881222C0002301F160E08BEA31
:1027600091E00E945210082F8823C1F010E0612FE1
:10277000802F0E944811853049F018F4833071F0A1
:10278000F6CF863039F08F3F49F0F1CF112379F33E
:102790001150EDCF1F3158F71F5FE9CF0F900F9009
:1027A0000F900F900F90DF91CF911F910F91FF909D
:1027B000EF90DF90CF90BF90AF909F908F90089553
:1027C0007F928F929F92AF92BF92CF92DF92EF92C1
:1027D000FF920F931F93CF93DF93CDB7DEB764972C
:1027E0000FB6F894DEBF0FBECDBF5C01E12CF50142
:1027F00024E0E29EE00DF11D112484819581892B56
:1028000011F0E394F4CF01E0F12C11E0F5018081A7
:1028100091810E943406C501F4E0FF9E800D911D58
:1028200011249C012C5F3F4F6901912CF6012081FE
:1028300031812115310529F1DE01119680E090E00A
:102840007A2E8B2EF901E80FF91F4491403C18F0C5
:10285000E491E05E01C0E491ED930196833191052E
:1028600089F79394692D81E00E94E30363E1872D4A
:10287000982D0E948404F4E0CF0ED11C23E0921224
:10288000D5CF612F80E00E94E30384E80E94F60325
:102890000E94FC0C853061F1C8F4823099F18330DC
:1028A00009F0B4CF64960FB6F894DEBF0FBECDBF6B
:1028B000DF91CF911F910F91FF90EF90DF90CF901C
:1028C000BF90AF909F908F907F900895863031F0A9
:1028D0008F3F09F09BCF0C94000098CF0E1508F0A5
:1028E00095CF0F5F133010F41F5F90CFF3948ECF0E
:1028F000023008F48BCF0150113011F0115086CF07
:10290000FA9484CFF50134E0039FE00DF11D11240A
:102910000280F381E02D099579CFCF92DF92EF927B
:10292000FF92CF938CE790E00E94E01382E090E06A
:102930000E94B11D6B017C0181E090E00E94A91D05
:10294000C82F80E090E00E94A91DA70196016C2F7E
:10295000CF91FF90EF90DF90CF900C9453188CEABA
:1029600090E00C94E0136F927F928F929F92AF92BF
:10297000BF92CF92DF92EF92FF920F931F93CF936C
:10298000DF9300D000D01F92CDB7DEB733E0732EB7
:10299000EE24E394F12C00E010E05AE1C52E51E062
:1029A000D52ECE0101965C016AE0862E912C7AE04C
:1029B000672E8EE690E00E94340662E080E00E947E
:1029C000E3031F930F93DF92CF92BF92AF920E94C7
:1029D000E61A64E0C5010E94840462E0872D0E942B
:1029E000E3030E94CD030E94FC0C0F900F900F9008
:1029F0000F900F900F908530C1F040F4833009F4B0
:102A000057C0E8F4823009F445C0D3CF873069F16C
:102A100028F08F3F71F60C940000CBCF0E191F09E0
:102A200017FFC7CF0FE017E2C4CF0E0D1F1D0F30E9
:102A300097E219070CF4BDCF00E010E0BACF88EEA2
:102A4000E81683E0F8063CF4C701689E7001699EB1
:102A5000F00C112403C0EE24E394F12C711003C098
:102A600023E0722EA6CF7A94A4CF92E0E916F10467
:102A700034F0C701B4010E94201A7B0104C088EE23
:102A8000E82E83E0F82E83E0781202C0712C91CFFB
:102A900073948FCF0E94D00387E090E00E94B71D0F
:102AA0000817190739F480E990E00E94E01302C08A
:102AB0000E94D0030F900F900F900F900F90DF9116
:102AC000CF911F910F91FF90EF90DF90CF90BF902B
:102AD000AF909F908F907F906F900895CF93DF93EA
:102AE000CDB7DEB764970FB6F894DEBF0FBECDBF8B
:102AF0000E940B0A33243394ECEF6E2EE0E07E2E1E
:102B0000CE0101966C01FFE1AF2EF1E0BF2EA2E0F5
:102B10004A2EB9E05B2E18E8812E13E1912E8091A8
:102B20002901982F9270282F217080FD06C09111E5
:102B300004C072EBE72E71E0F72E309128013111BD
:102B400003C03092280108C010922801222321F0EE
:102B50006BEAE62E61E0F62E992341F09091280170
:102B6000913021F45DE9E52E51E0F52E83FF04C09C
:102B70004CECE42E40E0F42E60E080E00E94E303A1
:102B800064E1C7010E9409068CEC94E00E948B026C
:102B90008091D1041F928F938091D0041F928F93C4
:102BA0008091CF041F928F938091CC041F928F93BA
:102BB0008091CD041F928F938091CE041F928F93AA
:102BC0007F926F92DF92CF920E94E61A8091CC049E
:102BD0009091CD049827892798279093C7048093D4
:102BE000C6048091CE049091CF0498278927982716
:102BF0009093C9048093C8048091D0049091D1042B
:102C00009827892798279093CB048093CA0463E080
:102C100080E00E94E3030FB6F894DEBF0FBECDBF85
:102C2000809127018823A1F08091290188608093F9
:102C3000290164E185EC90E00E94090663E087E0E9
:102C40000E94E30380912701805D0E94F60304C087
:102C500064E1C6010E948404809129011F928F9330
:102C6000BF92AF92DF92CF920E94E61A61E080E0BD
:102C70000E94E30364E1C6010E9484040F900F9058
:102C80000F900F900F900F9080912601811140922C
:102C9000270180912A01882319F085E0809327017C
:102CA00080912301882319F083E0809327011092FB
:102CB00029011092C5041092C4041092C30410920A
:102CC000C2041092C1041092C00401E010E0C801D7
:102CD000875F9F4F0E94A91D801353C02091C0049D
:102CE0003091C1042F5F3F4F3093C1042093C00443
:102CF000509EF001519EF00D1124E35CFE4F908533
:102D000095FF05C090912901906290932901509EF2
:102D1000F001519EF00D1124E35CFE4F908590FF71
:102D200018C02091C4043091C5042F5F3F4F3093E9
:102D3000C5042093C40420902901922D91609093A2
:102D400029010E94A60C882321F0822D81648093A2
:102D50002901509EF001519EF00D1124E35CFE4FBD
:102D6000808581FF0EC08091C2049091C3040196BA
:102D70009093C3048093C204809129018260809360
:102D800029018091290185FF02C0DA9A01C0DA98F1
:102D90008091290180FF02C0DB9A01C0DB988091FD
:102DA000290186FF02C0D99A01C0D99880912901D2
:102DB00081FD04C080912701882311F0D89801C0BB
:102DC000D89A0F5F1F4F0336110509F080CF80910D
:102DD000270190E0982F882720912901822B90933A
:102DE000BD048093BC0489B38F7090E09093BF04BE
:102DF0008093BE048091380190913901892B69F448
:102E00000E946B0A909239018092380160E083E160
:102E10000E94E3038AE20E94F60308EE13E0809129
:102E20003001811119C08FE99FE00197F1F700C0CF
:102E300000000E94BD0C823061F40E94BD0C8F3FE7
:102E4000E1F780E690E00E94E0130E94D503109223
:102E500029010150110919F780913001882309F4E3
:102E60005ECE0E944719181624F085E08093270152
:102E700056CEDD9880912701853011F410922701FC
:102E800010917E0586E090E00E94A91D181341C0B4
:102E9000E0918005F0918105FE27EF27FE278091C4
:102EA000820590918305982789279827AF01480FBD
:102EB000591F20917F054930510538F02068209333
:102EC0007F054092800583E026C02330E9F4EE0FB1
:102ED000FF1FE454FB4FAEE7B5E020E030E0129670
:102EE0008217930761F040815181329611965C936D
:102EF000119712964C9312972F5F3F4FF0CF880F88
:102F0000809380058D5F07C0206820937F053092F5
:102F10008005DD9A04CE0E94A418FBCF1F920F9269
:102F20000FB60F9211248F939F93AF93BF9380910D
:102F3000B8049091B904892B49F08091B80490911C
:102F4000B90401979093B9048093B8048091BA04AE
:102F50009091BB04892B49F08091BA049091BB04F5
:102F600001979093BB048093BA0480913B019091A8
:102F70003C01892B49F080913B0190913C010197E4
:102F800090933C0180933B018091380190913901ED
:102F9000892B49F0809138019091390101979093E4
:102FA0003901809338018091320190913301A091D1
:102FB0003401B0913501892B8A2B8B2B99F08091AC
:102FC000320190913301A0913401B0913501019704
:102FD000A109B1098093320190933301A093340188
:102FE000B0933501BF91AF919F918F910F900FBE1C
:102FF0000F901F9018951F920F920FB60F921124E9
:103000008F939F93EF93FF938BB19CB18C7111F0D1
:1030100083E019C0E0913101F0E0EA5AFA4F908361
:10302000809131018F5F80933101883211F41092C9
:103030003101809130018F5F80933001883229F413
:103040001092300182E080932A01FF91EF919F91CD
:103050008F910F900FBE0F901F9018955D9BFECF24
:103060008CB95E9BFECF5E9A0895282F8FEF9FEF5D
:10307000EEE7F5E02150B0F0BF016F5F7F4F308188
:10308000832738E0AC015695479580FF06C0CA01FA
:10309000E1E08E27E0EA9E2701C0CA01315091F796
:1030A000FB01E8CF08950F931F93CF93DF93182F61
:1030B000C62F662311F001E001C002E0113011F0CB
:1030C000D8E001C0D7E084E0220F331F441F551F12
:1030D0008A95D1F760E074E284EF90E00E94341AA0
:1030E000215031092F773327D5508E9A9698109317
:1030F0002F01113029F082E090E0A0E0B0E004C0A0
:1031000088EE93E0A0E0B0E080932B0190932C0137
:10311000A0932D01B0932E01919A899A909A889844
:103120001BB888E98AB981E0023009F080E0C06804
:103130008C2BCD2FCC0FC82BC0BD10BC29B9DF9173
:10314000CF911F910F910895EF92FF920F931F93CC
:10315000CF93DF93C82F80912F01882341F08130D6
:1031600009F08EC09C2F80E0EEE7F5E035C08C2F93
:103170000E943518F82ED92F969A0EE715E0CC2329
:1031800039F0F80181918F010E942E18C150F7CFBC
:103190008F2D0E942E188D2F0E942E1896988091A8
:1031A0002B0190912C01A0912D01B0912E018093C3
:1031B000320190933301A0933401B0933501809193
:1031C000320190913301A0913401B0913501892BE6
:1031D0008A2B8B2BA1F754C0915020F02081820FB5
:1031E0003196FACFD82FD195969AFFEF29EF80E04C
:1031F000F15020408040E1F700C000008AE30E94C7
:103200002E180EE715E0CC23F1F07801F80180814B
:1032100082958F7090E3980F9A3310F0895C01C00B
:10322000892F0E942E180F5F1F4FF70180818F702A
:1032300090E3980F9A3310F0895C01C0892F0E94A7
:103240002E18C150E0CF9D2F92959F7080E3890F7B
:103250008A3310F087E3890F0E942E188D2F8F700C
:10326000D0E3D80FDA3310F0895C01C08D2F0E94B3
:103270002E188DE00E942E188AE00E942E18969833
:10328000DF91CF911F910F91FF90EF9008958F9252
:103290009F92AF92BF92CF92DF92EF92FF920F93E5
:1032A0001F93CF93C0902B01D0902C01E0902D0163
:1032B000F0902E0160912F019091A60520E080E012
:1032C000C0923201D0923301E0923401F092350184
:1032D0003091300131110DC0809032019090330156
:1032E000A0903401B090350189288A288B2881F775
:1032F00034C0E92FF0E09F5F61110AC0EA5AFA4F2B
:103300003081E82FF0E0E258FA4F30838F5F1AC027
:10331000EA5AFA4F30813D3009F43CC03A3391F01B
:10332000482F50E0211158C0208130ED320F3A3241
:1033300008F44CC02755FA01E258FA4F2295207F35
:10334000208321E0983209F490E0F8943091300124
:103350003150309330017894B3CF611153C09093C2
:10336000A605282F30E022583A4FF9013197008105
:1033700010E0102F002731979081092BCEEFC80F56
:103380008C2F0E9435180817190711F48C2F40C094
:1033900085E03BC0983219F09093A60502C01092C8
:1033A000A605F89490913001915090933001789453
:1033B000282F90E0EEE7F5E0215020F03081930FC8
:1033C0003196FACF9111E4CF815022C03A3010F0FB
:1033D0002753B1CF232FAFCF208130ED320F3A32B8
:1033E00010F0275505C03A3010F0275301C0232FA5
:1033F000FA01E258FA4F2F703081232B20838F5F20
:1034000020E0A0CF9093A60581E080932A018FEF62
:10341000CF911F910F91FF90EF90DF90CF90BF90D1
:10342000AF909F908F900895991B79E004C0991FE9
:10343000961708F0961B881F7A95C9F7809508950E
:1034400097FB072E16F4009407D077FD09D00E9451
:10345000561A07FC05D03EF4909581959F4F08952C
:10346000709561957F4F0895A1E21A2EAA1BBB1B90
:10347000FD010DC0AA1FBB1FEE1FFF1FA217B30740
:10348000E407F50720F0A21BB30BE40BF50B661F56
:10349000771F881F991F1A9469F76095709580951A
:1034A00090959B01AC01BD01CF010895AA1BBB1BE8
:1034B00051E107C0AA1FBB1FA617B70710F0A61B34
:1034C000B70B881F991F5A95A9F780959095BC0155
:1034D000CD010895FB01DC010D900020E9F7119763
:1034E00005900D920020E1F70895FB01DC010590A5
:1034F0000D920020E1F70895FC0105900020E9F706
:10350000809590958E0F9F1F0895FB01DC010D9013
:103510000020E9F7119701900D920020E1F708953E
:10352000BB274A3031F4992322F4BDE2909581956E
:103530009F4F0C94CD1ABB272A3051F4992342F4A3
:10354000BDE290958095709561957F4F8F4F9F4F0D
:103550000C94AB1ABB27FA01A62F621771058105DF
:103560009105330B30FB66F0AA27660F771F881F83
:10357000991FAA1FA21710F0A21B63953850A9F734
:10358000A05DAA3308F0A95DA19336F7B111B193FC
:103590001082CA010C94FF1CBB27FB015527AA27E8
:1035A000880F991FAA1FA41710F0A41B83955051D0
:1035B000B9F7A05DAA3308F0A95DA193009779F748
:1035C000B111B1931192CB010C94FF1CAEE0B0E0AD
:1035D000ECEEFAE10C94F51D0D891E8986E08C83D2
:1035E0001A8309838FEF9FE79E838D83AE01475E29
:1035F0005F4F6F89788DCE0101960E94081BEF8185
:10360000F885E00FF11F10822E96E4E00C94111E55
:10361000ABE0B0E0EEE0FBE10C94E71D6C017B0158
:103620008A01FC0117821682838181FFCCC1CE0101
:1036300001963C01F6019381F70193FD859193FF7B
:1036400081917F01882309F4BAC1853239F493FD51
:10365000859193FF81917F01853229F4B60190E035
:103660000E940F1DE7CF912C212C312CFFE1F31587
:10367000D8F08B3279F038F4803279F08332A1F4CB
:10368000232D20611DC08D3261F0803369F4232D1C
:10369000216016C0832D8260382EE32DE4603E2E1B
:1036A0002AC0F32DF8601DC037FC2DC020ED280F77
:1036B0002A3040F08E32B9F436FC81C1232D2064CB
:1036C000322E19C036FE06C08AE0989E200D1124C5
:1036D000922E11C0EAE02E9E200D1124222EF32DF1
:1036E000F0623F2E08C08C3621F4832D8068382E7E
:1036F00002C0883641F4F70193FD859193FF8191D3
:103700007F018111B3CF982F9F7D9554933028F47A
:103710000C5F1F4F9FE399830DC0833631F08337D1
:1037200071F0833509F059C021C0F8018081898387
:103730000E5F1F4F88248394912C530113C02801DE
:10374000F2E04F0E511CF801A080B18036FE03C09C
:10375000692D70E002C06FEF7FEFC5010E94F41C7D
:103760004C018201F32DFF773F2E16C0280122E085
:10377000420E511CF801A080B18036FE03C0692DB5
:1037800070E002C06FEF7FEFC5010E94E91C4C01A1
:10379000F32DF0683F2E820133FC1BC0822D90E098
:1037A00088169906B0F4B60180E290E00E940F1DE1
:1037B0002A94F4CFF50137FC859137FE81915F01A2
:1037C000B60190E00E940F1D21102A9421E0821A78
:1037D00091088114910471F7E8C0843611F089369C
:1037E00041F5F80137FE07C06081718182819381C4
:1037F0000C5F1F4F08C060817181072E000C880B81
:10380000990B0E5F1F4FF32DFF763F2E97FF09C0D8
:1038100090958095709561957F4F8F4F9F4FF06881
:103820003F2E2AE030E0A3010E944B1D882E86180F
:1038300045C0853731F4232D2F7EB22E2AE030E0AB
:1038400025C0932D997FB92E8F36C1F018F4883595
:1038500079F0B5C0803719F0883721F0B0C0E92F72
:10386000E061BE2EB4FE0DC0FB2DF460BF2E09C07A
:1038700034FE0AC0292F2660B22E06C028E030E0B0
:1038800005C020E130E002C020E132E0F801B7FEDF
:1038900007C060817181828193810C5F1F4F06C0D8
:1038A0006081718180E090E00E5F1F4FA3010E9454
:1038B0004B1D882E8618FB2DFF773F2E36FE0DC040
:1038C000232D2E7FA22E891458F434FE0BC032FC17
:1038D00009C0832D8E7EA82E05C0B82CA32C03C052
:1038E000B82C01C0B92CA4FE0FC0FE01E80DF11DDB
:1038F0008081803321F49A2D997EA92E09C0A2FEE1
:1039000006C0B394B39404C08A2D867809F0B394AA
:10391000A3FC11C0A0FE06C0B21488F4280C922C9F
:103920009B180EC0B21460F4B60180E290E00E94D1
:103930000F1DB394F7CFB21418F42B1802C0982CB3
:10394000212CA4FE10C0B60180E390E00E940F1D60
:10395000A2FE17C0A1FC03C088E790E002C088E582
:1039600090E0B6010CC08A2D867859F0A1FE02C005
:103970008BE201C080E2A7FC8DE2B60190E00E94DC
:103980000F1D891438F4B60180E390E00E940F1DEA
:103990009A94F7CF8A94F301E80DF11D8081B60166
:1039A00090E00E940F1D8110F5CF222009F442CE35
:1039B000B60180E290E00E940F1D2A94F6CFF60136
:1039C0008681978102C08FEF9FEF2B96E2E10C94E6
:1039D000031EFC010590615070400110D8F78095DE
:1039E00090958E0F9F1F0895FC01615070400190CB
:1039F0000110D8F7809590958E0F9F1F0895DC01D8
:103A0000FC01672F71917723E1F7329704C07C9115
:103A10006D9370836291AE17BF07C8F308950F933B
:103A20001F93CF93DF93FB01238121FD03C08FEF11
:103A30009FEF2CC022FF16C046815781248135811B
:103A40004217530744F4A081B1819D012F5F3F4F7E
:103A5000318320838C93268137812F5F3F4F3783BB
:103A6000268314C08B01EC01FB010084F185E02D5D
:103A70000995892BE1F6D80116968D919C9117979F
:103A8000019617969C938E931697CE01DF91CF9156
:103A90001F910F910895FA01AA27283051F1203182
:103AA00081F1E8946F936E7F6E5F7F4F8F4F9F4FD2
:103AB000AF4FB1E03ED0B4E03CD0670F781F891F14
:103AC0009A1FA11D680F791F8A1F911DA11D6A0FE2
:103AD000711D811D911DA11D20D009F468943F9195
:103AE0002AE0269F11243019305D3193DEF6CF0194
:103AF0000895462F4770405D4193B3E00FD0C9F75A
:103B0000F6CF462F4F70405D4A3318F0495D31FDC6
:103B10004052419302D0A9F7EACFB4E0A695979519
:103B2000879577956795BA95C9F7009761057105EF
:103B300008959B01AC010A2E069457954795379539
:103B40002795BA95C9F7620F731F841F951FA01D93
:103B50000895E199FECF9FBB8EBBE09A99278DB364
:103B60000895A6E1B0E044E050E00C94D91DA8E12E
:103B7000B0E042E050E00C94D91D262FE199FECF31
:103B80009FBB8EBB2DBB0FB6F894E29AE19A0FBE95
:103B900001960895242F0E94BE1D252F0E94BE1D50
:103BA0000C94D21D0E94BD1D272F0C94BE1DDC015C
:103BB000CB01FC01E199FECF06C0FFBBEEBBE09A52
:103BC00031960DB20D9241505040B8F708952F92A2
:103BD0003F924F925F926F927F928F929F92AF929D
:103BE000BF92CF92DF92EF92FF920F931F93CF93EA
:103BF000DF93CDB7DEB7CA1BDB0B0FB6F894DEBF81
:103C00000FBECDBF09942A88398848885F846E84A6
:103C10007D848C849B84AA84B984C884DF80EE80F0
:103C2000FD800C811B81AA81B981CE0FD11D0FB6F9
:103C3000F894DEBF0FBECDBFED010895F894FFCF1D
:103C4000980100008F014311AB0106139D019E12E4
:103C5000890169127F01B3140000000039010000DE
:103C6000330122102001C70F1701770F0000000059
:103C70007F0100006301AA0E5601AE0A4501AF1490
:103C800039018D14C4014801000000004501000005
:103C9000F000A70EE600A40EDB00A10E000000005D
:103CA0001F0C63173B3BCE04CD04CC04CF04D004DF
:103CB000D1043A00253032752E253032752E25304C
:103CC00032752020253032753A253032753A25304C
:103CD00032750025303264002564002025303275AD
:103CE0002E253032752E2530327520253032753A2A
:103CF000253032753A253032750025303464002580
:023D000075004C
:00000001FF
