:100000000C9400010C94E20B0C941D010C941D0146
:100010000C941D010C941D010C941D010C943E17B1
:100020000C941D010C941D010C941D010C941D01D8
:100030000C941D010C94AB170C941D010C941D0124
:100040000C941D010C941D010C941D010C941D01B8
:100050000C941D01EDE5E4EEF1F2F3EFEDEE00CDD1
:10006000CEC2CEC520C7CDC0D7C5CDC8C500CFC074
:10007000D0CECBDC00ECF100EEF2EAEB2ECCD2C716
:100080003A00E2EAEB2ECCD2C73A003CEFF3F1F2B1
:10009000EE3E00EEE1EDE0F0F3E6E5EDEE20C1C46A
:1000A000C73A00D1E1F0EEF1E8F2FC3F20E4E02DA8
:1000B00022C2C2CEC42200EDE5F200EDE5F220F14D
:1000C000E2FFE7E800EEF8E8E1EAE000CDC5D22083
:1000D000C3CED2CEC2CDCED1D2C800C2D0C5CCDF25
:1000E00020D3D0CEC200C2D0C5CCDF20CCD2C70036
:1000F000C0C4D0C5D100CFCE20CEC4CDCECCD3008D
:10010000C4CBDF20C2D1C5D5004E4F4E4500455669
:10011000454E004F444400D7C5D2CDCED1D2DC00ED
:10012000D1CACED0CED1D2DC00415343494900528E
:10013000545500D0C5C6C8CC00D1C2DFC7DC2052A0
:100140005334383500CFD0CEC3D0C0CCCCC8D0CEFD
:10015000C2C0CDC8C500D1CAC0CDC8D0CEC2C0CDE6
:10016000C8C500C4C0D2C02FC2D0C5CCDF00D0C526
:10017000CBC500C4C2D500C2CEC400C1C4C700CD27
:10018000C0D1D2D0CEC9CAC000C0D0D5C8C200CD5F
:10019000C020D1C2DFC7C800CCC5CDDE00CDC5C8E8
:1001A000D1CFD0C0C2CDCED1D2DC00C0C2C0D0C869
:1001B000DF00D0C0C1CED2C03100CDCEC2CEC5008E
:1001C00041A042A1E045A3A4A5A64BA74D484FA836
:1001D000504354A9AA58E1ABACE2ADAE62AFB0B1A6
:1001E00061B2B3B4E365B6B7B8B9BABBBCBD6FBE54
:1001F0007063BF79E478E5C0C1E6C2C3C4C5C6C7B1
:1002000011241FBECFE5D8E0DEBFCDBF11E0A0E6D0
:10021000B0E0E0EAFBE302C005900D92AE31B10719
:10022000D9F725E0AEE1B1E001C01D92A33AB207D3
:10023000E1F70E941E150C94CE1D0C94000028EED0
:1002400033E03093B5042093B40429E0829FC001C9
:100250001124FC01EF5BFE4F808182FD06C080917E
:10026000B4049091B504892BB9F78091B4049091AE
:10027000B504892B31F080911F01811102C081E00A
:1002800008958FEF08950895AC9A8FE99FE0019744
:10029000F1F700C00000AC988FE99FE00197F1F7FB
:1002A00000C00000089588E480B986B7846486BFE2
:1002B0000898089528EE33E03093510520935005B7
:1002C00094EA96BF06B607FC08C02091500530910D
:1002D0005105232BB9F781E02DC091B1987F98305B
:1002E00011F082E027C08E7F83B984E886BF06B60E
:1002F00007FC07C08091500590915105892BB9F7F3
:10030000EACF81B1887F883121F4962FFB0124E860
:1003100002C083E00FC08E2F891B8417A8F481913F
:1003200083B926BF06B607FE08C081B1887F883230
:1003300091F384E08093220107C060915005709191
:100340005105672B79F7C7CF84E986BF8FE891E025
:100350000197F1F700C00000809122010895982FC5
:1003600028EE33E0309351052093500584EA86BF90
:1003700006B607FC08C02091500530915105232B8B
:10038000B9F781E034C081B1887F883011F082E014
:100390002EC0916093B984E886BF06B607FC07C0FB
:1003A0008091500590915105892BB9F7EACF91B111
:1003B000987F903431F420E050E041505109E4EC52
:1003C00008C083E014C033B1DB01A80FB91F3C9310
:1003D0002F5F822F90E0841795079CF4E6BF06B646
:1003E00007FE08C031B1387F303569F384E080936F
:1003F00022011CC0A0915005B0915105AB2B79F79B
:10040000C0CF24E826BF06B607FC07C020915005E0
:1004100030915105232BB9F7B4CF21B1287F28356E
:1004200029F723B1FB01E80FF91F208384ED86BF74
:100430008FE891E00197F1F700C000008091220160
:100440000895CF93DF93CDB7DEB72A970FB6F89410
:10045000DEBF0FBECDBFFC01198285812AE0622F6D
:100460000E94C419392F40E1849FC0011124832BBD
:100470008F778A8384810E94C419392F40E1849F39
:10048000C0011124832B8B8383810E94C419392FCF
:1004900040E1849FC0011124832B8C831D828281C3
:1004A0000E94C419392F40E1849FC0011124832B7D
:1004B0008E8381810E94C419392F40E1849FC0013D
:1004C0001124832B8F8380810E94C419292F30E14E
:1004D000839FC0011124822B888719868AEA8A8724
:1004E0004AE0BE016F5F7F4F80ED0E945A0191E0AC
:1004F000811101C090E0892F81952A960FB6F8945A
:10050000DEBF0FBECDBFDF91CF910895EF92FF9276
:100510000F931F93CF93DF93CDB7DEB728970FB616
:10052000F894DEBF0FBECDBF8C01CE0101967C01D9
:1005300087E0F70111928A95E9F7188641E0BE013C
:10054000685F7F4F80ED0E945A0147E0B70180ED60
:100550000E94AF01811144C08981982F92959F70AC
:100560008F70FAE09F9F800D1124F80185838A81A6
:10057000982F92959F708F70FAE09F9F800D1124A5
:10058000F80184838B81982F92959F708F70FAE089
:100590009F9F800D1124F80183838D81982F929560
:1005A0009F708F70FAE09F9F800D1124F801828365
:1005B0008E81982F92959F708F70FAE09F9F800D8B
:1005C0001124F80181838F81982F92959F708F70ED
:1005D000FAE09F9F800D1124F801808380E001C024
:1005E0008FEF28960FB6F894DEBF0FBECDBFDF9118
:1005F000CF911F910F91FF90EF900895CF93DF93CC
:1006000000D0CDB7DEB71A8288E0898341E0BE0111
:100610006F5F7F4F80ED0E945A0141E0BE016E5F27
:100620007F4F80ED0E94AF01811107C081E09A8168
:100630009A3A09F480E0819501C08FEF0F900F90F6
:10064000DF91CF910895CF92DF92EF92FF920F93B7
:100650001F93CF93C82F88B3C6FB662760F970E05D
:10066000660F771F9C2F991F9927991F892B682B3D
:10067000C5FB442740F950E0440F551F440F551F58
:10068000462BC4FB222720F930E053E0220F331F12
:100690005A95E1F7242B28BB0E94440188B3807F40
:1006A00088BBC3FB882780F9C0FBCC24C0F8D12CC1
:1006B00063E0CC0CDD1C6A95E1F7C82AC2FBEE248E
:1006C000E0F8F12CEE0CFF1CEC28C1FB002700F930
:1006D00010E0000F111F000F111F0E2908BB0E9410
:1006E000440185B3837E85BB88B3807F88BBCF916F
:1006F0001F910F91FF90EF90DF90CF9008952FEF13
:1007000089EF90E0215080409040E1F700C0000068
:1007100088B3807F88BB87B38F6087BB85B3837EB8
:1007200085BB84B38C6184BB88B38C6088BB0E941A
:1007300044018FE19EE40197F1F700C000000E94A0
:1007400044018FE19EE40197F1F700C000000E9490
:100750004401C3980E9444018FE39FE10197F1F7A0
:1007600000C0000088E20E94230388E00E94230367
:1007700081E00E94230386E00E94230388B3807FE8
:1007800088BB85B3837E85BB08958EE00C942303DC
:100790008FE00C9423038CE00C9423030C94CB0384
:1007A00081E00E94230310922101109220018FE129
:1007B0009EE40197F1F700C00000089580932101A5
:1007C00060932001613039F048F0623031F06330DD
:1007D00029F48C5A03C0805C01C08C5E80680C9444
:1007E0002303CF92DF92EF92FF920F931F93CF9349
:1007F000DF93C82F803C28F0D0E0FE01E050FF4F8F
:10080000C491AA9A88B3C6FB662760F970E0660FA8
:10081000771F9C2F991F9927991F892B682BC5FB40
:10082000442740F950E0440F551F440F551F462BF5
:10083000C4FB222720F930E053E0220F331F5A95E2
:10084000E1F7242B28BB0E94440188B3807F88BB3A
:1008500088B3C3FB992790F9892BC0FBCC24C0F83F
:10086000D12C63E0CC0CDD1C6A95E1F7C82AC2FBF1
:10087000EE24E0F8F12CEE0CFF1CEC28C1FB002765
:1008800000F910E0000F111F000F111F0E2908BB07
:100890000E94440185B3837E85BB88B3807F88BB7B
:1008A000809121018F5F843158F480932101DF9181
:1008B000CF911F910F91FF90EF90DF90CF9008950F
:1008C00010922101809120018F5F8093200181305F
:1008D00039F050F0823031F0833031F484ED05C0CE
:1008E00080EC03C084E901C080E8DF91CF911F91C3
:1008F0000F91FF90EF90DF90CF900C9423030F9314
:100900001F93CF93DF93D62F8C01C0E0CD1781F0DA
:10091000F80181918F01811107C080E20E94F103EB
:10092000CF5FCD17D0F304C00E94F103CF5FEECFAD
:10093000DF91CF911F910F910895CF92DF92EF92A7
:10094000FF920F931F93CF93DF93CDB7DEB76B97D3
:100950000FB6F894DEBF0FBECDBF7C0162E080E031
:100960000E94DE0367E771E0CE0101960E94251A1E
:1009700062ED70E0CE0101960E94351AF701808188
:100980008F7039F467EB70E0CE0101960E941A1A5D
:100990002DC080E090E0CC24C394D12CF7013081AD
:1009A000A601082E02C0440F551F0A94E2F7232F18
:1009B00030E024233523082E02C0359527950A946C
:1009C000E2F78C010F5F1F4F232B61F04AE0BE015D
:1009D0006B5E7F4FC8010E94401ABC01CE01019698
:1009E0000E94351AC80104301105C1F664E1CE0138
:1009F00001960E947F0462E089E00E94DE0363E7C3
:100A000071E0CE0101960E94251A62ED70E0CE01E0
:100A100001960E94351AF7018081807F39F467EBD7
:100A200070E0CE0101960E941A1A2BC004E010E07B
:100A3000CC24C394D12CF701808190E09601002E44
:100A400002C0220F331F0A94E2F782239323002E61
:100A500002C0959587950A94E2F7892B69F04AE0E0
:100A6000BE016B5E7F4FC80103970E94401ABC0114
:100A7000CE0101960E94351A0F5F1F4F08301105F5
:100A8000D1F664E1CE0101960E947F046B960FB609
:100A9000F894DEBF0FBECDBFDF91CF911F910F91B4
:100AA000FF90EF90DF90CF900895EF92FF920F9319
:100AB0001F93CF93DF93CDB7DEB76B970FB6F89444
:100AC000DEBF0FBECDBF7C018B0162E080E00E94E3
:100AD000DE0362E870E0CE0101960E94251A8FEFD6
:100AE000E816F80619F467EB70E00EC04AE0BE01A4
:100AF0006B5E7F4FC7010E94401ABC01CE01019678
:100B00000E94351A65E770E0CE0101960E941A1A1C
:100B100064E1CE0101960E947F0463E080E00E94C0
:100B2000DE0368E770E0CE0101960E94251A0F3FB0
:100B30008FEF180719F467EB70E00EC04AE0BE01B2
:100B40006B5E7F4FC8010E94401ABC01CE01019626
:100B50000E94351A65E770E0CE0101960E941A1ACC
:100B600064E1CE0101960E947F046B960FB6F89463
:100B7000DEBF0FBECDBFDF91CF911F910F91FF90D0
:100B8000EF9008950F931F93CF93DF93CDB7DEB708
:100B900064970FB6F894DEBF0FBECDBFFC01558140
:100BA000448133812281918180811F925F931F92C2
:100BB0004F931F923F931F922F931F929F931F92C9
:100BC0008F9384ED90E09F938F938E010F5F1F4F63
:100BD0001F930F930E94961A61E080E00E94DE034B
:100BE00064E1C8010E947F040FB6F894DEBF0FBE17
:100BF000CDBF64960FB6F894DEBF0FBECDBFDF91B8
:100C0000CF911F910F9108950F931F93CF93DF936F
:100C1000D62FC0E0CD17A9F0FC0124918C010F5F05
:100C20001F4F211107C080E20E94F103CF5FCD1753
:100C3000D0F307C0FC0184910E94F103CF5FC8018B
:100C4000E9CFDF91CF911F910F91089562E080E08D
:100C50000E94DE0364E18BEB90E00C940406CF93DA
:100C6000DF93EC010E94D003CE010E942C1A682F62
:100C7000CE010E9404068AE3DF91CF910C94F10328
:100C800087B3806B87BB88B3806B88BB8EE58DB9DB
:100C900008958FB988EE93E09093B7048093B604DB
:100CA00077990BC08091B6049091B704892BC1F756
:100CB00086E080931F018FEF08958FB10895C49847
:100CC00080EA0E94490680E00E944906C49A08957D
:100CD000CF93C82FC49883E00E9449068C2F0E94AE
:100CE000490680E00E944906C49ACF9108951F9357
:100CF000CF93DF93182FD62FC42FC49885E00E947E
:100D00004906812F0E9449068D2F0E9449068C2F8B
:100D10000E944906C49ADF91CF911F910895CF9305
:100D2000DF93D82FC62FC49882E00E9449068D2FEA
:100D30000E9449068C2F0E944906C49ADF91CF91E8
:100D4000089588EE93E09093B5048093B404809165
:100D5000320181110BC08091B4049091B504892BAC
:100D6000B1F782E080931F018FEF0895F89480918E
:100D700032018150809332017894809136019091B4
:100D800036019F5F909336019A3011F4109236012C
:100D900008959F92AF92BF92CF92DF92EF92FF920F
:100DA0000F931F93CF93DF93D82FC92FB62E0E9496
:100DB000A1069DE0899FF0011124E253FB4FC08002
:100DC000D180E280F3800D2F1C2F9DE0A92E2DE015
:100DD000922EB11003C08D2F9C2F41C040E0A89EE1
:100DE000F0011124E253FB4FBF016C5F7F4FDB0129
:100DF0008C91242F30E0481760F4CF01820F931FAD
:100E0000DC0115968C91200F311FD9018C934F5F17
:100E1000EECF200F311FD90111978C918823D9F281
:100E20008481080F111D0E94A10690911F0191114C
:100E300014C0989EF0011124E253FB4F4081518170
:100E400062817381BA94C416D506E606F70609F2E4
:100E500083E080931F0180E002C080E090E0DF919A
:100E6000CF911F910F91FF90EF90DF90CF90BF90A7
:100E7000AF909F900895AF92BF92CF92DF92EF9282
:100E8000FF920F931F93CF93DF936B017C01142F7D
:100E900059010E945F06DC2DD295DD0FD07E902F88
:100EA0009870D92BB701A601EBE176956795579518
:100EB0004795EA95D1F74370D42B86FF0BC084FF8A
:100EC0000BC082FD02C0C1E008C085E080931F0115
:100ED0008FEF58C0C3E001C0C2E0F894C49882E02C
:100EE0000E9449068C2F8295807F805E0E94490671
:100EF000802F83700E944906D701C60123E0B69572
:100F0000A795979587952A95D1F70E9449068D2F29
:100F10000E944906D701C60133E1B695A79597957A
:100F200087953A95D1F70E944906D701C6014BE053
:100F3000B695A795979587954A95D1F70E9449064A
:100F4000812F0E9449067501D0E0D11749F0D830B1
:100F500039F0F70181917F010E944906DF5FF5CFEB
:100F6000C49A02FF0DC0C4982FEF2C0F81E090E0CF
:100F700001C0880F2A95EAF780680E944906C49A42
:100F800078948C2FDF91CF911F910F91FF90EF906C
:100F9000DF90CF90BF90AF9008958F929F92AF92C5
:100FA000BF92EF92FF920F931F93CF93DF937C0139
:100FB000C62F49015A01162F169516951695D0E0A1
:100FC000D11791F00FEF970148E0C501B4010E94DD
:100FD0003B0780911F01882311F08FEF13C088E039
:100FE000E80EF11CDF5FECCF4C2F477031F00FEFB4
:100FF0009701C501B4010E943B0780911F01811137
:10100000ECCF81E0DF91CF911F910F91FF90EF9096
:10101000BF90AF909F908F9008952F923F924F92E4
:101020005F926F927F928F929F92AF92BF92CF9278
:10103000DF92EF92FF920F931F93CF93DF9300D035
:1010400000D01F92CDB7DEB71C018B015D834C83AE
:1010500079010E945F0680FD07C00E945F0681FD46
:1010600005C080E090E091C080E001C081E0C498BC
:1010700090E0880F991F880F991F80690E94490688
:1010800080E00E944906882E912CA12CB12C80E092
:101090000E9449068983482E512C612C712C80E0D6
:1010A0000E9449068A8380E00E9449068B8380E083
:1010B0000E944906EC81FD8180831D821C82CC80C8
:1010C000DD80C00ED11E80E00E944906F6018083BB
:1010D0008C819D8101969D838C83089781F7C49AAA
:1010E000998193FF0BC0EA814E2F50E060E070E0E1
:1010F000FB818F2F90E0A0E0B0E006C080E090E0A0
:10110000DC0140E050E0BA01F1011082118212824C
:10111000138229812370A22B762F652F542F442709
:10112000482B592B6A2B7B2BABE0440F551F661FB6
:10113000771FAA95D1F7B5E07694679457944794B2
:10114000BA95D1F783E0880C991CAA1CBB1C8A9520
:10115000D1F784289528A628B728482959296A292B
:101160007B294083518362837383F70110828DE270
:101170000E946806807CF7019081892B808340E083
:1011800060EC8DE20E947706C8010F900F900F90DF
:101190000F900F90DF91CF911F910F91FF90EF90E3
:1011A000DF90CF90BF90AF909F908F907F906F9087
:1011B0005F904F903F902F900895CF93DF931F92B1
:1011C000CDB7DEB719824091330160913301909120
:1011D00033018DE0849FA00111244E525B4F869F06
:1011E000B00111246D527B4F899FC00111249E01D3
:1011F0002F5F3F4F82539B4F0E940D088091330118
:101200008F5F809333018A3011F410923301809103
:1012100032018F5F809332018A3019F410923201CB
:1012200003C08981807C29F085E080931F018FEFC6
:1012300001C081E00F90DF91CF910895CF92DF92AE
:10124000EF92FF92CF93DF93D82F6A017B01DB01EE
:10125000CA012BE1B695A795979587952A95D1F761
:10126000C82FC370842F8295880F807EC82BC498A6
:1012700082E00E9449068D2F0E944906D701C601CF
:1012800033E0B695A795979587953A95D1F70E9443
:1012900049068C2F0E944906D701C60143E1B69545
:1012A000A795979587954A95D1F70E944906D7014A
:1012B000C6015BE0B695A795979587955A95D1F7A6
:1012C0000E944906C49ADF91CF91FF90EF90DF9082
:1012D000CF900895CF92DF92EF92FF92CF93DF935A
:1012E000D82F6A017B01C42FC295CC0FC07E287015
:1012F000C22B8BE176956795579547958A95D1F7DF
:101300004370C42BC49882E00E9449068D2F0E942E
:101310004906D701C60123E0B695A795979587950D
:101320002A95D1F70E9449068C2F0E944906D701C1
:10133000C60133E1B695A795979587953A95D1F76C
:101340000E944906D701C6014BE0B695A79597952F
:1013500087954A95D1F70E944906C49ADF91CF91AB
:10136000FF90EF90DF90CF9008958A98929A85B77A
:101370008C7F85BF8BB780648BBF08951FBC8AE0CC
:101380008EBD1DBC1CBC17BC16BC87E08BBD80EDA0
:101390008ABD19BC18BC89B7806189BF0895CF93F5
:1013A000C82F0E944006BC9AC49AC49880EC0E9440
:1013B0004906C49A40E860E889E20E94770665E041
:1013C0008AE20E948F0669E889E20E948F0662E045
:1013D00088E20E948F0643E063E08BE20E9477067A
:1013E0004C2F6FEF8FE00E9477068EE00E94680618
:1013F000807EC81302C0C1E001C0CFEF44E064E0CA
:1014000080E60E9477068C2FCF910895CF92DF92CD
:10141000EF92FF92CF93F89484B38F7184BB85B31E
:10142000806E85BB81B3877C81BB82B3886382BBBE
:10143000D49ADC98D59ADD9A8AB38F608ABB8BB335
:101440008F608BBB0E947F030E94CB030E94D0035E
:101450000E94530188EC94E00E9486020E94FE02E2
:1014600087FF03C082E08093230182E090E00E9426
:10147000611D6B017C0181E090E00E94591DC82F25
:1014800080E090E00E94591DA70196016C2F0E94F8
:101490000318579A0E94B5090E94BE0978942FEF4D
:1014A00089E698E1215080409040E1F700C00000BB
:1014B00080E00E94CF0918161CF083E0809323017E
:1014C000CF91FF90EF90DF90CF9008950F93CF933F
:1014D000DF93CDB7DEB727970FB6F894DEBF0FBE08
:1014E000CDBF81E090E039E022E0389FF001399FE4
:1014F000F00D1124E75CFE4F20870196833691059D
:10150000A1F781E089838091CA048A838091C9040C
:101510008B838091C8048C838091CB048D838091D0
:10152000CC048E838091CD048F8307EF9E012F5FC3
:101530003F4F47E060E070E0CB010E943B072796F9
:101540000FB6F894DEBF0FBECDBFDF91CF910F91E4
:101550000895EF92FF920F931F93CF93DF9300D0E4
:1015600000D0CDB7DEB78091250180618093250141
:1015700001E010E099E0F92E60E0C801875F9F4F1D
:101580000E946D1DF09EF001F19EF00D1124E75CAC
:10159000FE4F17820F5F1F4F0336110569F7E19960
:1015A000FECF0E94660A2FEF81EE94E0215080402A
:1015B0009040E1F700C000000E94D0036CE086E597
:1015C00091E00E94040618E08EE20E94F1032FEFE2
:1015D00089E698E1215080409040E1F700C000008A
:1015E000115091F71092250101E010E0F12C89E0F3
:1015F000E82EE09EF001E19EF00D1124E75CFE4F25
:101600006781601306C0C801875F9F4F0E946D1DF0
:10161000F3940F5F1F4F0336110559F762E080E026
:101620000E94DE0360E183E990E00E9404064AE044
:10163000BE016F5F7F4F8F2D90E00E94401A63E0E4
:101640000E947F040E94660A2FEF87EA91E62150EC
:1016500080409040E1F700C0000080E395E7909360
:10166000380180933701109223010F900F900F9053
:101670000F90DF91CF911F910F91FF90EF90089500
:101680000F931F93CF93DF9300D0CDB7DEB7162F04
:10169000813011F085E001C084E0898389E0189FE2
:1016A000F0011124E75CFE4F82E080874A83612FBE
:1016B00070E080E090E007EF9E012F5F3F4F42E037
:1016C0000E943B07812F0E941F010F900F90DF9116
:1016D000CF911F910F9108950F931F93CF93DF9395
:1016E00000D000D000D0CDB7DEB7182F86E09E0125
:1016F0002F5F3F4FF901982F11929A95E9F789834F
:101700006115710561F489E0189FF0011124E75C0F
:10171000FE4F82E08087672B79F441E00EC0F9012B
:1017200080E090E0DB01A80FB91F4C914193019636
:1017300086309105B9F7E7CF46E0812F90E0A0E031
:10174000B0E007EFBC01CD010E943B07112321F05F
:10175000812F0E941F0101C081E026960FB6F894E8
:10176000DEBF0FBECDBFDF91CF911F910F910895C6
:101770000F931F93CF93DF931F92CDB7DEB7182F30
:10178000698389E0189FF0011124E75CFE4F82E035
:101790008087612F70E080E090E007EF9E012F5F6F
:1017A0003F4F41E00E943B078981823021F0812F29
:1017B0000E941F0101C081E00F90DF91CF911F9126
:1017C0000F9108951F920F920FB60F9211248F92CE
:1017D0009F92AF92BF92CF92DF92EF92FF922F93A0
:1017E0003F934F935F936F937F938F939F93AF93A9
:1017F000BF93EF93FF93CF93DF93CDB7DEB72E97D1
:10180000DEBFCDBF9E01225F3F4FAE014B5F5F4FFA
:10181000BE016A5F7F4FCE0101960E940D08809144
:10182000250189809A80AB80BC8084FF11C0D501DE
:10183000C4018F779927AA27BB2729E0289FF001A9
:10184000299FF00D1124E75CFE4F882D8F77878349
:1018500075016401E894C7F8DD24EE24FF24C60175
:10186000875F9F4F0E94591D90E0A0E0B0E0C8162E
:10187000D906EA06FB0621F084E08093230140C0EC
:1018800089E08C9DF0018D9DF00D1124E75CFE4FE9
:1018900080858460808792FE03C080858062808717
:1018A00091FC0BC089E08C9DF0018D9DF00D112401
:1018B000E75CFE4F80858160808790FE0BC089E0E9
:1018C0008C9DF0018D9DF00D1124E75CFE4F80850D
:1018D0008D7F80874D81FE01369680E090E059E053
:1018E0005C9D90015D9D300D1124275C3E4F841757
:1018F00038F45191D901A80FB91F5C930196F7CF25
:101900002E960FB6F894DEBF0FBECDBFDF91CF91FC
:10191000FF91EF91BF91AF919F918F917F916F91C7
:101920005F914F913F912F91FF90EF90DF90CF907B
:10193000BF90AF909F908F900F900FBE0F901F9011
:1019400018951F93CF93DF93182FCCE6D0E0CE01EC
:101950000E94591D811739F0219680E0CF3CD807AD
:10196000B1F781E001C080E0DF91CF911F91089530
:1019700020B383B328732695807E282B2C3F19F43F
:1019800020931E0132C080911E01281771F0DC9A4D
:101990008AE090E0EFE9FFE03197F1F700C0000046
:1019A0000197C1F7DC9820931E0180E395E790939F
:1019B00038018093370182E090E061E070E030E030
:1019C000AB01082E02C0440F551F0A94E2F74223D0
:1019D0005323082E02C0559547950A94E2F7452BEC
:1019E00029F001968830910559F78FEF0895CF932C
:1019F0000E94B80CC82F8F3F41F48091370190911D
:101A00003801892BA9F78FEF05C00E94B80C8F3FD2
:101A1000E1F78C2FCF9108956F927F928F929F92D2
:101A2000AF92BF92CF92DF92EF92FF920F931F93EC
:101A3000CF93DF9300D000D000D0CDB7DEB7782EA3
:101A40000E94A90A8FE590E00E942F0601E010E0B5
:101A500066246A94F12C49E0E42EC801875F9F4F09
:101A60000E94591D80130CC0E09EF001E19EF00D14
:101A70001124E75CFE4F908592FF02C0F394682E1C
:101A80000F5F1F4F0336110541F7FF20A1F021E042
:101A9000F2121BC060E070E0862D0E946C0B87FD87
:101AA0000AC029E0629EF0011124E75CFE4F8081AC
:101AB000863009F4CFC00E9426063FEF87EA91E600
:101AC000315080409040E1F712C0711013C062E0C5
:101AD00080E00E94DE0364E184E590E00E94040659
:101AE0002FEF37EA81E6215030408040E1F700C017
:101AF0000000C2C091E0791639F022E07212BCC039
:101B0000612C00E010E014C0612C00E010E039E02E
:101B1000639EF0011124E75CFE4F8FEF8583848381
:101B200010C092E07912A8C08481058110E0182BC2
:101B300089E0689EF0011124E75CFE4F8FEF8383FC
:101B4000828320E3A22E25E7B22E8AE093EF892E2E
:101B500090E0992E9E012F5F3F4F6901E82EF12CF6
:101B60008FE590E00E942F061F930F939F928F9214
:101B7000DF92CF920E94961A62E080E00E94DE031C
:101B8000F60101900020E9F73197BF016C197D093A
:101B9000C6010E947F040F900F900F900F900F903E
:101BA0000F90772029F062E085E790E00E9404061C
:101BB0000E94F70C8530D9F030F48230F9F0833090
:101BC00009F45AC0CDCF863029F08F3F49F60C94E6
:101BD0000000C6CF81E090E0772011F080E090E037
:101BE000801791070CF0BCCF0E191F09B9CF0A1549
:101BF0001B050CF0B5CF0E0D1F1DB2CF862D90E04A
:101C000039E0639EF0011124E75CFE4F26E020835B
:101C100021E0721651F0721630F032E073122CC0CF
:101C20001483058304C0018302C01283038329E067
:101C3000289FB001299F700D1124675C7E4F862D6F
:101C40000E946C0B87FF03C0012B09F034CF0E9468
:101C5000A90A12C081E0781205C08281038110E0D8
:101C6000182B55CF781608F05CCF018110E033E6D1
:101C7000A32EB12C81E06ACF26960FB6F894DEBF72
:101C80000FBECDBFDF91CF911F910F91FF90EF90CD
:101C9000DF90CF90BF90AF909F908F907F906F908C
:101CA000089582E00C940C0D81E00C940C0D80E002
:101CB0000C940C0DCF92DF92EF92FF920F931F9333
:101CC000CF93DF93CDB7DEB7A6970FB6F894DEBFFC
:101CD0000FBECDBF86E0E0ECF0E0DE019196019012
:101CE0000D928A95E1F78CE0E6ECF0E0DE01559686
:101CF00001900D928A95E1F783E691E00E942F060C
:101D000088EC94E00E94860287FF03C082E0809303
:101D1000230110E056EFC52E50E0D52ECE010196DE
:101D20007C018091CD041F928F938091CC041F92EF
:101D30008F938091CB041F928F938091C8041F9240
:101D40008F938091C9041F928F938091CA041F9230
:101D50008F93DF92CF92FF92EF920E94961A63E0E8
:101D600080E00E94DE0362E1C7010E947F0463E01D
:101D7000812F880F810F0E94DE0384E80E94F10307
:101D800001E00FB6F894DEBF0FBECDBF123008F0F1
:101D900000E00E94F70C8530B1F030F4823009F495
:101DA00043C0843059F044C0863029F1873009F0AF
:101DB0003FC0153008F0B5CF1F5FB3CF112309F432
:101DC000B0CF1150AECF212F30E0F901EE0FFF1F41
:101DD000EE0DFF1D0488F589E02D8081A1E2B0E0C1
:101DE000AC0FBD1FA20FB31F9C91891710F48F5F1A
:101DF00019C0008396CF812F90E0FC01EE0FFF1FEA
:101E0000EE0DFF1D0488F589E02D2081021718F4DE
:101E10002150208386CFA1E2B0E0AC0FBD1FA80FF8
:101E2000B91F8C9180837DCF88EC94E00E942102C1
:101E3000A6960FB6F894DEBF0FBECDBFDF91CF914F
:101E40001F910F91FF90EF90DF90CF9008950F9327
:101E50001F93CF9387E191E00E942F0681E090E0ED
:101E60000E94591DC82F00E010E060E08AE00E9447
:101E7000DE03C03219F1C03361F0C1110DC009E0B9
:101E800011E0C0E009C0C03239F560E08AE00E948C
:101E9000DE0303E111E0C0E365E0C8010E9404062F
:101EA0000E94F70C853079F3863061F4CC2369F316
:101EB000C033D9F660E08AE00E94DE030EE011E054
:101EC000C0E2EACF823079F46C2F81E090E0CF91CC
:101ED0001F910F910C946D1DC03339F660E08AE0BC
:101EE0000E94DE03CCCFCF911F910F910895CF9226
:101EF000DF92EF92FF92CF93DF93CDB7DEB72797B4
:101F00000FB6F894DEBF0FBECDBF82E090E00E9416
:101F1000611D6B017C0180E291E00E942F0660E070
:101F20008AE00E94DE032AE0AE014F5F5F4FC701E7
:101F3000B6010E944B1A65E00E947F040E94F70CD4
:101F4000853059F08630A9F08230F9F4B701A60146
:101F500082E090E00E947A1D18C0C1148CE2D8067D
:101F600081E0E806F104D8F6CC0CDD1CEE1CFF1C69
:101F7000D6CF81E8C81685E2D806E104F10478F2EC
:101F8000F694E794D794C794CACF27960FB6F894DF
:101F9000DEBF0FBECDBFDF91CF91FF90EF90DF90FE
:101FA000CF900895CF9383E391E00E942F0680E0C5
:101FB00090E00E94591DC82F60E08AE00E94DE0375
:101FC00065E0C11103C08FE291E002C089E291E0B7
:101FD0000E9404060E94F70C853051F0863061F0B3
:101FE000823071F46C2F80E090E0CF910C946D1DE5
:101FF000C111E2CFC1E0E0CFC130F1F6C0E0DCCFEB
:10200000CF9108952F923F924F925F926F927F925D
:102010008F929F92AF92BF92CF92DF92EF92FF92F8
:102020000F931F93CF93DF93CDB7DEB7C856D10977
:102030000FB6F894DEBF0FBECDBF4C01CE010196A6
:102040007C0183E6F70111928A95E9F7A62E81E0DB
:1020500090E06C0102C0CC0CDD1C6A95E2F701E057
:1020600010E0412C89E0782EC801875F9F4F0E94C5
:10207000591D801318C0709EF001719EF00D11243F
:10208000E75CFE4F208530E02C213D210A2C02C068
:10209000359527950A94E2F7232B29F0F701E40DF3
:1020A000F11D808343940F5F1F4F03361105E1F646
:1020B000612C512C77247394042D10E06E01F4E60A
:1020C000CF0ED11C180121E0221A3108C4010E9450
:1020D0002F064AE0B601C8010E94401AF60101909D
:1020E0000020E9F76E2F6C19C6010E947F0463E09F
:1020F0008BE791E00E9404065701A50CB11C412C0E
:10210000F50121915F01A9962FAFA9972223C9F06C
:102110004394642D81E00E94DE0364E08BE791E04C
:102120000E9404064AE0B601A996EFADA9978E2F4A
:1021300090E00E94401A63E00E947F04F3E04F1297
:10214000DFCF672D80E00E94DE0384E80E94F10368
:102150000E94F70C8530F1F038F4823031F1833091
:1021600009F0B4CF80E025C0863031F08F3F09F010
:10217000ADCF0C940000AACF862D90E08215930578
:102180000CF0A4CF639482E0871510F073949ECF77
:1021900053949CCF662009F499CF6A9491E0791604
:1021A00011F07A9493CF5A9491CFF701E60DF11D77
:1021B0008081C859DF4F0FB6F894DEBF0FBECDBF88
:1021C000DF91CF911F910F91FF90EF90DF90CF9013
:1021D000BF90AF909F908F907F906F905F904F9047
:1021E0003F902F90089562E08FE891E00C940210E8
:1021F000CF92DF92FF920F931F93CF93DF93CDB7D0
:10220000DEB7A9970FB6F894DEBF0FBECDBFF82E8C
:10221000D62E89E891E00E942F0664E08BE791E0DA
:102220000E9404060F2D10E04AE0BE016D5D7F4F55
:10223000C8010E94401A63E00E947F0460E082E1CE
:102240000E94DE038D2D90E04AE0BE016D5D7F4F60
:1022500001960E94401A62E00E947F044D2D6F2D6E
:1022600081E00E94400B87FF03C00E9426061CC02D
:1022700089E0809FF001819FF00D1124E75CFE4F03
:102280008081843011F080E0C6C0DE01559680E088
:1022900090E0AF019A01280F391FF90120812D9399
:1022A000019687309105B1F74D2D6F2D82E00E9488
:1022B000400B87FF07C00E942606F12CCC24C39454
:1022C000D12C51C089E0809FF001819FF00D112435
:1022D000E75CFE4F80818530B1F6DE015C9680E0E0
:1022E00090E0AF019A01280F391FF90120812D9349
:1022F000019687309105B1F7E0CFCE0146960E9456
:10230000C205F1103DC0CE014D960E949D0463E0D0
:1023100080E00E94DE036EE671E0CE0101960E942D
:10232000251A62ED70E0CE0101960E94351A8E8D5D
:102330008F70B1F567EB70E0CE0101960E941A1A1A
:1023400064E1CE0101960E947F040E94F70C873061
:1023500008F04FC0853008F05EC0833009F45BC0E0
:10236000843009F453C0888D8F3F39F662E080E0F5
:102370000E94DE0367E08BE890E00E940406E5CF50
:10238000F1E0FF12E2CF69A17AA1762767277627CD
:102390008F8D98A19827892798270E945505D5CF1A
:1023A00080E090E02E8D30E0A601082E02C0440FA0
:1023B000551F0A94E2F724233523082E02C03595D1
:1023C00027950A94E2F78C010F5F1F4F232B61F0D2
:1023D0004AE0BE016D5D7F4FC8010E94401ABC01FA
:1023E000CE0101960E94351AC80104301105D1F6BC
:1023F000A7CF873031F08F3F09F0B5CF0C940000A4
:10240000B2CFF110B0CFFF24F394ADCFFF2009F489
:10241000AACFFA94A8CFA9960FB6F894DEBF0FBE44
:10242000CDBFDF91CF911F910F91FF90DF90CF90A3
:102430000895CF93DF9362E089E891E00E94021053
:10244000D82F882391F0C0E06C2F8D2F0E94F810B8
:10245000853019F0863029F008C0CC23A9F3C1508B
:10246000F3CFCF3188F7CF5FEFCFDF91CF910895D2
:10247000CF93C82F0E94F70C0E94D00364E183EA37
:1024800090E00E9404060E94F70C823029F462E07A
:102490008C2FCF910C94B80BCF910895EF92FF92AF
:1024A0001F93CF93DF9300D000D0CDB7DEB761E0AC
:1024B0008DE991E00E940210182F882309F44CC086
:1024C0008DE991E00E942F0664E08BE791E00E9485
:1024D0000406E12EF12C4AE0BE016F5F7F4FC70179
:1024E0000E94401A63E00E947F0463E0812F0E94F3
:1024F000B80B87FF03C00E94260627C029E02E9D47
:10250000C0012F9D900D11249C01275C3E4F790145
:10251000F9012081233001F5865C9E4F0E949D04C5
:1025200063E080E00E94DE0367E085EC90E00E94BB
:102530000406F70182814AE0BE016F5F7F4F90E0A1
:102540000E94401A62E00E947F040E94F70C8330D0
:1025500019F4812F0E9438120F900F900F900F9056
:10256000DF91CF911F91FF90EF9008958F929F92EE
:10257000AF92BF92CF92DF92EF92FF920F931F9391
:10258000CF93DF9300D000D01F92CDB7DEB78BEA98
:1025900091E00E942F06AA24A394B12C10E000E041
:1025A000EE24EA94FE2CCC24CA94DC2C39E0832E51
:1025B000C501875F9F4F0E94591D982E8A112FC019
:1025C0008A9CF0018B9CF00D1124E75CFE4F808506
:1025D00080FF25C0111101C0192D0F5F40E0692D4A
:1025E00082E00E94400B87FF03C00E94260617C0AE
:1025F0008A9CF0018B9CF00D1124E75CFE4F8081DA
:10260000853069F42381848190E0922B8C159D059F
:1026100030F42581E680F12CF22A192D6C012FEF80
:10262000A21AB20A83E6A816B10411F6BE016F5FC2
:102630007F4FFB0101900020E9F731975F01A61A57
:10264000B70A4AE0802F90E00E94401A62E06A0DCB
:102650000E947F0464E08BE791E00E94040611234E
:10266000E1F040E0612F81E00E94400B87FF03C052
:102670000E94260612C029E0129FC0011124FC010D
:10268000E75CFE4F2081243041F4865C9E4F0E941F
:10269000C205B701C6010E9455050E94F70C8330A0
:1026A00029F08F3F59F18230C1F706C0002331F184
:1026B00080E00E94381222C0002301F160E08BEA22
:1026C00091E00E940210082F8823C1F010E0612FD2
:1026D000802F0E94F810853049F018F4833071F093
:1026E000F6CF863039F08F3F49F0F1CF112379F3DF
:1026F0001150EDCF1F3158F71F5FE9CF0F900F90AA
:102700000F900F900F90DF91CF911F910F91FF903D
:10271000EF90DF90CF90BF90AF909F908F900895F3
:102720007F928F929F92AF92BF92CF92DF92EF9261
:10273000FF920F931F93CF93DF93CDB7DEB76497CC
:102740000FB6F894DEBF0FBECDBF5C01E12CF501E2
:1027500024E0E29EE00DF11D112484819581892BF6
:1027600011F0E394F4CF01E0F12C11E0F501808148
:1027700091810E942F06C501F4E0FF9E800D911DFE
:1027800011249C012C5F3F4F6901912CF60120819F
:1027900031812115310529F1DE01119680E090E0AB
:1027A0007A2E8B2EF901E80FF91F4491403C18F066
:1027B000E491E05E01C0E491ED93019683319105CF
:1027C00089F79394692D81E00E94DE0363E1872DF0
:1027D000982D0E947F04F4E0CF0ED11C23E09212CA
:1027E000D5CF612F80E00E94DE0384E80E94F103D0
:1027F0000E94F70C853061F1C8F4823099F1833082
:1028000009F0B4CF64960FB6F894DEBF0FBECDBF0B
:10281000DF91CF911F910F91FF90EF90DF90CF90BC
:10282000BF90AF909F908F907F900895863031F049
:102830008F3F09F09BCF0C94000098CF0E1508F045
:1028400095CF0F5F133010F41F5F90CFF3948ECFAE
:10285000023008F48BCF0150113011F0115086CFA7
:10286000FA9484CFF50134E0039FE00DF11D1124AB
:102870000280F381E02D099579CFCF92DF92EF921C
:10288000FF92CF938CE790E00E94901382E090E05B
:102890000E94611D6B017C0181E090E00E94591D46
:1028A000C82F80E090E00E94591DA70196016C2F6F
:1028B000CF91FF90EF90DF90CF900C9403188CEAAB
:1028C00090E00C9490136F927F928F929F92AF92B0
:1028D000BF92CF92DF92EF92FF920F931F93CF930D
:1028E000DF9300D000D01F92CDB7DEB733E0732E58
:1028F000EE24E394F12C00E010E055E1C52E51E008
:10290000D52ECE0101965C016AE0862E912C7AE0EC
:10291000672E8EE690E00E942F0662E080E00E9423
:10292000DE031F930F93DF92CF92BF92AF920E946C
:10293000961A64E0C5010E947F0462E0872D0E9420
:10294000DE030E94C8030E94F70C0F900F900F90B7
:102950000F900F900F908530C1F040F4833009F450
:1029600057C0E8F4823009F445C0D3CF873069F10D
:1029700028F08F3F71F60C940000CBCF0E191F0981
:1029800017FFC7CF0FE017E2C4CF0E0D1F1D0F308A
:1029900097E219070CF4BDCF00E010E0BACF88EE43
:1029A000E81683E0F8063CF4C701689E7001699E52
:1029B000F00C112403C0EE24E394F12C711003C039
:1029C00023E0722EA6CF7A94A4CF92E0E916F10408
:1029D00034F0C701B4010E94D0197B0104C088EE15
:1029E000E82E83E0F82E83E0781202C0712C91CF9C
:1029F00073948FCF0E94CB0387E090E00E94671D05
:102A00000817190739F480E990E00E94901302C07A
:102A10000E94CB030F900F900F900F900F90DF91BB
:102A2000CF911F910F91FF90EF90DF90CF90BF90CB
:102A3000AF909F908F907F906F900895CF93DF938A
:102A4000CDB7DEB764970FB6F894DEBF0FBECDBF2B
:102A50000E94060A33243394E7EF6E2EE0E07E2EC8
:102A6000CE0101966C01FAE1AF2EF1E0BF2EA2E09B
:102A70004A2EB9E05B2E18E8812E13E1912E809149
:102A80002501982F9270282F217080FD06C091118A
:102A900004C072EBE72E71E0F72E30912401311162
:102AA00003C03092240108C010922401222321F097
:102AB0006BEAE62E61E0F62E992341F09091240115
:102AC000913021F45DE9E52E51E0F52E83FF04C03D
:102AD0004CECE42E40E0F42E60E080E00E94DE0347
:102AE00064E1C7010E94040688EC94E00E9486021B
:102AF0008091CD041F928F938091CC041F928F936D
:102B00008091CB041F928F938091C8041F928F9362
:102B10008091C9041F928F938091CA041F928F9352
:102B20007F926F92DF92CF920E94961A8091C80492
:102B30009091C9049827892798279093C30480937C
:102B4000C2048091CA049091CB04982789279827C2
:102B50009093C5048093C4048091CC049091CD04DB
:102B60009827892798279093C7048093C60463E029
:102B700080E00E94DE030FB6F894DEBF0FBECDBF2B
:102B8000809123018823A1F08091250188608093A2
:102B9000250164E185EC90E00E94040663E087E093
:102BA0000E94DE0380912301805D0E94F10304C036
:102BB00064E1C6010E947F04809125011F928F93DA
:102BC000BF92AF92DF92CF920E94961A61E080E0AE
:102BD0000E94DE0364E1C6010E947F040F900F9003
:102BE0000F900F900F900F908091220181114092D1
:102BF000230180912601882319F085E08093230129
:102C000080911F01882319F083E0809323011092A3
:102C100025011092C1041092C0041092BF041092BA
:102C2000BE041092BD041092BC0401E010E0C80183
:102C3000875F9F4F0E94591D801353C02091BC0491
:102C40003091BD042F5F3F4F3093BD042093BC04EF
:102C5000509EF001519EF00D1124E75CFE4F9085CF
:102C600095FF05C090912501906290932501509E9B
:102C7000F001519EF00D1124E75CFE4F908590FF0E
:102C800018C02091C0043091C1042F5F3F4F309392
:102C9000C1042093C00420902501922D916090934F
:102CA00025010E94A10C882321F0822D816480934C
:102CB0002501509EF001519EF00D1124E75CFE4F5E
:102CC000808581FF0EC08091BE049091BF04019663
:102CD0009093BF048093BE0480912501826080930D
:102CE00025018091250185FF02C0DA9A01C0DA989A
:102CF0008091250180FF02C0DB9A01C0DB988091A2
:102D0000250186FF02C0D99A01C0D998809125017A
:102D100081FD04C080912301882311F0D89801C05F
:102D2000D89A0F5F1F4F0336110509F080CF8091AD
:102D3000230190E0982F882720912501822B9093E2
:102D4000B9048093B80489B38F7090E09093BB046A
:102D50008093BA048091340190913501892B69F4F4
:102D60000E94660A909235018092340160E083E10E
:102D70000E94DE038AE20E94F10308EE13E08091D4
:102D80002C01811119C08FE99FE00197F1F700C074
:102D900000000E94B80C823061F40E94B80C8F3F92
:102DA000E1F780E690E00E9490130E94D003109219
:102DB00025010150110919F780912C01882309F48C
:102DC0005ECE0E94F718181624F085E08093230148
:102DD00056CEDD9880912301853011F410922301A5
:102DE00010917A0586E090E00E94591D181341C0A9
:102DF000E0917C05F0917D05FE27EF27FE2780916D
:102E00007E0590917F05982789279827AF01480F65
:102E1000591F20917B054930510538F020682093D7
:102E20007B0540927C0583E026C02330E9F4EE0F59
:102E3000FF1FE854FB4FAAE7B5E020E030E0129610
:102E40008217930761F040815181329611965C930D
:102E5000119712964C9312972F5F3F4FF0CF880F28
:102E600080937C058D5F07C0206820937B0530929E
:102E70007C05DD9A04CE0E945418FBCF1F920F925E
:102E80000FB60F9211248F939F93AF93BF938091AE
:102E9000B4049091B504892B49F08091B4049091C9
:102EA000B50401979093B5048093B4048091B6045F
:102EB0009091B704892B49F08091B6049091B704A2
:102EC00001979093B7048093B60480913701909155
:102ED0003801892B49F08091370190913801019791
:102EE000909338018093370180913401909135019E
:102EF000892B49F08091340190913501019790938D
:102F000035018093340180912E0190912F01A09181
:102F10003001B0913101892B8A2B8B2B99F0809154
:102F20002E0190912F01A0913001B09131010197B4
:102F3000A109B10980932E0190932F01A093300134
:102F4000B0933101BF91AF919F918F910F900FBEC0
:102F50000F901F9018951F920F920FB60F92112489
:102F60008F939F93EF93FF938BB19CB18C7111F072
:102F700083E019C0E0912D01F0E0EE5AFA4F908302
:102F800080912D018F5F80932D01883211F4109272
:102F90002D0180912C018F5F80932C01883229F4C0
:102FA00010922C0182E080932601FF91EF919F9176
:102FB0008F910F900FBE0F901F9018955D9BFECFC5
:102FC0008CB95E9BFECF5E9A0895282F8FEF9FEFFE
:102FD000EAE7F5E02150B0F0BF016F5F7F4F30812D
:102FE000832738E0AC015695479580FF06C0CA019B
:102FF000E1E08E27E0EA9E2701C0CA01315091F737
:10300000FB01E8CF08950F931F93CF93DF93182F01
:10301000C62F662311F001E001C002E0113011F06B
:10302000D8E001C0D7E084E0220F331F441F551FB2
:103030008A95D1F760E074E284EF90E00E94E41991
:10304000215031092F773327D5508E9A96981093B7
:103050002B01113029F082E090E0A0E0B0E004C044
:1030600088EE93E0A0E0B0E08093270190932801E0
:10307000A0932901B0932A01919A899A909A8898ED
:103080001BB888E98AB981E0023009F080E0C068A5
:103090008C2BCD2FCC0FC82BC0BD10BC29B9DF9114
:1030A000CF911F910F910895EF92FF920F931F936D
:1030B000CF93DF93C82F80912B01882341F081307B
:1030C00009F08EC09C2F80E0EAE7F5E035C08C2F38
:1030D0000E94E517F82ED92F969A0AE715E0CC231F
:1030E00039F0F80181918F010E94DE17C150F7CFAE
:1030F0008F2D0E94DE178D2F0E94DE1796988091EB
:10310000270190912801A0912901B0912A01809373
:103110002E0190932F01A0933001B0933101809143
:103120002E0190912F01A0913001B0913101892B96
:103130008A2B8B2BA1F754C0915020F02081820F55
:103140003196FACFD82FD195969AFFEF29EF80E0EC
:10315000F15020408040E1F700C000008AE30E9467
:10316000DE170AE715E0CC23F1F07801F801808141
:1031700082958F7090E3980F9A3310F0895C01C0AC
:10318000892F0E94DE170F5F1F4FF70180818F701C
:1031900090E3980F9A3310F0895C01C0892F0E9448
:1031A000DE17C150E0CF9D2F92959F7080E3890F6D
:1031B0008A3310F087E3890F0E94DE178D2F8F70FE
:1031C000D0E3D80FDA3310F0895C01C08D2F0E9454
:1031D000DE178DE00E94DE178AE00E94DE179698C7
:1031E000DF91CF911F910F91FF90EF9008958F92F3
:1031F0009F92AF92BF92CF92DF92EF92FF920F9386
:103200001F93CF93C0902701D0902801E09029010F
:10321000F0902A0160912B019091A20520E080E0BE
:10322000C0922E01D0922F01E0923001F092310134
:1032300030912C0131110DC080902E0190902F0102
:10324000A0903001B090310189288A288B2881F71D
:1032500034C0E92FF0E09F5F61110AC0EE5AFA4FC7
:103260003081E82FF0E0E658FA4F30838F5F1AC0C4
:10327000EE5AFA4F30813D3009F43CC03A3391F0B8
:10328000482F50E0211158C0208130ED320F3A32E2
:1032900008F44CC02755FA01E658FA4F2295207FD2
:1032A000208321E0983209F490E0F89430912C01C9
:1032B000315030932C017894B3CF611153C0909367
:1032C000A205282F30E026583A4FF90131970081A6
:1032D00010E0102F002731979081092BCEEFC80FF7
:1032E0008C2F0E94E5170817190711F48C2F40C086
:1032F00085E03BC0983219F09093A20502C010926D
:10330000A205F89490912C01915090932C017894FF
:10331000282F90E0EAE7F5E0215020F03081930F6C
:103320003196FACF9111E4CF815022C03A3010F09B
:103330002753B1CF232FAFCF208130ED320F3A3258
:1033400010F0275505C03A3010F0275301C0232F45
:10335000FA01E658FA4F2F703081232B20838F5FBC
:1033600020E0A0CF9093A20581E0809326018FEF0B
:10337000CF911F910F91FF90EF90DF90CF90BF9072
:10338000AF909F908F900895991B79E004C0991F8A
:10339000961708F0961B881F7A95C9F780950895AF
:1033A00097FB072E16F4009407D077FD09D00E94F2
:1033B000061A07FC05D03EF4909581959F4F08951D
:1033C000709561957F4F0895A1E21A2EAA1BBB1B31
:1033D000FD010DC0AA1FBB1FEE1FFF1FA217B307E1
:1033E000E407F50720F0A21BB30BE40BF50B661FF7
:1033F000771F881F991F1A9469F7609570958095BB
:1034000090959B01AC01BD01CF010895AA1BBB1B88
:1034100051E107C0AA1FBB1FA617B70710F0A61BD4
:10342000B70B881F991F5A95A9F780959095BC01F5
:10343000CD010895FB01DC010D900020E9F7119703
:1034400005900D920020E1F70895FB01DC01059045
:103450000D920020E1F70895FC0105900020E9F7A6
:10346000809590958E0F9F1F0895FB01DC010D90B4
:103470000020E9F7119701900D920020E1F70895DF
:10348000BB274A3031F4992322F4BDE2909581950F
:103490009F4F0C947D1ABB272A3051F4992342F494
:1034A000BDE290958095709561957F4F8F4F9F4FAE
:1034B0000C945B1ABB27FA01A62F621771058105D0
:1034C0009105330B30FB66F0AA27660F771F881F24
:1034D000991FAA1FA21710F0A21B63953850A9F7D5
:1034E000A05DAA3308F0A95DA19336F7B111B1939D
:1034F0001082CA010C94AF1CBB27FB015527AA27D9
:10350000880F991FAA1FA41710F0A41B8395505170
:10351000B9F7A05DAA3308F0A95DA193009779F7E8
:10352000B111B1931192CB010C94AF1CAEE0B0E09D
:10353000ECE9FAE10C94A51D0D891E8986E08C83C7
:103540001A8309838FEF9FE79E838D83AE01475EC9
:103550005F4F6F89788DCE0101960E94B81AEF8176
:10356000F885E00FF11F10822E96E4E00C94C11D47
:10357000ABE0B0E0EEEBFAE10C94971D6C017B013F
:103580008A01FC0117821682838181FFCCC1CE01A2
:1035900001963C01F6019381F70193FD859193FF1C
:1035A00081917F01882309F4BAC1853239F493FDF2
:1035B000859193FF81917F01853229F4B60190E0D6
:1035C0000E94BF1CE7CF912C212C312CFFE1F31579
:1035D000D8F08B3279F038F4803279F08332A1F46C
:1035E000232D20611DC08D3261F0803369F4232DBD
:1035F000216016C0832D8260382EE32DE4603E2EBC
:103600002AC0F32DF8601DC037FC2DC020ED280F17
:103610002A3040F08E32B9F436FC81C1232D20646B
:10362000322E19C036FE06C08AE0989E200D112465
:10363000922E11C0EAE02E9E200D1124222EF32D91
:10364000F0623F2E08C08C3621F4832D8068382E1E
:1036500002C0883641F4F70193FD859193FF819173
:103660007F018111B3CF982F9F7D9554933028F41B
:103670000C5F1F4F9FE399830DC0833631F0833772
:1036800071F0833509F059C021C0F8018081898328
:103690000E5F1F4F88248394912C530113C028017F
:1036A000F2E04F0E511CF801A080B18036FE03C03D
:1036B000692D70E002C06FEF7FEFC5010E94A41C6E
:1036C0004C018201F32DFF773F2E16C0280122E026
:1036D000420E511CF801A080B18036FE03C0692D56
:1036E00070E002C06FEF7FEFC5010E94991C4C0192
:1036F000F32DF0683F2E820133FC1BC0822D90E039
:1037000088169906B0F4B60180E290E00E94BF1CD2
:103710002A94F4CFF50137FC859137FE81915F0142
:10372000B60190E00E94BF1C21102A9421E0821A69
:1037300091088114910471F7E8C0843611F089363C
:1037400041F5F80137FE07C0608171818281938164
:103750000C5F1F4F08C060817181072E000C880B21
:10376000990B0E5F1F4FF32DFF763F2E97FF09C079
:1037700090958095709561957F4F8F4F9F4FF06822
:103780003F2E2AE030E0A3010E94FB1C882E861801
:1037900045C0853731F4232D2F7EB22E2AE030E04C
:1037A00025C0932D997FB92E8F36C1F018F4883536
:1037B00079F0B5C0803719F0883721F0B0C0E92F13
:1037C000E061BE2EB4FE0DC0FB2DF460BF2E09C01B
:1037D00034FE0AC0292F2660B22E06C028E030E051
:1037E00005C020E130E002C020E132E0F801B7FE80
:1037F00007C060817181828193810C5F1F4F06C079
:103800006081718180E090E00E5F1F4FA3010E94F4
:10381000FB1C882E8618FB2DFF773F2E36FE0DC031
:10382000232D2E7FA22E891458F434FE0BC032FCB7
:1038300009C0832D8E7EA82E05C0B82CA32C03C0F2
:10384000B82C01C0B92CA4FE0FC0FE01E80DF11D7B
:103850008081803321F49A2D997EA92E09C0A2FE81
:1038600006C0B394B39404C08A2D867809F0B3944B
:10387000A3FC11C0A0FE06C0B21488F4280C922C40
:103880009B180EC0B21460F4B60180E290E00E9472
:10389000BF1CB394F7CFB21418F42B1802C0982CA5
:1038A000212CA4FE10C0B60180E390E00E94BF1C52
:1038B000A2FE17C0A1FC03C088E790E002C088E523
:1038C00090E0B6010CC08A2D867859F0A1FE02C0A6
:1038D0008BE201C080E2A7FC8DE2B60190E00E947D
:1038E000BF1C891438F4B60180E390E00E94BF1C2D
:1038F0009A94F7CF8A94F301E80DF11D8081B60107
:1039000090E00E94BF1C8110F5CF222009F442CE26
:10391000B60180E290E00E94BF1C2A94F6CFF60127
:103920008681978102C08FEF9FEF2B96E2E10C9486
:10393000B31DFC010590615070400110D8F78095CF
:1039400090958E0F9F1F0895FC016150704001906B
:103950000110D8F7809590958E0F9F1F0895DC0178
:10396000FC01672F71917723E1F7329704C07C91B6
:103970006D9370836291AE17BF07C8F308950F93DC
:103980001F93CF93DF93FB01238121FD03C08FEFB2
:103990009FEF2CC022FF16C04681578124813581BC
:1039A0004217530744F4A081B1819D012F5F3F4F1F
:1039B000318320838C93268137812F5F3F4F37835C
:1039C000268314C08B01EC01FB010084F185E02DFE
:1039D0000995892BE1F6D80116968D919C91179740
:1039E000019617969C938E931697CE01DF91CF91F7
:1039F0001F910F910895FA01AA27283051F1203123
:103A000081F1E8946F936E7F6E5F7F4F8F4F9F4F72
:103A1000AF4FB1E03ED0B4E03CD0670F781F891FB4
:103A20009A1FA11D680F791F8A1F911DA11D6A0F82
:103A3000711D811D911DA11D20D009F468943F9135
:103A40002AE0269F11243019305D3193DEF6CF0134
:103A50000895462F4770405D4193B3E00FD0C9F7FA
:103A6000F6CF462F4F70405D4A3318F0495D31FD67
:103A70004052419302D0A9F7EACFB4E0A6959795BA
:103A8000879577956795BA95C9F700976105710590
:103A900008959B01AC010A2E0694579547953795DA
:103AA0002795BA95C9F7620F731F841F951FA01D34
:103AB0000895E199FECF9FBB8EBBE09A99278DB305
:103AC0000895A6E1B0E044E050E00C94891DA8E11F
:103AD000B0E042E050E00C94891D262FE199FECF22
:103AE0009FBB8EBB2DBB0FB6F894E29AE19A0FBE36
:103AF00001960895242F0E946E1D252F0E946E1D91
:103B00000C94821D0E946D1D272F0C946E1DDC01EC
:103B1000CB01FC01E199FECF06C0FFBBEEBBE09AF2
:103B200031960DB20D9241505040B8F708952F9242
:103B30003F924F925F926F927F928F929F92AF923D
:103B4000BF92CF92DF92EF92FF920F931F93CF938A
:103B5000DF93CDB7DEB7CA1BDB0B0FB6F894DEBF21
:103B60000FBECDBF09942A88398848885F846E8447
:103B70007D848C849B84AA84B984C884DF80EE8091
:103B8000FD800C811B81AA81B981CE0FD11D0FB69A
:103B9000F894DEBF0FBECDBFED010895F894FFCFBE
:103BA000980100008F01F310AB01B6129D014E1277
:103BB000890119127F01631400000000390100001F
:103BC0003301D20F2001770F1701270F00000000EB
:103BD0007F01000063015A0E5601A90A45015F14D6
:103BE00039013D14BA014301000000004501000005
:103BF000F000570EE600540EDB00510E00000000EE
:103C00001F0C63173B3BCA04C904C804CB04CC0493
:103C1000CD043A00253032752E253032752E2530F0
:103C200032752020253032753A253032753A2530EC
:103C300032750025640020253032752E253032750E
:103C40002E2530327520253032753A253032753ABE
:0E3C50002530327500253034640025750000E3
:00000001FF
