:100000000C942F010C94AF0C0C944C010C944C01EB
:100010000C944C010C944C010C944C010C941C1944
:100020000C944C010C944C010C944C010C944C011C
:100030000C944C010C9489190C944C010C944C01B7
:100040000C944C010C944C010C944C010C944C01FC
:100050000C944C01EDE5E4EEF1F2F3EFEDEE00CDA2
:10006000CEC2CEC520C7CDC0D7C5CDC8C500CFC074
:10007000D0CECBDC00ECF100EEF2EAEB2ECCD2C716
:100080003A00E2EAEB2ECCD2C73A003CEFF3F1F2B1
:10009000EE3E00EEE1EDE0F0F3E6E5EDEE20C1C46A
:1000A000C73A00D1E1F0EEF1E8F2FC3F20E4E02DA8
:1000B00022C2C2CEC42200EDE5F200EDE5F220F14D
:1000C000E2FFE7E800EEF8E8E1EAE000CDC5D22083
:1000D000C3CED2CEC2CDCED1D2C800C2D0C5CCDF25
:1000E00020D3D0CEC200C2D0C5CCDF20CCD2C70036
:1000F000C0C4D0C5D100CFCE20CEC4CDCECCD3008D
:10010000C4CBDF20C2D1C5D5004E4F4E4500455669
:10011000454E004F444400D7C5D2CDCED1D2DC00ED
:10012000D1CACED0CED1D2DC00415343494900528E
:10013000545500D0C5C6C8CC00D1C2DFC7DC2052A0
:100140005334383500CFD0CEC3D0C0CCCCC8D0CEFD
:10015000C2C0CDC8C500D1CAC0CDC8D0CEC2C0CDE6
:10016000C8C500C4C0D2C02FC2D0C5CCDF00D0C526
:10017000CBC500C4C2D500C2CEC400C1C4C700CD27
:10018000C0D1D2D0CEC9CAC000C0D0D5C8C200CD5F
:10019000C020D1C2DFC7C800CCC5CDDE00CDC5C8E8
:1001A000D1CFD0C0C2CDCED1D2DC00C0C2C0D0C869
:1001B000DF00D0C0C1CED2C03100C4C2D53300C42C
:1001C000C2D53200C4C2D53100C2CEC43400C2CEC2
:1001D000C43300C2CEC43200C2CEC43100CBCEC3C1
:1001E000C8CAC020D0C0C1CED2DB00CED8C8C1CAD8
:1001F000C020E0E4F0E5F120E7E0EDFFF200D1D22D
:10020000C0D0CEC520C7CDC0D7C5CDC8C500CDCEC6
:10021000CCC5D020C1C4C700CDCEC2CEC50041A040
:1002200042A1E045A3A4A5A64BA74D484FA8504323
:1002300054A9AA58E1ABACE2ADAE62AFB0B161B2C5
:10024000B3B4E365B6B7B8B9BABBBCBD6FBE706333
:10025000BF79E478E5C0C1E6C2C3C4C5C6C71124EE
:100260001FBECFE5D8E0DEBFCDBF11E0A0E6B0E015
:10027000ECE5FFE302C005900D92A634B107D9F773
:1002800025E0A6E4B1E001C01D92AD3CB207E1F764
:100290000E94FC160C94AC1F0C94000028EE33E076
:1002A0003093DD042093DC0429E0829FC0011124F7
:1002B000FC01E759FE4F808182FD06C08091DC047D
:1002C0009091DD04892BB9F78091DC049091DD04D5
:1002D000892B31F080914701811102C081E008959E
:1002E0008FEF0895AC9A8FE99FE00197F1F700C076
:1002F0000000AC988FE99FE00197F1F700C0000083
:10030000089588E480B986B7846486BF0898089504
:1003100028EE33E030937B0520937A0594EA96BF6C
:1003200006B607FC08C020917A0530917B05232B87
:10033000B9F781E02DC091B1987F983011F082E03B
:1003400027C08E7F83B984E886BF06B607FC07C046
:1003500080917A0590917B05892BB9F7EACF81B11D
:10036000887F883121F4962FFB0124E802C083E0C6
:100370000FC08E2F891B8417A8F4819183B926BFE3
:1003800006B607FE08C081B1887F883291F384E009
:1003900080934A0107C060917A0570917B05672BB5
:1003A00079F7C7CF84E986BF8FE891E00197F1F72D
:1003B00000C0000080914A010895982F28EE33E094
:1003C00030937B0520937A0584EA86BF06B607FC46
:1003D00008C020917A0530917B05232BB9F781E085
:1003E00034C081B1887F883011F082E02EC09160E6
:1003F00093B984E886BF06B607FC07C080917A05EA
:1004000090917B05892BB9F7EACF91B1987F903411
:1004100031F420E050E041505109E4EC08C083E0A1
:1004200014C033B1DB01A80FB91F3C932F5F822F9B
:1004300090E0841795079CF4E6BF06B607FE08C057
:1004400031B1387F303569F384E080934A011CC0B4
:10045000A0917A05B0917B05AB2B79F7C0CF24E84A
:1004600026BF06B607FC07C020917A0530917B05B0
:10047000232BB9F7B4CF21B1287F283529F723B131
:10048000FB01E80FF91F208384ED86BF8FE891E020
:100490000197F1F700C0000080914A010895CF93C1
:1004A000DF93CDB7DEB72A970FB6F894DEBF0FBE45
:1004B000CDBFFC01198285812AE0622F0E94A21B18
:1004C000392F40E1849FC0011124832B8F778A83C9
:1004D00084810E94A21B392F40E1849FC001112416
:1004E000832B8B8383810E94A21B392F40E1849F41
:1004F000C0011124832B8C831D8282810E94A21B48
:10050000392F40E1849FC0011124832B8E83818188
:100510000E94A21B392F40E1849FC0011124832B2C
:100520008F8380810E94A21B292F30E1839FC0010D
:100530001124822B888719868AEA8A874AE0BE01BD
:100540006F5F7F4F80ED0E94880191E0811101C0B3
:1005500090E0892F81952A960FB6F894DEBF0FBEE2
:10056000CDBFDF91CF910895EF92FF920F931F932C
:10057000CF93DF93CDB7DEB728970FB6F894DEBFE1
:100580000FBECDBF8C01CE0101967C0187E0F70143
:1005900011928A95E9F7188641E0BE01685F7F4FA6
:1005A00080ED0E94880147E0B70180ED0E94DD01E7
:1005B000811144C08981982F92959F708F70FAE0C5
:1005C0009F9F800D1124F80185838A81982F929531
:1005D0009F708F70FAE09F9F800D1124F801848333
:1005E0008B81982F92959F708F70FAE09F9F800D5E
:1005F0001124F80183838D81982F92959F708F70BD
:10060000FAE09F9F800D1124F80182838E81982F3C
:1006100092959F708F70FAE09F9F800D1124F801D2
:1006200081838F81982F92959F708F70FAE09F9FA2
:10063000800D1124F801808380E001C08FEF28969F
:100640000FB6F894DEBF0FBECDBFDF91CF911F91E3
:100650000F91FF90EF900895CF93DF9300D0CDB727
:10066000DEB71A8288E0898341E0BE016F5F7F4F69
:1006700080ED0E94880141E0BE016E5F7F4F80EDFA
:100680000E94DD01811107C081E09A819A3A09F444
:1006900080E0819501C08FEF0F900F90DF91CF9197
:1006A0000895CF92DF92EF92FF920F931F93CF9313
:1006B000C82F88B3C6FB662760F970E0660F771F06
:1006C0009C2F991F9927991F892B682BC5FB4427BD
:1006D00040F950E0440F551F440F551F462BC4FBF3
:1006E000222720F930E053E0220F331F5A95E1F71B
:1006F000242B28BB0E94720188B3807F88BBC3FB78
:10070000882780F9C0FBCC24C0F8D12C63E0CC0C46
:10071000DD1C6A95E1F7C82AC2FBEE24E0F8F12C53
:10072000EE0CFF1CEC28C1FB002700F910E0000FC5
:10073000111F000F111F0E2908BB0E94720185B303
:10074000837E85BB88B3807F88BBCF911F910F913B
:10075000FF90EF90DF90CF9008952FEF89EF90E01A
:10076000215080409040E1F700C0000088B3807FB6
:1007700088BB87B38F6087BB85B3837E85BB84B31B
:100780008C6184BB88B38C6088BB0E9472018FE14E
:100790009EE40197F1F700C000000E9472018FE112
:1007A0009EE40197F1F700C000000E947201C39817
:1007B0000E9472018FE39FE10197F1F700C00000F2
:1007C00088E20E94510388E00E94510381E00E9468
:1007D000510386E00E94510388B3807F88BB85B3B4
:1007E000837E85BB08958EE00C9451038FE00C94BA
:1007F00051038CE00C9451030C94F90381E00E94A6
:10080000510310924901109248018FE19EE4019733
:10081000F1F700C0000008958093490160934801FA
:10082000613039F048F0623031F0633029F48C5A8D
:1008300003C0805C01C08C5E80680C945103CF9231
:10084000DF92EF92FF920F931F93CF93DF93C82F06
:10085000803C28F0D0E0FE01E25AFE4FC491AA9AF3
:1008600088B3C6FB662760F970E0660F771F9C2F80
:10087000991F9927991F892B682BC5FB442740F99D
:1008800050E0440F551F440F551F462BC4FB222731
:1008900020F930E053E0220F331F5A95E1F7242B63
:1008A00028BB0E94720188B3807F88BB88B3C3FBDA
:1008B000992790F9892BC0FBCC24C0F8D12C63E098
:1008C000CC0CDD1C6A95E1F7C82AC2FBEE24E0F8E7
:1008D000F12CEE0CFF1CEC28C1FB002700F910E006
:1008E000000F111F000F111F0E2908BB0E9472017B
:1008F00085B3837E85BB88B3807F88BB80914901A7
:100900008F5F843158F480934901DF91CF911F911B
:100910000F91FF90EF90DF90CF90089510924901D2
:10092000809148018F5F80934801813039F050F009
:10093000823031F0833031F484ED05C080EC03C0A7
:1009400084E901C080E8DF91CF911F910F91FF9062
:10095000EF90DF90CF900C9451030F931F93CF93A0
:10096000DF93D62F8C01C0E0CD1781F0F801819183
:100970008F01811107C080E20E941F04CF5FCD1755
:10098000D0F304C00E941F04CF5FEECFDF91CF9160
:100990001F910F9108951F93CF93DF93CDB7DEB7CB
:1009A0002A970FB6F894DEBF0FBECDBF182F0E9456
:1009B000FE0360E080E00E940C0480917805909135
:1009C000790529E0289FF001299FF00D1124EF59A6
:1009D000FE4FE10FF11D808142E0BE016F5F7F4F4E
:1009E00090E00E941E1C6AE0CE0101960E94AD04B8
:1009F00062E080E00E940C044AE0BE016F5F7F4F1E
:100A000080917805909179050E941E1C6AE0CE01C4
:100A100001960E94AD042FEF83E294EF21508040B5
:100A20009040E1F700C0000080E02A960FB6F894ED
:100A3000DEBF0FBECDBFDF91CF911F91089587E03C
:100A40000C94CB0486E00C94CB0485E00C94CB048E
:100A500084E00C94CB0483E00C94CB0482E00C94EF
:100A6000CB0481E00C94CB04CF92DF92EF92FF9203
:100A70000F931F93CF93DF93CDB7DEB76B970FB66E
:100A8000F894DEBF0FBECDBF7C0162E080E00E9423
:100A90000C0467E771E0CE0101960E94031C66EF2B
:100AA00070E0CE0101960E94131CF70180818F70C7
:100AB00039F467EB70E0CE0101960E94F81B2DC05F
:100AC00080E090E0CC24C394D12CF7013081A601C2
:100AD000082E02C0440F551F0A94E2F7232F30E07E
:100AE00024233523082E02C0359527950A94E2F772
:100AF0008C010F5F1F4F232B61F04AE0BE016B5E3C
:100B00007F4FC8010E941E1CBC01CE0101960E94AD
:100B1000131CC80104301105C1F664E1CE01019631
:100B20000E94AD0462E089E00E940C0463E771E07A
:100B3000CE0101960E94031C66EF70E0CE01019683
:100B40000E94131CF7018081807F39F467EB70E00D
:100B5000CE0101960E94F81B2BC004E010E0CC24CB
:100B6000C394D12CF701808190E09601002E02C041
:100B7000220F331F0A94E2F782239323002E02C030
:100B8000959587950A94E2F7892B69F04AE0BE01B2
:100B90006B5E7F4FC80103970E941E1CBC01CE01F3
:100BA00001960E94131C0F5F1F4F08301105D1F6EC
:100BB00064E1CE0101960E94AD046B960FB6F894E5
:100BC000DEBF0FBECDBFDF91CF911F910F91FF9080
:100BD000EF90DF90CF900895EF92FF920F931F93C5
:100BE000CF93DF93CDB7DEB76B970FB6F894DEBF28
:100BF0000FBECDBF7C018B0162E080E00E940C043F
:100C000062E870E0CE0101960E94031C8FEFE816A7
:100C1000F80619F467EB70E00EC04AE0BE016B5EA7
:100C20007F4FC7010E941E1CBC01CE0101960E948D
:100C3000131C65E770E0CE0101960E94F81B64E189
:100C4000CE0101960E94AD0463E080E00E940C0496
:100C500068E770E0CE0101960E94031C0F3F8FEF02
:100C6000180719F467EB70E00EC04AE0BE016B5E36
:100C70007F4FC8010E941E1CBC01CE0101960E943C
:100C8000131C65E770E0CE0101960E94F81B64E139
:100C9000CE0101960E94AD046B960FB6F894DEBFAC
:100CA0000FBECDBFDF91CF911F910F91FF90EF90BD
:100CB00008950F931F93CF93DF93CDB7DEB764975B
:100CC0000FB6F894DEBF0FBECDBFFC015581448145
:100CD00033812281918180811F925F931F924F9374
:100CE0001F923F931F922F931F929F931F928F9358
:100CF00088EF90E09F938F938E010F5F1F4F1F939C
:100D00000F930E94741C61E080E00E940C0464E177
:100D1000C8010E94AD040FB6F894DEBF0FBECDBF70
:100D200064960FB6F894DEBF0FBECDBFDF91CF91B2
:100D30001F910F9108950F931F93CF93DF93D62F99
:100D4000C0E0CD17A9F0FC0124918C010F5F1F4F6B
:100D5000211107C080E20E941F04CF5FCD17D0F39E
:100D600007C0FC0184910E941F04CF5FC801E9CF36
:100D7000DF91CF911F910F91089562E080E00E9472
:100D80000C0464E18BEB90E00C949B06CF93DF9313
:100D9000EC010E94FE03CE010E940A1C682FCE01C6
:100DA0000E949B068AE3DF91CF910C941F0487B3C6
:100DB000806B87BB88B3806B88BB8EE58DB9089547
:100DC0008FB988EE93E09093DF048093DE047799E7
:100DD0000BC08091DE049091DF04892BC1F786E07F
:100DE000809347018FEF08958FB10895C49880EAEA
:100DF0000E94E00680E00E94E006C49A0895CF9326
:100E0000C82FC49883E00E94E0068C2F0E94E00661
:100E100080E00E94E006C49ACF9108951F93CF937B
:100E2000DF93182FD62FC42FC49885E00E94E006C8
:100E3000812F0E94E0068D2F0E94E0068C2F0E94D9
:100E4000E006C49ADF91CF911F910895CF93DF936D
:100E5000D82FC62FC49882E00E94E0068D2F0E94F2
:100E6000E0068C2F0E94E006C49ADF91CF9108958E
:100E700088EE93E09093DD048093DC0480915A0126
:100E800081110BC08091DC049091DD04892BB1F7B6
:100E900082E0809347018FEF0895F89480915A0182
:100EA000815080935A01789480915E0190915E0107
:100EB0009F5F90935E019A3011F410925E01089545
:100EC0009F92AF92BF92CF92DF92EF92FF920F93D9
:100ED0001F93CF93DF93D82FC92FB62E0E943807C8
:100EE0009DE0899FF0011124EA50FB4FC080D18022
:100EF000E280F3800D2F1C2F9DE0A92E2DE0922E75
:100F0000B11003C08D2F9C2F41C040E0A89EF0017E
:100F10001124EA50FB4FBF016C5F7F4FDB018C91C6
:100F2000242F30E0481760F4CF01820F931FDC01BB
:100F300015968C91200F311FD9018C934F5FEECF06
:100F4000200F311FD90111978C918823D9F2848108
:100F5000080F111D0E94380790914701911114C08C
:100F6000989EF0011124EA50FB4F4081518162812B
:100F70007381BA94C416D506E606F70609F283E033
:100F80008093470180E002C080E090E0DF91CF9144
:100F90001F910F91FF90EF90DF90CF90BF90AF9097
:100FA0009F900895AF92BF92CF92DF92EF92FF92FF
:100FB0000F931F93CF93DF936B017C01142F590183
:100FC0000E94F606DC2DD295DD0FD07E902F987012
:100FD000D92BB701A601EBE1769567955795479513
:100FE000EA95D1F74370D42B86FF0BC084FF0BC06A
:100FF00082FD02C0C1E008C085E0809347018FEF09
:1010000058C0C3E001C0C2E0F894C49882E00E94D6
:10101000E0068C2F8295807F805E0E94E006802F04
:1010200083700E94E006D701C60123E0B695A7951C
:10103000979587952A95D1F70E94E0068D2F0E94FB
:10104000E006D701C60133E1B695A7959795879538
:101050003A95D1F70E94E006D701C6014BE0B6955C
:10106000A795979587954A95D1F70E94E006812F1D
:101070000E94E0067501D0E0D11749F0D83039F070
:10108000F70181917F010E94E006DF5FF5CFC49AEE
:1010900002FF0DC0C4982FEF2C0F81E090E001C03B
:1010A000880F2A95EAF780680E94E006C49A78942F
:1010B0008C2FDF91CF911F910F91FF90EF90DF90D8
:1010C000CF90BF90AF9008958F929F92AF92BF92B2
:1010D000EF92FF920F931F93CF93DF937C01C62F64
:1010E00049015A01162F169516951695D0E0D1177D
:1010F00091F00FEF970148E0C501B4010E94D207BB
:1011000080914701882311F08FEF13C088E0E80E2B
:10111000F11CDF5FECCF4C2F477031F00FEF9701E0
:10112000C501B4010E94D207809147018111ECCF23
:1011300081E0DF91CF911F910F91FF90EF90BF90D1
:10114000AF909F908F9008952F923F924F925F9211
:101150006F927F928F929F92AF92BF92CF92DF92C7
:10116000EF92FF920F931F93CF93DF9300D000D0A5
:101170001F92CDB7DEB71C018B015D834C837901D3
:101180000E94F60680FD07C00E94F60681FD05C09C
:1011900080E090E091C080E001C081E0C49890E0E0
:1011A000880F991F880F991F80690E94E00680E0D0
:1011B0000E94E006882E912CA12CB12C80E00E9488
:1011C000E0068983482E512C612C712C80E00E940E
:1011D000E0068A8380E00E94E0068B8380E00E9424
:1011E000E006EC81FD8180831D821C82CC80DD8045
:1011F000C00ED11E80E00E94E006F60180838C8143
:101200009D8101969D838C83089781F7C49A99816B
:1012100093FF0BC0EA814E2F50E060E070E0FB814D
:101220008F2F90E0A0E0B0E006C080E090E0DC010D
:1012300040E050E0BA01F101108211821282138263
:1012400029812370A22B762F652F542F4427482BFA
:10125000592B6A2B7B2BABE0440F551F661F771F62
:10126000AA95D1F7B5E07694679457944794BA95C8
:10127000D1F783E0880C991CAA1CBB1C8A95D1F776
:1012800084289528A628B728482959296A297B291E
:101290004083518362837383F70110828DE20E9441
:1012A000FF06807CF7019081892B808340E060EC11
:1012B0008DE20E940E07C8010F900F900F900F90C3
:1012C0000F90DF91CF911F910F91FF90EF90DF90E2
:1012D000CF90BF90AF909F908F907F906F905F90D6
:1012E0004F903F902F900895CF93DF931F92CDB7EB
:1012F000DEB7198240915B0160915B0190915B01C7
:101300008DE0849FA001112446505B4F869FB00161
:10131000112465507B4F899FC00111249E012F5FCE
:101320003F4F8A509B4F0E94A40880915B018F5FC2
:1013300080935B018A3011F410925B0180915A0115
:101340008F5F80935A018A3019F410925A0103C0BA
:101350008981807C29F085E0809347018FEF01C06F
:1013600081E00F90DF91CF910895CF92DF92EF92BD
:10137000FF92CF93DF93D82F6A017B01DB01CA0173
:101380002BE1B695A795979587952A95D1F7C82F04
:10139000C370842F8295880F807EC82BC49882E00A
:1013A0000E94E0068D2F0E94E006D701C60133E0BF
:1013B000B695A795979587953A95D1F70E94E0063F
:1013C0008C2F0E94E006D701C60143E1B695A79590
:1013D000979587954A95D1F70E94E006D701C601F7
:1013E0005BE0B695A795979587955A95D1F70E949A
:1013F000E006C49ADF91CF91FF90EF90DF90CF90FD
:101400000895CF92DF92EF92FF92CF93DF93D82F80
:101410006A017B01C42FC295CC0FC07E2870C22BFD
:101420008BE176956795579547958A95D1F74370E7
:10143000C42BC49882E00E94E0068D2F0E94E00633
:10144000D701C60123E0B695A795979587952A956C
:10145000D1F70E94E0068C2F0E94E006D701C6015A
:1014600033E1B695A795979587953A95D1F70E9460
:10147000E006D701C6014BE0B695A79597958795ED
:101480004A95D1F70E94E006C49ADF91CF91FF9070
:10149000EF90DF90CF9008958A98929A85B78C7FCD
:1014A00085BF8BB780648BBF08951FBC8AE08EBD5B
:1014B0001DBC1CBC17BC16BC87E08BBD80ED8ABD73
:1014C00019BC18BC89B7806189BF0895CF93C82F14
:1014D0000E94D706BC9AC49AC49880EC0E94E00689
:1014E000C49A40E860E889E20E940E0765E08AE25B
:1014F0000E94260769E889E20E94260762E088E2E6
:101500000E94260743E063E08BE20E940E074C2F07
:101510006FEF8FE00E940E078EE00E94FF06807E34
:10152000C81302C0C1E001C0CFEF44E064E080E630
:101530000E940E078C2FCF910895CF92DF92EF92E9
:10154000FF92CF93F89484B38F7184BB85B3806E80
:1015500085BB81B3877C81BB82B3886382BBD49A0D
:10156000DC98D59ADD9A8AB38F608ABB8BB38F6083
:101570008BBB0E94AD030E94F9030E94FE030E94F0
:10158000810180EF94E00E94B4020E942C0387FF47
:1015900003C082E080934B0182E090E00E943F1FF5
:1015A0006B017C0181E090E00E94371FC82F80E032
:1015B00090E00E94371FA70196016C2F0E94E1194D
:1015C000579A0E944C0A0E94550A78942FEF89E698
:1015D00098E1215080409040E1F700C0000080E099
:1015E0000E94660A18161CF083E080934B01CF918D
:1015F000FF90EF90DF90CF9008950F93CF93DF93FC
:10160000CDB7DEB727970FB6F894DEBF0FBECDBFBC
:1016100081E090E039E022E0389FF001399FF00D41
:101620001124EF59FE4F2087019683369105A1F7CB
:1016300081E089838091F2048A838091F1048B8315
:101640008091F0048C838091F3048D838091F40465
:101650008E838091F5048F8307EF9E012F5F3F4FAC
:1016600047E060E070E0CB010E94D20727960FB6FA
:10167000F894DEBF0FBECDBFDF91CF910F910895DB
:10168000EF92FF920F931F93CF93DF9300D000D080
:10169000CDB7DEB780914D01806180934D0101E0AF
:1016A00010E099E0F92E60E0C801875F9F4F0E942B
:1016B0004B1FF09EF001F19EF00D1124EF59FE4FEB
:1016C00017820F5F1F4F0336110569F7E199FECFAF
:1016D0000E94FD0A2FEF81EE94E02150804090405F
:1016E000E1F700C000000E94FE036CE086E591E097
:1016F0000E949B0618E08EE20E941F042FEF89E6ED
:1017000098E1215080409040E1F700C00000115066
:1017100091F710924D0101E010E0F12C89E0E82EE4
:10172000E09EF001E19EF00D1124EF59FE4F67811C
:10173000601306C0C801875F9F4F0E944B1FF39440
:101740000F5F1F4F0336110559F762E080E00E94DA
:101750000C0460E183E990E00E949B064AE0BE0130
:101760006F5F7F4F8F2D90E00E941E1C63E00E94F0
:10177000AD040E94FD0A2FEF87EA91E621508040D8
:101780009040E1F700C0000080E395E7909360018E
:1017900080935F0110924B010F900F900F900F906C
:1017A000DF91CF911F910F91FF90EF9008950F93CC
:1017B0001F93CF93DF9300D0CDB7DEB7162F8130C4
:1017C00011F085E001C084E0898389E0189FF00171
:1017D0001124EF59FE4F82E080874A83612F70E029
:1017E00080E090E007EF9E012F5F3F4F42E00E94B4
:1017F000D207812F0E944E010F900F90DF91CF9161
:101800001F910F9108950F931F93CF93DF9300D0F3
:1018100000D000D0CDB7DEB7182F86E09E012F5F35
:101820003F4FF901982F11929A95E9F78983611535
:10183000710561F489E0189FF0011124EF59FE4F02
:1018400082E08087672B79F441E00EC0F90180E0E7
:1018500090E0DB01A80FB91F4C91419301968630AF
:101860009105B9F7E7CF46E0812F90E0A0E0B0E026
:1018700007EFBC01CD010E94D207112321F0812F77
:101880000E944E0101C081E026960FB6F894DEBF9B
:101890000FBECDBFDF91CF911F910F9108950F9390
:1018A0001F93CF93DF9300D000D000D0CDB7DEB729
:1018B000182F86E09E012F5F3F4FF901982F11925C
:1018C0009A95E9F7898389E0189FF0011124EF596F
:1018D000FE4F82E08087612F70E080E090E007EFAC
:1018E00042E00E94D207112321F0812F0E944E0175
:1018F00001C081E026960FB6F894DEBF0FBECDBFC3
:10190000DF91CF911F910F9108950F931F93CF9364
:10191000DF931F92CDB7DEB7182F698389E0189F38
:10192000F0011124EF59FE4F82E08087612F70E0B3
:1019300080E090E007EF9E012F5F3F4F41E00E9463
:10194000D2078981823021F0812F0E944E0101C08F
:1019500081E00F90DF91CF911F910F9108951F9219
:101960000F920FB60F9211248F929F92AF92BF9257
:10197000CF92DF92EF92FF922F933F934F935F931B
:101980006F937F938F939F93AF93BF93EF93FF9347
:10199000CF93DF93CDB7DEB72E97DEBFCDBF9E01CD
:1019A000225F3F4FAE014B5F5F4FBE016A5F7F4FCB
:1019B000CE0101960E94A40880914D0189809A80F1
:1019C000AB80BC8084FF11C0D501C4018F779927FB
:1019D000AA27BB2729E0289FF001299FF00D112499
:1019E000EF59FE4F882D8F77878375016401E89446
:1019F000C7F8DD24EE24FF24C601875F9F4F0E94B5
:101A0000371F90E0A0E0B0E0C816D906EA06FB0652
:101A100021F084E080934B0140C089E08C9DF0016F
:101A20008D9DF00D1124EF59FE4F808584608087D5
:101A300092FE03C080858062808791FC0BC089E0A4
:101A40008C9DF0018D9DF00D1124EF59FE4F808586
:101A50008160808790FE0BC089E08C9DF0018D9D98
:101A6000F00D1124EF59FE4F80858D7F80874D81C9
:101A7000FE01369680E090E059E05C9D90015D9D0E
:101A8000300D11242F593E4F841738F45191D9014C
:101A9000A80FB91F5C930196F7CF2E960FB6F89456
:101AA000DEBF0FBECDBFDF91CF91FF91EF91BF9110
:101AB000AF919F918F917F916F915F914F913F91E6
:101AC0002F91FF90EF90DF90CF90BF90AF909F90BD
:101AD0008F900F900FBE0F901F9018951F93CF936C
:101AE000DF93182FCCE6D0E0CE010E94371F81177C
:101AF00039F0219680E0CF3CD807B1F781E001C0F2
:101B000080E0DF91CF911F91089520B383B32873B4
:101B10002695807E282B2C3F19F42093460132C055
:101B200080914601281771F0DC9A8AE090E0EFE995
:101B3000FFE03197F1F700C000000197C1F7DC9892
:101B40002093460180E395E79093600180935F01C5
:101B500082E090E061E070E030E0AB01082E02C06E
:101B6000440F551F0A94E2F742235323082E02C064
:101B7000559547950A94E2F7452B29F00196883050
:101B8000910559F78FEF0895CF930E94850DC82FC7
:101B90008F3F41F480915F0190916001892BA9F7FB
:101BA0008FEF05C00E94850D8F3FE1F78C2FCF91FD
:101BB0000895CF92DF92EF92FF921F93CF93DF931E
:101BC00000D0CDB7DEB78EE092E00E94C60610E0EE
:101BD00087E1E82E81E0F82ECE0101966C0162E0EB
:101BE00080E00E940C041F921F93FF92EF92DF92FD
:101BF000CF920E94741C64E0C6010E94AD040E9452
:101C0000C40D0F900F900F900F900F900F90853094
:101C1000C9F068F4823019F7812F0F900F90DF918F
:101C2000CF911F91FF90EF90DF90CF900895863075
:101C300029F08F3FA1F60C940000D1CF112331F091
:101C40001150CDCF133621F01F5FC9CF13E6C7CF98
:101C500010E0C5CF4F925F926F927F928F929F92CA
:101C6000AF92BF92CF92DF92EF92FF920F931F93AA
:101C7000CF93DF9300D000D000D0CDB7DEB7482E91
:101C800001E010E0F12C49E0E42EC801875F9F4F8E
:101C90000E94371F80130AC0E09EF001E19EF00D04
:101CA0001124EF59FE4F808582FDF3940F5F1F4F83
:101CB0000336110551F721E02F1524F50E94D90DA7
:101CC000582E41100AC081110AC062E080E00E94D3
:101CD0000C0464E184E590E00CC18823A9F060E085
:101CE00070E0852D0E94030C87FD09C029E0529EFB
:101CF000F0011124EF59FE4F8081863031F00E94AF
:101D0000BD06F9C0442009F3512CE1E04E1601F163
:101D10004E1688F0F2E04F1210C189E0589EF00193
:101D20001124EF59FE4F8481E580F12CF82A8FEFC2
:101D3000838382831AC029E0529EF0011124EF5957
:101D4000FE4FE180F12C33E6832E912C81E012C00E
:101D500039E0539EF0011124EF59FE4F8281E38058
:101D6000F12CF82A8FEF8583848320E3822E25E7E8
:101D7000922E8AE000E010E0FE0131966F019CE1B6
:101D8000692E91E0792EA82EB12C0E94FE035520D9
:101D900081F160E080E00E940C0460E18EEF91E050
:101DA0000E949B068AE30E941F04FF92EF927F929B
:101DB0006F92DF92CF920E94741C61E080E00E94DB
:101DC0000C04F60101900020E9F73197BF016C196E
:101DD0007D09C6010E94AD040F900F900F900F90E7
:101DE0000F900F90442029F062E085E790E00E9478
:101DF0009B0662E080E00E940C046EE08FE590E0BC
:101E00000E949B068AE30E941F041F930F937F92F8
:101E10006F92DF92CF920E94741C63E080E00E9478
:101E20000C04F60101900020E9F73197BF016C190D
:101E30007D09C6010E94AD040F900F900F900F9086
:101E40000F900F90442029F062E085E790E00E9417
:101E50009B060E94C40D8530E1F030F4823001F120
:101E6000833009F46AC091CF863031F08F3F09F09A
:101E70008CCF0C94000089CF81E090E0442011F0D9
:101E800080E090E0801791070CF07FCF0A191B09C2
:101E90007CCF081519050CF078CF0A0D1B1D75CFE6
:101EA000C52CD12CF9E05F9EC00111249C012F5953
:101EB0003E4F790186E0F9018083F1E04F1641F150
:101EC0004F1638F022E0421238C0F7011483058320
:101ED00022C0C801875F9F4F0E94371F8823A9F047
:101EE0000E94FE0360E080E00E940C0464E18BEE3F
:101EF00091E00E949B063FEF87EA91E631508040D7
:101F00009040E1F700C0000018C0F701018303C052
:101F1000F9011283038389E08C9DB0018D9D700DC2
:101F200011246F597E4F852D0E94030C87FF03C03B
:101F3000012B09F0E4CE0E94400B26960FB6F894D0
:101F4000DEBF0FBECDBFDF91CF911F910F91FF90EC
:101F5000EF90DF90CF90BF90AF909F908F907F9049
:101F60006F905F904F90089582E00C942A0E81E06C
:101F70000C942A0E80E00C942A0ECF92DF92EF92FE
:101F8000FF920F931F93CF93DF93CDB7DEB7A69742
:101F90000FB6F894DEBF0FBECDBF86E0E4EEF0E0F2
:101FA000DE01919601900D928A95E1F78CE0EAEEC0
:101FB000F0E0DE01559601900D928A95E1F783E6F7
:101FC00091E00E94C60680EF94E00E94B40287FF71
:101FD00003C082E080934B0110E05FE1C52E51E029
:101FE000D52ECE0101967C018091F5041F928F932E
:101FF0008091F4041F928F938091F3041F928F932A
:102000008091F0041F928F938091F1041F928F931F
:102010008091F2041F928F93DF92CF92FF92EF9202
:102020000E94741C63E080E00E940C0462E1C7011E
:102030000E94AD0463E0812F880F810F0E940C0481
:1020400084E80E941F0401E00FB6F894DEBF0FBEC3
:10205000CDBF123008F000E00E94C40D8530B1F011
:1020600030F4823009F443C0843059F044C08630E3
:1020700029F1873009F03FC0153008F0B5CF1F5F58
:10208000B3CF112309F4B0CF1150AECF212F30E0E0
:10209000F901EE0FFF1FEE0DFF1D0488F589E02DFD
:1020A0008081A1E2B0E0AC0FBD1FA20FB31F9C91D5
:1020B000891710F48F5F19C0008396CF812F90E0AD
:1020C000FC01EE0FFF1FEE0DFF1D0488F589E02DCA
:1020D0002081021718F42150208386CFA1E2B0E0BE
:1020E000AC0FBD1FA80FB91F8C9180837DCF80EFEF
:1020F00094E00E944F02A6960FB6F894DEBF0FBE82
:10210000CDBFDF91CF911F910F91FF90EF90DF90A6
:10211000CF9008950F931F93CF9387E191E00E9492
:10212000C60681E090E00E94371FC82F00E010E053
:1021300060E08AE00E940C04C03219F1C03361F003
:10214000C1110DC009E011E0C0E009C0C03239F58D
:1021500060E08AE00E940C0403E111E0C0E365E066
:10216000C8010E949B060E94C40D853079F3863019
:1021700061F4CC2369F3C033D9F660E08AE00E94B1
:102180000C040EE011E0C0E2EACF823079F46C2F4B
:1021900081E090E0CF911F910F910C944B1FC033C1
:1021A00039F660E08AE00E940C04CCCFCF911F91F9
:1021B0000F910895CF92DF92EF92FF92CF93DF932A
:1021C000CDB7DEB727970FB6F894DEBF0FBECDBFF1
:1021D00082E090E00E943F1F6B017C0180E291E071
:1021E0000E94C60660E08AE00E940C042AE0AE016C
:1021F0004F5F5F4FC701B6010E94291C65E00E9436
:10220000AD040E94C40D853059F08630A9F08230AB
:10221000F9F4B701A60182E090E00E94581F18C0AF
:10222000C1148CE2D80681E0E806F104D8F6CC0CA3
:10223000DD1CEE1CFF1CD6CF81E8C81685E2D8064F
:10224000E104F10478F2F694E794D794C794CACFE6
:1022500027960FB6F894DEBF0FBECDBFDF91CF91AA
:10226000FF90EF90DF90CF900895CF9383E391E0BC
:102270000E94C60680E090E00E94371FC82F60E0F1
:102280008AE00E940C0465E0C11103C08FE291E076
:1022900002C089E291E00E949B060E94C40D853035
:1022A00051F0863061F0823071F46C2F80E090E064
:1022B000CF910C944B1FC111E2CFC1E0E0CFC130F0
:1022C000F1F6C0E0DCCFCF9108952F923F924F926C
:1022D0005F926F927F928F929F92AF92BF92CF92B6
:1022E000DF92EF92FF920F931F93CF93DF93CDB7BF
:1022F000DEB7C856D1090FB6F894DEBF0FBECDBF0A
:102300004C01CE0101967C0183E6F70111928A957A
:10231000E9F7A62E81E090E06C0102C0CC0CDD1C38
:102320006A95E2F701E010E0412C89E0782EC801BF
:10233000875F9F4F0E94371F801318C0709EF00167
:10234000719EF00D1124EF59FE4F208530E02C21B5
:102350003D210A2C02C0359527950A94E2F7232BDC
:1023600029F0F701E40DF11D808343940F5F1F4FA7
:1023700003361105E1F6612C512C77247394042D5A
:1023800010E06E01F4E6CF0ED11C180121E0221AF4
:102390003108C4010E94C6064AE0B601C8010E9485
:1023A0001E1CF60101900020E9F76E2F6C19C60182
:1023B0000E94AD0463E08BE791E00E949B06570109
:1023C000A50CB11C412CF50121915F01A9962FAFFD
:1023D000A9972223C9F04394642D81E00E940C0444
:1023E00064E08BE791E00E949B064AE0B601A99663
:1023F000EFADA9978E2F90E00E941E1C63E00E9413
:10240000AD04F3E04F12DFCF672D80E00E940C0493
:1024100084E80E941F040E94C40D8530F1F038F456
:10242000823031F1833009F0B4CF80E025C08630AE
:1024300031F08F3F09F0ADCF0C940000AACF862D6C
:1024400090E0821593050CF0A4CF639482E0871589
:1024500010F073949ECF53949CCF662009F499CFCB
:102460006A9491E0791611F07A9493CF5A9491CFAF
:10247000F701E60DF11D8081C859DF4F0FB6F894C2
:10248000DEBF0FBECDBFDF91CF911F910F91FF90A7
:10249000EF90DF90CF90BF90AF909F908F907F9004
:1024A0006F905F904F903F902F90089562E08FE87B
:1024B00091E00C946511CF92DF92FF920F931F93DE
:1024C000CF93DF93CDB7DEB7A9970FB6F894DEBFF1
:1024D0000FBECDBFF82ED62E89E891E00E94C60629
:1024E00064E08BE791E00E949B060F2D10E04AE02C
:1024F000BE016D5D7F4FC8010E941E1C63E00E94FB
:10250000AD0460E082E10E940C048D2D90E04AE071
:10251000BE016D5D7F4F01960E941E1C62E00E940D
:10252000AD044D2D6F2D81E00E94D70B87FF03C0B6
:102530000E94BD061CC089E0809FF001819FF00DC4
:102540001124EF59FE4F8081843011F080E0C6C025
:10255000DE01559680E090E0AF019A01280F391F07
:10256000F90120812D93019687309105B1F74D2D0A
:102570006F2D82E00E94D70B87FF07C00E94BD0627
:10258000F12CCC24C394D12C51C089E0809FF00160
:10259000819FF00D1124EF59FE4F80818530B1F6F7
:1025A000DE015C9680E090E0AF019A01280F391FB0
:1025B000F90120812D93019687309105B1F7E0CF85
:1025C000CE0146960E945906F1103DC0CE014D96AF
:1025D0000E94340563E080E00E940C046EE671E026
:1025E000CE0101960E94031C66EF70E0CE010196B9
:1025F0000E94131C8E8D8F70B1F567EB70E0CE01D9
:1026000001960E94F81B64E1CE0101960E94AD0480
:102610000E94C40D873008F04FC0853008F05EC0BE
:10262000833009F45BC0843009F453C0888D8F3F38
:1026300039F662E080E00E940C0467E08BE890E0ED
:102640000E949B06E5CFF1E0FF12E2CF69A17AA1DB
:102650007627672776278F8D98A19827892798272F
:102660000E94EC05D5CF80E090E02E8D30E0A601F1
:10267000082E02C0440F551F0A94E2F72423352385
:10268000082E02C0359527950A94E2F78C010F5F5A
:102690001F4F232B61F04AE0BE016D5D7F4FC801E3
:1026A0000E941E1CBC01CE0101960E94131CC80191
:1026B00004301105D1F6A7CF873031F08F3F09F0F4
:1026C000B5CF0C940000B2CFF110B0CFFF24F3943B
:1026D000ADCFFF2009F4AACFFA94A8CFA9960FB6E0
:1026E000F894DEBF0FBECDBFDF91CF911F910F9148
:1026F000FF90DF90CF900895CF93DF9362E089E859
:1027000091E00E946511D82F882391F0C0E06C2FD2
:102710008D2F0E945B12853019F0863029F008C099
:10272000CC23A9F3C150F3CFCF3188F7CF5FEFCFE0
:10273000DF91CF910895CF93C82F0E94C40D0E94BE
:10274000FE0364E183EA90E00E949B060E94C40DB0
:10275000823029F462E08C2FCF910C94850CCF91BC
:102760000895EF92FF921F93CF93DF9300D000D094
:10277000CDB7DEB761E08DE991E00E946511182FB9
:10278000882309F44CC08DE991E00E94C60664E0FC
:102790008BE791E00E949B06E12EF12C4AE0BE01FE
:1027A0006F5F7F4FC7010E941E1C63E00E94AD0453
:1027B00063E0812F0E94850C87FF03C00E94BD0645
:1027C00027C029E02E9DC0012F9D900D11249C0152
:1027D0002F593E4F7901F9012081233001F58E599F
:1027E0009E4F0E94340563E080E00E940C0467E085
:1027F00085EC90E00E949B06F70182814AE0BE01D1
:102800006F5F7F4F90E00E941E1C62E00E94AD044B
:102810000E94C40D833019F4812F0E949B130F90E6
:102820000F900F900F90DF91CF911F91FF90EF903D
:1028300008958F929F92AF92BF92CF92DF92EF92C4
:10284000FF920F931F93CF93DF9300D000D01F927E
:10285000CDB7DEB78BEA91E00E94C606AA24A39406
:10286000B12C10E000E0EE24EA94FE2CCC24CA94B3
:10287000DC2C39E0832EC501875F9F4F0E94371FF4
:10288000982E8A112FC08A9CF0018B9CF00D112488
:10289000EF59FE4F808580FF25C0111101C0192D11
:1028A0000F5F40E0692D82E00E94D70B87FF03C0D5
:1028B0000E94BD0617C08A9CF0018B9CF00D11246C
:1028C000EF59FE4F8081853069F42381848190E047
:1028D000922B8C159D0530F42581E680F12CF22A8F
:1028E000192D6C012FEFA21AB20A83E6A816B104C3
:1028F00011F6BE016F5F7F4FFB0101900020E9F7E9
:1029000031975F01A61AB70A4AE0802F90E00E9433
:102910001E1C62E06A0D0E94AD0464E08BE791E04A
:102920000E949B061123E1F040E0612F81E00E94AC
:10293000D70B87FF03C00E94BD0612C029E0129F7B
:10294000C0011124FC01EF59FE4F2081243041F4D5
:102950008E599E4F0E945906B701C6010E94EC0590
:102960000E94C40D833029F08F3F59F18230C1F7A6
:1029700006C0002331F180E00E949B1322C0002397
:1029800001F160E08BEA91E00E946511082F882335
:10299000C1F010E0612F802F0E945B12853049F05A
:1029A00018F4833071F0F6CF863039F08F3F49F05C
:1029B000F1CF112379F31150EDCF1F3158F71F5F7D
:1029C000E9CF0F900F900F900F900F90DF91CF9164
:1029D0001F910F91FF90EF90DF90CF90BF90AF903D
:1029E0009F908F9008957F928F929F92AF92BF9207
:1029F000CF92DF92EF92FF920F931F93CF93DF93CB
:102A0000CDB7DEB764970FB6F894DEBF0FBECDBF6B
:102A10005C01E12CF50124E0E29EE00DF11D1124A2
:102A200084819581892B11F0E394F4CF01E0F12C9E
:102A300011E0F501808191810E94C606C501F4E094
:102A4000FF9E800D911D11249C012C5F3F4F690159
:102A5000912CF601208131812115310529F1DE010A
:102A6000119680E090E07A2E8B2EF901E80FF91F85
:102A70004491403C18F0E491E05E01C0E491ED9394
:102A800001968331910589F79394692D81E00E9425
:102A90000C0463E1872D982D0E94AD04F4E0CF0E65
:102AA000D11C23E09212D5CF612F80E00E940C044C
:102AB00084E80E941F040E94C40D853061F1C8F4AF
:102AC000823099F1833009F0B4CF64960FB6F89450
:102AD000DEBF0FBECDBFDF91CF911F910F91FF9051
:102AE000EF90DF90CF90BF90AF909F908F907F90AE
:102AF0000895863031F08F3F09F09BCF0C94000091
:102B000098CF0E1508F095CF0F5F133010F41F5FAC
:102B100090CFF3948ECF023008F48BCF0150113058
:102B200011F0115086CFFA9484CFF50134E0039F61
:102B3000E00DF11D11240280F381E02D099579CF7C
:102B4000FF920F931F93CF93DF9300D000D000D05C
:102B5000CDB7DEB701E010E089E0F82EC801875F4D
:102B60009F4F0E94371F801308C0F09EF001F19E16
:102B7000F00D1124EF59FE4F80850F5F1F4F033674
:102B8000110561F70E94D90D482F50E05093790547
:102B90004093780541155105E1F196E09E012F5FC4
:102BA0003F4FF901692F11926A95E9F7998319E06E
:102BB000149FF001159FF00D1124EF59FE4F92E084
:102BC0009087682F70E080E090E007EF42E00E947D
:102BD000D207809178050E944E0187FD0EC080913A
:102BE000780590917905189FF001199FF00D112437
:102BF000EF59FE4F8081863061F00E94BD068FEF55
:102C000097EAE1E681509040E040E1F700C0000023
:102C100004C08CE790E00E94F31426960FB6F89457
:102C2000DEBF0FBECDBFDF91CF911F910F91FF90FF
:102C30000895CF92DF92EF92FF92CF9380EA90E0D7
:102C40000E94F31482E090E00E943F1F6B017C0120
:102C500081E090E00E94371FC82F80E090E00E9442
:102C6000371FA70196016C2FCF91FF90EF90DF9057
:102C7000CF900C94E1190E94400B8CEC90E00C94E6
:102C8000F3146F927F928F929F92AF92BF92CF92E6
:102C9000DF92EF92FF920F931F93CF93DF9300D0B9
:102CA00000D01F92CDB7DEB733E0732EEE24E3944D
:102CB000F12C00E010E05EE3C52E51E0D52ECE01F0
:102CC00001965C016AE0862E912C7AE0672E8EE6F2
:102CD00090E00E94C60662E080E00E940C041F9310
:102CE0000F93DF92CF92BF92AF920E94741C64E068
:102CF000C5010E94AD0462E0872D0E940C040E9471
:102D0000F6030E94C40D0F900F900F900F900F903C
:102D10000F908530C1F040F4833009F457C0E8F4D7
:102D2000823009F445C0D3CF873069F128F08F3F56
:102D300071F60C940000CBCF0E191F0917FFC7CFF7
:102D40000FE017E2C4CF0E0D1F1D0F3097E21907D9
:102D50000CF4BDCF00E010E0BACF88EEE81683E0B7
:102D6000F8063CF4C701689E7001699EF00C1124BE
:102D700003C0EE24E394F12C711003C023E0722E03
:102D8000A6CF7A94A4CF92E0E916F10434F0C701FB
:102D9000B4010E94AE1B7B0104C088EEE82E83E0E4
:102DA000F82E83E0781202C0712C91CF73948FCFEC
:102DB0000E94F90387E090E00E94451F0817190759
:102DC00039F484EB90E00E94F31402C00E94F903EE
:102DD0000F900F900F900F900F90DF91CF911F9158
:102DE0000F91FF90EF90DF90CF90BF90AF909F90AA
:102DF0008F907F906F900895CF93DF93CDB7DEB71C
:102E000064970FB6F894DEBF0FBECDBF0E949D0A37
:102E100033243394E0E26E2EE1E07E2ECE01019663
:102E20006C01F3E4AF2EF1E0BF2EA2E04A2EB9E030
:102E30005B2E18E8812E13E1912E80914D01982F81
:102E40009270282F217080FD06C0911104C072EB92
:102E5000E72E71E0F72E30914C01311103C0309212
:102E60004C0108C010924C01222321F06BEAE62E9F
:102E700061E0F62E992341F090914C01913021F4BC
:102E80005DE9E52E51E0F52E83FF04C04CECE42E05
:102E900040E0F42E60E080E00E940C0464E1C70191
:102EA0000E949B0680EF94E00E94B4028091F5049A
:102EB0001F928F938091F4041F928F938091F3045B
:102EC0001F928F938091F0041F928F938091F10451
:102ED0001F928F938091F2041F928F937F926F9233
:102EE000DF92CF920E94741C8091F0049091F104C3
:102EF0009827892798279093EB048093EA04809180
:102F0000F2049091F3049827892798279093ED0471
:102F10008093EC048091F4049091F504982789271C
:102F200098279093EF048093EE0463E080E00E9482
:102F30000C040FB6F894DEBF0FBECDBF80914B01DD
:102F40008823A1F080914D01886080934D0164E158
:102F500085EC90E00E949B0663E087E00E940C04F1
:102F600080914B01805D0E941F0404C064E1C60192
:102F70000E94AD0480914D011F928F93BF92AF923A
:102F8000DF92CF920E94741C61E080E00E940C04EA
:102F900064E1C6010E94AD040F900F900F900F9056
:102FA0000F900F9080914A01811140924B018091C6
:102FB0004E01882319F085E080934B0180914701F1
:102FC000882319F083E080934B0110924D011092F9
:102FD000E9041092E8041092E7041092E6041092BB
:102FE000E5041092E40401E010E0C801875F9F4F00
:102FF0000E94371F801353C02091E4043091E504F0
:103000002F5F3F4F3093E5042093E404509EF0017E
:10301000519EF00D1124EF59FE4F908595FF05C08C
:1030200090914D01906290934D01509EF001519E00
:10303000F00D1124EF59FE4F908590FF18C020919C
:10304000E8043091E9042F5F3F4F3093E904209367
:10305000E80420904D01922D916090934D010E94C3
:103060006E0D882321F0822D816480934D01509E46
:10307000F001519EF00D1124EF59FE4F808581FF24
:103080000EC08091E6049091E70401969093E704C6
:103090008093E60480914D01826080934D01809180
:1030A0004D0185FF02C0DA9A01C0DA9880914D0186
:1030B00080FF02C0DB9A01C0DB9880914D0186FF42
:1030C00002C0D99A01C0D99880914D0181FD04C0F8
:1030D00080914B01882311F0D89801C0D89A0F5FD6
:1030E0001F4F0336110509F080CF80914B0190E00E
:1030F000982F882720914D01822B9093E104809393
:10310000E00489B38F7090E09093E3048093E2042D
:1031100080915C0190915D01892B69F40E94FD0A08
:1031200090925D0180925C0160E083E10E940C045A
:103130008AE20E941F0408EE13E08091540181117D
:1031400019C08FE99FE00197F1F700C000000E94CD
:10315000850D823061F40E94850D8F3FE1F780E696
:1031600090E00E94F3140E94FE0310924D01015062
:10317000110919F780915401882309F45ECE0E9449
:10318000D51A181624F085E080934B0156CEDD98B1
:1031900080914B01853011F410924B011091A405E0
:1031A00086E090E00E94371F181341C0E091A60509
:1031B000F091A705FE27EF27FE278091A8059091A3
:1031C000A905982789279827AF01480F591F2091F3
:1031D000A5054930510538F020682093A505409297
:1031E000A60583E026C02330E9F4EE0FFF1FE0526E
:1031F000FB4FA4EAB5E020E030E012968217930777
:1032000061F040815181329611965C93119712962C
:103210004C9312972F5F3F4FF0CF880F8093A605F6
:103220008D5F07C020682093A5053092A605DD9A22
:1032300004CE0E94321AFBCF1F920F920FB60F924C
:1032400011248F939F93AF93BF938091DC0490914F
:10325000DD04892B49F08091DC049091DD04019715
:103260009093DD048093DC048091DE049091DF0470
:10327000892B49F08091DE049091DF0401979093AF
:10328000DF048093DE0480915F0190916001892BBF
:1032900049F080915F0190916001019790936001E6
:1032A00080935F0180915C0190915D01892B49F0D1
:1032B00080915C0190915D01019790935D018093F5
:1032C0005C018091560190915701A0915801B091F5
:1032D0005901892B8A2B8B2B99F080915601909163
:1032E0005701A0915801B09159010197A109B10965
:1032F0008093560190935701A0935801B0935901C0
:10330000BF91AF919F918F910F900FBE0F901F9023
:1033100018951F920F920FB60F9211248F939F93BF
:10332000EF93FF938BB19CB18C7111F083E019C0C6
:10333000E0915501F0E0E458FA4F908380915501F7
:103340008F5F80935501883211F41092550180915E
:1033500054018F5F80935401883229F410925401F4
:1033600082E080934E01FF91EF919F918F910F909A
:103370000FBE0F901F9018955D9BFECF8CB95E9B82
:10338000FECF5E9A0895282F8FEF9FEFE4EAF5E0D5
:103390002150B0F0BF016F5F7F4F3081832738E04D
:1033A000AC015695479580FF06C0CA01E1E08E2723
:1033B000E0EA9E2701C0CA01315091F7FB01E8CF36
:1033C00008950F931F93CF93DF93182FC62F662373
:1033D00011F001E001C002E0113011F0D8E001C0AD
:1033E000D7E084E0220F331F441F551F8A95D1F781
:1033F00060E074E284EF90E00E94C21B215031092A
:103400002F773327D5508E9A969810935301113009
:1034100029F082E090E0A0E0B0E004C088EE93E004
:10342000A0E0B0E080934F0190935001A093510130
:10343000B0935201919A899A909A88981BB888E91A
:103440008AB981E0023009F080E0C0688C2BCD2F72
:10345000CC0FC82BC0BD10BC29B9DF91CF911F91F3
:103460000F910895EF92FF920F931F93CF93DF93E5
:10347000C82F80915301882341F0813009F08EC01C
:103480009C2F80E0E4EAF5E035C08C2F0E94C31940
:10349000F82ED92F969A04EA15E0CC2339F0F801DA
:1034A00081918F010E94BC19C150F7CF8F2D0E94CE
:1034B000BC198D2F0E94BC19969880914F01909154
:1034C0005001A0915101B091520180935601909307
:1034D0005701A0935801B0935901809156019091E2
:1034E0005701A0915801B0915901892B8A2B8B2B40
:1034F000A1F754C0915020F02081820F3196FACF6D
:10350000D82FD195969AFFEF29EF80E0F150204017
:103510008040E1F700C000008AE30E94BC1904EA81
:1035200015E0CC23F1F07801F801808182958F704D
:1035300090E3980F9A3310F0895C01C0892F0E94A4
:10354000BC190F5F1F4FF70180818F7090E3980FB8
:103550009A3310F0895C01C0892F0E94BC19C150B8
:10356000E0CF9D2F92959F7080E3890F8A3310F0F2
:1035700087E3890F0E94BC198D2F8F70D0E3D80F7D
:10358000DA3310F0895C01C08D2F0E94BC198DE0E8
:103590000E94BC198AE00E94BC199698DF91CF91D5
:1035A0001F910F91FF90EF9008958F929F92AF928D
:1035B000BF92CF92DF92EF92FF920F931F93CF9320
:1035C000C0904F01D0905001E0905101F090520115
:1035D000609153019091CC0520E080E0C0925601AB
:1035E000D0925701E0925801F09259013091540164
:1035F00031110DC08090560190905701A090580154
:10360000B090590189288A288B2881F734C0E92F86
:10361000F0E09F5F61110AC0E458FA4F3081E82F53
:10362000F0E0EC55FA4F30838F5F1AC0E458FA4F40
:1036300030813D3009F43CC03A3391F0482F50E0DE
:10364000211158C0208130ED320F3A3208F44CC0BD
:103650002755FA01EC55FA4F2295207F208321E06F
:10366000983209F490E0F89430915401315030933D
:1036700054017894B3CF611153C09093CC05282F97
:1036800030E02C553A4FF9013197008110E0102FAE
:10369000002731979081092BCEEFC80F8C2F0E9405
:1036A000C3190817190711F48C2F40C085E03BC0DF
:1036B000983219F09093CC0502C01092CC05F89482
:1036C000909154019150909354017894282F90E058
:1036D000E4EAF5E0215020F03081930F3196FACFE3
:1036E0009111E4CF815022C03A3010F02753B1CF6E
:1036F000232FAFCF208130ED320F3A3210F0275513
:1037000005C03A3010F0275301C0232FFA01EC55C1
:10371000FA4F2F703081232B20838F5F20E0A0CFC2
:103720009093CC0581E080934E018FEFCF911F9154
:103730000F91FF90EF90DF90CF90BF90AF909F9050
:103740008F900895991B79E004C0991F961708F08F
:10375000961B881F7A95C9F78095089597FB072EC9
:1037600016F4009407D077FD09D00E94E41B07FCF3
:1037700005D03EF4909581959F4F08957095619581
:103780007F4F0895A1E21A2EAA1BBB1BFD010DC09D
:10379000AA1FBB1FEE1FFF1FA217B307E407F50701
:1037A00020F0A21BB30BE40BF50B661F771F881FDD
:1037B000991F1A9469F760957095809590959B0173
:1037C000AC01BD01CF010895AA1BBB1B51E107C08D
:1037D000AA1FBB1FA617B70710F0A61BB70B881FA1
:1037E000991F5A95A9F780959095BC01CD01089530
:1037F000FB01DC010D900020E9F7119705900D9277
:103800000020E1F70895FB01DC0105900D920020F6
:10381000E1F70895FC0105900020E9F78095909567
:103820008E0F9F1F0895FB01DC010D900020E9F72A
:10383000119701900D920020E1F70895BB274A30BF
:1038400031F4992322F4BDE2909581959F4F0C9419
:103850005B1CBB272A3051F4992342F4BDE29095BA
:103860008095709561957F4F8F4F9F4F0C94391CB9
:10387000BB27FA01A62F6217710581059105330B4D
:1038800030FB66F0AA27660F771F881F991FAA1FB3
:10389000A21710F0A21B63953850A9F7A05DAA33B8
:1038A00008F0A95DA19336F7B111B1931082CA0156
:1038B0000C948D1EBB27FB015527AA27880F991F43
:1038C000AA1FA41710F0A41B83955051B9F7A05D4F
:1038D000AA3308F0A95DA193009779F7B111B193CC
:1038E0001192CB010C948D1EAEE0B0E0EAE7FCE152
:1038F0000C94831F0D891E8986E08C831A830983AB
:103900008FEF9FE79E838D83AE01475E5F4F6F8988
:10391000788DCE0101960E94961CEF81F885E00F0C
:10392000F11F10822E96E4E00C949F1FABE0B0E0F4
:10393000ECE9FCE10C94751F6C017B018A01FC0130
:1039400017821682838181FFCCC1CE0101963C0192
:10395000F6019381F70193FD859193FF81917F019A
:10396000882309F4BAC1853239F493FD859193FF18
:1039700081917F01853229F4B60190E00E949D1E5D
:10398000E7CF912C212C312CFFE1F315D8F08B32AD
:1039900079F038F4803279F08332A1F4232D20615C
:1039A0001DC08D3261F0803369F4232D216016C073
:1039B000832D8260382EE32DE4603E2E2AC0F32D45
:1039C000F8601DC037FC2DC020ED280F2A3040F0D4
:1039D0008E32B9F436FC81C1232D2064322E19C0F9
:1039E00036FE06C08AE0989E200D1124922E11C04A
:1039F000EAE02E9E200D1124222EF32DF0623F2EA0
:103A000008C08C3621F4832D8068382E02C0883699
:103A100041F4F70193FD859193FF81917F0181111D
:103A2000B3CF982F9F7D9554933028F40C5F1F4F90
:103A30009FE399830DC0833631F0833771F083356E
:103A400009F059C021C0F801808189830E5F1F4FA2
:103A500088248394912C530113C02801F2E04F0E67
:103A6000511CF801A080B18036FE03C0692D70E0C2
:103A700002C06FEF7FEFC5010E94821E4C018201E0
:103A8000F32DFF773F2E16C0280122E0420E511C75
:103A9000F801A080B18036FE03C0692D70E002C03D
:103AA0006FEF7FEFC5010E94771E4C01F32DF06888
:103AB0003F2E820133FC1BC0822D90E088169906B0
:103AC000B0F4B60180E290E00E949D1E2A94F4CFEB
:103AD000F50137FC859137FE81915F01B60190E0D9
:103AE0000E949D1E21102A9421E0821A91088114BF
:103AF000910471F7E8C0843611F0893641F5F80178
:103B000037FE07C060817181828193810C5F1F4FF6
:103B100008C060817181072E000C880B990B0E5F25
:103B20001F4FF32DFF763F2E97FF09C0909580958C
:103B3000709561957F4F8F4F9F4FF0683F2E2AE021
:103B400030E0A3010E94D91E882E861845C0853713
:103B500031F4232D2F7EB22E2AE030E025C0932DA4
:103B6000997FB92E8F36C1F018F4883579F0B5C039
:103B7000803719F0883721F0B0C0E92FE061BE2E00
:103B8000B4FE0DC0FB2DF460BF2E09C034FE0AC088
:103B9000292F2660B22E06C028E030E005C020E1C3
:103BA00030E002C020E132E0F801B7FE07C06081DA
:103BB0007181828193810C5F1F4F06C0608171818A
:103BC00080E090E00E5F1F4FA3010E94D91E882E57
:103BD0008618FB2DFF773F2E36FE0DC0232D2E7F3E
:103BE000A22E891458F434FE0BC032FC09C0832D78
:103BF0008E7EA82E05C0B82CA32C03C0B82C01C003
:103C0000B92CA4FE0FC0FE01E80DF11D80818033A8
:103C100021F49A2D997EA92E09C0A2FE06C0B39464
:103C2000B39404C08A2D867809F0B394A3FC11C024
:103C3000A0FE06C0B21488F4280C922C9B180EC06B
:103C4000B21460F4B60180E290E00E949D1EB3942D
:103C5000F7CFB21418F42B1802C0982C212CA4FE14
:103C600010C0B60180E390E00E949D1EA2FE17C026
:103C7000A1FC03C088E790E002C088E590E0B601AF
:103C80000CC08A2D867859F0A1FE02C08BE201C0DB
:103C900080E2A7FC8DE2B60190E00E949D1E89148F
:103CA00038F4B60180E390E00E949D1E9A94F7CF0D
:103CB0008A94F301E80DF11D8081B60190E00E9425
:103CC0009D1E8110F5CF222009F442CEB60180E27C
:103CD00090E00E949D1E2A94F6CFF601868197817E
:103CE00002C08FEF9FEF2B96E2E10C94911FFC0135
:103CF0000590615070400110D8F7809590958E0F17
:103D00009F1F0895FC016150704001900110D8F789
:103D1000809590958E0F9F1F0895DC01FC01672F01
:103D200071917723E1F7329704C07C916D93708392
:103D30006291AE17BF07C8F308950F931F93CF93F7
:103D4000DF93FB01238121FD03C08FEF9FEF2CC088
:103D500022FF16C0468157812481358142175307BF
:103D600044F4A081B1819D012F5F3F4F31832083B7
:103D70008C93268137812F5F3F4F3783268314C072
:103D80008B01EC01FB010084F185E02D0995892B65
:103D9000E1F6D80116968D919C911797019617968A
:103DA0009C938E931697CE01DF91CF911F910F9127
:103DB0000895FA01AA27283051F1203181F1E894C1
:103DC0006F936E7F6E5F7F4F8F4F9F4FAF4FB1E00E
:103DD0003ED0B4E03CD0670F781F891F9A1FA11D09
:103DE000680F791F8A1F911DA11D6A0F711D811D0A
:103DF000911DA11D20D009F468943F912AE0269FCF
:103E000011243019305D3193DEF6CF010895462F2D
:103E10004770405D4193B3E00FD0C9F7F6CF462F0E
:103E20004F70405D4A3318F0495D31FD4052419377
:103E300002D0A9F7EACFB4E0A69597958795779534
:103E40006795BA95C9F700976105710508959B01BB
:103E5000AC010A2E06945795479537952795BA9544
:103E6000C9F7620F731F841F951FA01D0895E19964
:103E7000FECF9FBB8EBBE09A99278DB30895A6E134
:103E8000B0E044E050E00C94671FA8E1B0E042E0ED
:103E900050E00C94671F262FE199FECF9FBB8EBB8D
:103EA0002DBB0FB6F894E29AE19A0FBE01960895E1
:103EB000242F0E944C1F252F0E944C1F0C94601F22
:103EC0000E944B1F272F0C944C1FDC01CB01FC01DF
:103ED000E199FECF06C0FFBBEEBBE09A31960DB272
:103EE0000D9241505040B8F708952F923F924F9253
:103EF0005F926F927F928F929F92AF92BF92CF927A
:103F0000DF92EF92FF920F931F93CF93DF93CDB782
:103F1000DEB7CA1BDB0B0FB6F894DEBF0FBECDBFFA
:103F200009942A88398848885F846E847D848C84CB
:103F30009B84AA84B984C884DF80EE80FD800C81D4
:103F40001B81AA81B981CE0FD11D0FB6F894DEBFB7
:0C3F50000FBECDBFED010895F894FFCF27
:103F5C00980100008F015612AB0119149D01B11389
:103F6C0089017C137F01411600000000390100001B
:103F7C00D8013105D3012E05CE012B05C901280529
:103F8C00C4012505BF012205BA011F050000000070
:103F9C0039010000330135112001DA1017018A10A4
:103FAC00000000007F0100006301BD0F5601400BB3
:103FBC0045013B16390119160000000045010000AF
:103FCC00F000BA0FE600B70FDB00B40FDD01A0154F
:103FDC00000000001F0C63173B3BF204F104F004DB
:103FEC00F304F404F5043A00253032752E253032F2
:103FFC00752E253032752020253032753A25303219
:10400C00753A253032750025303264002564002065
:10401C00253032752E253032752E253032752025FF
:10402C003032753A253032753A25303275002530EC
:06403C003464002575004C
:00000001FF
