:100000000C9451010C94680C0C946E010C946E01CC
:100010000C946E010C946E010C946E010C94481BB0
:100020000C946E010C946E010C946E010C946E0194
:100030000C946E010C94B51B0C946E010C946E0123
:100040000C946E010C946E010C946E010C946E0174
:100050000C946E01EDE5E4EEF1F2F3EFEDEE00CD80
:10006000CEC2CEC520C7CDC0D7C5CDC8C500CFC074
:10007000D0CECBDC00ECF100EEF2EAEB2ECCD2C716
:100080003A00E2EAEB2ECCD2C73A003CEFF3F1F2B1
:10009000EE3E00EEE1EDE0F0F3E6E5EDEE20C1C46A
:1000A000C73A00D1E1F0EEF1E8F2FC3F20E4E02DA8
:1000B00022C2C2CEC42200EDE5F200EDE5F220F14D
:1000C000E2FFE7E800EEF8E8E1EAE000CDC5D22083
:1000D000C3CED2CEC2CDCED1D2C800C2D0C5CCDF25
:1000E00020D3D0CEC200C2D0C5CCDF20CCD2C70036
:1000F000C0C4D0C5D1004E4F4E45004556454E00B8
:100100004F444400D7C5D2CDCED1D2DC00D1CACE27
:10011000D0CED1D2DC00415343494900525455005E
:10012000D0C5C6C8CC00D1C2DFC7DC20525334389A
:100130003500CFD0CEC3D0C0CCCCC8D0CEC2C0CD7D
:10014000C8C500D1CAC0CDC8D0CEC2C0CDC8C500B8
:10015000C4C0D2C02FC2D0C5CCDF00D0C5CBC50033
:10016000C4C2D500C2CEC400C1C4C700CDC0D1D264
:10017000D0CEC9CAC000C0D0D5C8C200CDC020D121
:10018000C2DFC7C800CCC5CDDE00CDC5C8D1CFD039
:10019000C0C2CDCED1D2DC00C0C2C0D0C8DF00D03A
:1001A000C0C1CED2C03100D3D0CEC200CCD2C700A5
:1001B000CFCEC4CEC6C4C8D2C53A00C2DBD5343A0D
:1001C00000C2DBD5333A00C2DBD5323A00C2DBD500
:1001D000313A00C2DBD5CEC4DB00D0C5C6C8CC20C6
:1001E000CFCEC4D2C2C5D0C6C4C5CDC8DF00C2DB25
:1001F000CACB00C2CACB00C4C2D53300C4C2D532F8
:1002000000C4C2D53100C2CEC43400C2CEC4330053
:10021000C2CEC43200C2CEC43100C2D5CEC4DB00CF
:10022000CBCEC3C8CAC020D0C0C1CED2DB00CED88E
:10023000C8C1CAC020E0E4F0E5F120E7E0EDFFF23C
:1002400000D1D2C0D0CEC520C7CDC0D7C5CDC8C57E
:1002500000CDCECCC5D020C1C4C700CDCEC2CEC546
:100260000041A042A1E045A3A4A5A64BA74D484F3D
:10027000A8504354A9AA58E1ABACE2ADAE62AFB00E
:10028000B161B2B3B4E365B6B7B8B9BABBBCBD6FC0
:10029000BE7063BF79E478E5C0C1E6C2C3C4C5C619
:1002A000C70011241FBECFE5D8E0DEBFCDBF11E0EF
:1002B000A0E6B0E0E4EBF3E402C005900D92A634B2
:1002C000B107D9F725E0A6E4B1E001C01D92AD3C2D
:1002D000B207E1F70E9428190C94D8210C94000071
:1002E00028EE33E03093DF042093DE0429E0829F80
:1002F000C0011124FC01E559FE4F808182FD06C03A
:100300008091DE049091DF04892BB9F78091DE049F
:100310009091DF04892B31F080914701811102C057
:1003200081E008958FEF0895AC9A8FE99FE00197DF
:10033000F1F700C00000AC988FE99FE00197F1F75A
:1003400000C00000089588E480B986B7846486BF41
:100350000898089528EE33E030937B0520937A05C2
:1003600094EA96BF06B607FC08C020917A05309142
:100370007B05232BB9F781E02DC091B1987F983090
:1003800011F082E027C08E7F83B984E886BF06B66D
:1003900007FC07C080917A0590917B05892BB9F7FE
:1003A000EACF81B1887F883121F4962FFB0124E8C0
:1003B00002C083E00FC08E2F891B8417A8F481919F
:1003C00083B926BF06B607FE08C081B1887F883290
:1003D00091F384E080934A0107C060917A0570919F
:1003E0007B05672B79F7C7CF84E986BF8FE891E05B
:1003F0000197F1F700C0000080914A010895982FFD
:1004000028EE33E030937B0520937A0584EA86BF9B
:1004100006B607FC08C020917A0530917B05232B96
:10042000B9F781E034C081B1887F883011F082E073
:100430002EC0916093B984E886BF06B607FC07C05A
:1004400080917A0590917B05892BB9F7EACF91B11C
:10045000987F903431F420E050E041505109E4ECB1
:1004600008C083E014C033B1DB01A80FB91F3C936F
:100470002F5F822F90E0841795079CF4E6BF06B6A5
:1004800007FE08C031B1387F303569F384E08093CE
:100490004A011CC0A0917A05B0917B05AB2B79F77E
:1004A000C0CF24E826BF06B607FC07C020917A0516
:1004B00030917B05232BB9F7B4CF21B1287F2835A4
:1004C00029F723B1FB01E80FF91F208384ED86BFD4
:1004D0008FE891E00197F1F700C0000080914A0198
:1004E0000895CF93DF93CDB7DEB72A970FB6F89470
:1004F000DEBF0FBECDBFFC01198285812AE0622FCD
:100500000E94CE1D392F40E1849FC0011124832B0E
:100510008F778A8384810E94CE1D392F40E1849F8A
:10052000C0011124832B8B8383810E94CE1D392F20
:1005300040E1849FC0011124832B8C831D82828122
:100540000E94CE1D392F40E1849FC0011124832BCE
:100550008E8381810E94CE1D392F40E1849FC0018E
:100560001124832B8F8380810E94CE1D292F30E19F
:10057000839FC0011124822B888719868AEA8A8783
:100580004AE0BE016F5F7F4F80ED0E94AA0191E0BB
:10059000811101C090E0892F81952A960FB6F894B9
:1005A000DEBF0FBECDBFDF91CF910895EF92FF92D6
:1005B0000F931F93CF93DF93CDB7DEB728970FB676
:1005C000F894DEBF0FBECDBF8C01CE0101967C0139
:1005D00087E0F70111928A95E9F7188641E0BE019C
:1005E000685F7F4F80ED0E94AA0147E0B70180ED70
:1005F0000E94FF01811144C08981982F92959F70BC
:100600008F70FAE09F9F800D1124F80185838A8105
:10061000982F92959F708F70FAE09F9F800D112404
:10062000F80184838B81982F92959F708F70FAE0E8
:100630009F9F800D1124F80183838D81982F9295BF
:100640009F708F70FAE09F9F800D1124F8018283C4
:100650008E81982F92959F708F70FAE09F9F800DEA
:100660001124F80181838F81982F92959F708F704C
:10067000FAE09F9F800D1124F801808380E001C083
:100680008FEF28960FB6F894DEBF0FBECDBFDF9177
:10069000CF911F910F91FF90EF900895CF93DF932B
:1006A00000D0CDB7DEB71A8288E0898341E0BE0171
:1006B0006F5F7F4F80ED0E94AA0141E0BE016E5F37
:1006C0007F4F80ED0E94FF01811107C081E09A8178
:1006D0009A3A09F480E0819501C08FEF0F900F9056
:1006E000DF91CF910895CF92DF92EF92FF920F9317
:1006F0001F93CF93C82F88B3C6FB662760F970E0BD
:10070000660F771F9C2F991F9927991F892B682B9C
:10071000C5FB442740F950E0440F551F440F551FB7
:10072000462BC4FB222720F930E053E0220F331F71
:100730005A95E1F7242B28BB0E94940188B3807F4F
:1007400088BBC3FB882780F9C0FBCC24C0F8D12C20
:1007500063E0CC0CDD1C6A95E1F7C82AC2FBEE24ED
:10076000E0F8F12CEE0CFF1CEC28C1FB002700F98F
:1007700010E0000F111F000F111F0E2908BB0E946F
:10078000940185B3837E85BB88B3807F88BBCF917E
:100790001F910F91FF90EF90DF90CF9008952FEF72
:1007A00089EF90E0215080409040E1F700C00000C8
:1007B00088B3807F88BB87B38F6087BB85B3837E18
:1007C00085BB84B38C6184BB88B38C6088BB0E947A
:1007D00094018FE19EE40197F1F700C000000E94B0
:1007E00094018FE19EE40197F1F700C000000E94A0
:1007F0009401C3980E9494018FE39FE10197F1F760
:1008000000C0000088E20E94730388E00E94730326
:1008100081E00E94730386E00E94730388B3807FA7
:1008200088BB85B3837E85BB08958EE00C947303EB
:100830008FE00C9473038CE00C9473030C941B04F2
:1008400081E00E94730310924901109248018FE1E8
:100850009EE40197F1F700C00000089580934901DC
:1008600060934801613039F048F0623031F0633014
:1008700029F48C5A03C0805C01C08C5E80680C94A3
:100880007303CF92DF92EF92FF920F931F93CF9358
:10089000DF93C82F803C28F0D0E0FE01EF55FE4FDB
:1008A000C491AA9A88B3C6FB662760F970E0660F08
:1008B000771F9C2F991F9927991F892B682BC5FBA0
:1008C000442740F950E0440F551F440F551F462B55
:1008D000C4FB222720F930E053E0220F331F5A9542
:1008E000E1F7242B28BB0E94940188B3807F88BB4A
:1008F00088B3C3FB992790F9892BC0FBCC24C0F89F
:10090000D12C63E0CC0CDD1C6A95E1F7C82AC2FB50
:10091000EE24E0F8F12CEE0CFF1CEC28C1FB0027C4
:1009200000F910E0000F111F000F111F0E2908BB66
:100930000E94940185B3837E85BB88B3807F88BB8A
:10094000809149018F5F843158F480934901DF9190
:10095000CF911F910F91FF90EF90DF90CF9008956E
:1009600010924901809148018F5F80934801813046
:1009700039F050F0823031F0833031F484ED05C02D
:1009800080EC03C084E901C080E8DF91CF911F9122
:100990000F91FF90EF90DF90CF900C9473030F9323
:1009A0001F93CF93DF93D62F8C01C0E0CD1781F03A
:1009B000F80181918F01811107C080E20E944104FA
:1009C000CF5FCD17D0F304C00E944104CF5FEECFBC
:1009D000DF91CF911F910F910895CF92DF92EF9207
:1009E000FF920F931F93CF93DF93CDB7DEB76B9733
:1009F0000FB6F894DEBF0FBECDBF7C0162E080E091
:100A00000E942E0464E671E0CE0101960E942F1E22
:100A100066EF70E0CE0101960E943F1EF7018081D3
:100A20008F7039F467EB70E0CE0101960E94241EAE
:100A30002DC080E090E0CC24C394D12CF70130810C
:100A4000A601082E02C0440F551F0A94E2F7232F77
:100A500030E024233523082E02C0359527950A94CB
:100A6000E2F78C010F5F1F4F232B61F04AE0BE01BC
:100A70006B5E7F4FC8010E944A1EBC01CE010196E9
:100A80000E943F1EC80104301105C1F664E1CE0189
:100A900001960E94CF0462E089E00E942E0460E685
:100AA00071E0CE0101960E942F1E66EF70E0CE012C
:100AB00001960E943F1EF7018081807F39F467EB29
:100AC00070E0CE0101960E94241E2BC004E010E0CD
:100AD000CC24C394D12CF701808190E09601002EA4
:100AE00002C0220F331F0A94E2F782239323002EC1
:100AF00002C0959587950A94E2F7892B69F04AE040
:100B0000BE016B5E7F4FC80103970E944A1EBC0165
:100B1000CE0101960E943F1E0F5F1F4F0830110546
:100B2000D1F664E1CE0101960E94CF046B960FB618
:100B3000F894DEBF0FBECDBFDF91CF911F910F9113
:100B4000FF90EF90DF90CF900895EF92FF920F9378
:100B50001F93CF93DF93CDB7DEB76B970FB6F894A3
:100B6000DEBF0FBECDBF7C018B0162E080E00E9442
:100B70002E0462E870E0CE0101960E942F1E8FEFD6
:100B8000E816F80619F467EB70E00EC04AE0BE0103
:100B90006B5E7F4FC7010E944A1EBC01CE010196C9
:100BA0000E943F1E65E770E0CE0101960E94241E60
:100BB00064E1CE0101960E94CF0463E080E00E94D0
:100BC0002E0468E770E0CE0101960E942F1E0F3FB1
:100BD0008FEF180719F467EB70E00EC04AE0BE0112
:100BE0006B5E7F4FC8010E944A1EBC01CE01019678
:100BF0000E943F1E65E770E0CE0101960E94241E10
:100C000064E1CE0101960E94CF046B960FB6F89472
:100C1000DEBF0FBECDBFDF91CF911F910F91FF902F
:100C2000EF9008950F931F93CF93DF93CDB7DEB767
:100C300064970FB6F894DEBF0FBECDBFFC0155819F
:100C4000448133812281918180811F925F931F9221
:100C50004F931F923F931F922F931F929F931F9228
:100C60008F9388EF90E09F938F938E010F5F1F4FBC
:100C70001F930F930E94A01E61E080E00E942E044B
:100C800064E1C8010E94CF040FB6F894DEBF0FBE26
:100C9000CDBF64960FB6F894DEBF0FBECDBFDF9117
:100CA000CF911F910F9108950F931F93CF93DF93CF
:100CB000D62FC0E0CD17A9F0FC0124918C010F5F65
:100CC0001F4F211107C080E20E944104CF5FCD1762
:100CD000D0F307C0FC0184910E944104CF5FC8019A
:100CE000E9CFDF91CF911F910F91089562E080E0ED
:100CF0000E942E0464E18BEB90E00C945406CF9399
:100D0000DF93EC010E942004CE010E94361E682F62
:100D1000CE010E9454068AE3DF91CF910C944104E6
:100D200087B3806B87BB88B3806B88BB8EE58DB93A
:100D300008958FB988EE93E09093E1048093E004E6
:100D400077990BC08091E0049091E104892BC1F761
:100D500086E0809347018FEF08958FB10895C4987E
:100D600080EA0E94990680E00E949906C49A08953C
:100D7000CF93C82FC49883E00E9499068C2F0E94BD
:100D8000990680E00E949906C49ACF9108951F9316
:100D9000CF93DF93182FD62FC42FC49885E00E94DD
:100DA0009906812F0E9499068D2F0E9499068C2FFB
:100DB0000E949906C49ADF91CF911F910895CF9315
:100DC000DF93D82FC62FC49882E00E9499068D2FFA
:100DD0000E9499068C2F0E949906C49ADF91CF91A8
:100DE000089588EE93E09093DF048093DE04809171
:100DF0005A0181110BC08091DE049091DF04892B90
:100E0000B1F782E0809347018FEF0895F8948091C5
:100E10005A01815080935A01789480916001909199
:100E200060019F5F909360019A3011F4109260010D
:100E300008959F92AF92BF92CF92DF92EF92FF926E
:100E40000F931F93CF93DF93D82FC92FB62E0E94F5
:100E5000F1069DE0899FF0011124E850FB4FC0800E
:100E6000D180E280F3800D2F1C2F9DE0A92E2DE074
:100E7000922EB11003C08D2F9C2F41C040E0A89E40
:100E8000F0011124E850FB4FBF016C5F7F4FDB0185
:100E90008C91242F30E0481760F4CF01820F931F0C
:100EA000DC0115968C91200F311FD9018C934F5F77
:100EB000EECF200F311FD90111978C918823D9F2E1
:100EC0008481080F111D0E94F10690914701911134
:100ED00014C0989EF0011124E850FB4F40815181CD
:100EE00062817381BA94C416D506E606F70609F244
:100EF00083E08093470180E002C080E090E0DF91D2
:100F0000CF911F910F91FF90EF90DF90CF90BF9006
:100F1000AF909F900895AF92BF92CF92DF92EF92E1
:100F2000FF920F931F93CF93DF936B017C01142FDC
:100F300059010E94AF06DC2DD295DD0FD07E902F97
:100F40009870D92BB701A601EBE176956795579577
:100F50004795EA95D1F74370D42B86FF0BC084FFE9
:100F60000BC082FD02C0C1E008C085E0809347014C
:100F70008FEF58C0C3E001C0C2E0F894C49882E08B
:100F80000E9499068C2F8295807F805E0E94990630
:100F9000802F83700E949906D701C60123E0B69581
:100FA000A795979587952A95D1F70E9499068D2F39
:100FB0000E949906D701C60133E1B695A79597958A
:100FC00087953A95D1F70E949906D701C6014BE063
:100FD000B695A795979587954A95D1F70E9499065A
:100FE000812F0E9499067501D0E0D11749F0D830C1
:100FF00039F0F70181917F010E949906DF5FF5CFFB
:10100000C49A02FF0DC0C4982FEF2C0F81E090E02E
:1010100001C0880F2A95EAF780680E949906C49A51
:1010200078948C2FDF91CF911F910F91FF90EF90CB
:10103000DF90CF90BF90AF9008958F929F92AF9224
:10104000BF92EF92FF920F931F93CF93DF937C0198
:10105000C62F49015A01162F169516951695D0E000
:10106000D11791F00FEF970148E0C501B4010E943C
:101070008B0780914701882311F08FEF13C088E020
:10108000E80EF11CDF5FECCF4C2F477031F00FEF13
:101090009701C501B4010E948B078091470181111E
:1010A000ECCF81E0DF91CF911F910F91FF90EF90F6
:1010B000BF90AF909F908F9008952F923F924F9244
:1010C0005F926F927F928F929F92AF92BF92CF92D8
:1010D000DF92EF92FF920F931F93CF93DF9300D095
:1010E00000D01F92CDB7DEB71C018B015D834C830E
:1010F00079010E94AF0680FD07C00E94AF0681FD06
:1011000005C080E090E091C080E001C081E0C4981B
:1011100090E0880F991F880F991F80690E94990697
:1011200080E00E949906882E912CA12CB12C80E0A1
:101130000E9499068983482E512C612C712C80E0E5
:101140000E9499068A8380E00E9499068B8380E042
:101150000E949906EC81FD8180831D821C82CC80D7
:10116000DD80C00ED11E80E00E949906F6018083CA
:101170008C819D8101969D838C83089781F7C49A09
:10118000998193FF0BC0EA814E2F50E060E070E040
:10119000FB818F2F90E0A0E0B0E006C080E090E0FF
:1011A000DC0140E050E0BA01F101108211821282AC
:1011B000138229812370A22B762F652F542F442769
:1011C000482B592B6A2B7B2BABE0440F551F661F16
:1011D000771FAA95D1F7B5E0769467945794479412
:1011E000BA95D1F783E0880C991CAA1CBB1C8A9580
:1011F000D1F784289528A628B728482959296A298B
:101200007B294083518362837383F70110828DE2CF
:101210000E94B806807CF7019081892B808340E092
:1012200060EC8DE20E94C706C8010F900F900F90EE
:101230000F900F90DF91CF911F910F91FF90EF9042
:10124000DF90CF90BF90AF909F908F907F906F90E6
:101250005F904F903F902F900895CF93DF931F9210
:10126000CDB7DEB7198240915B0160915B0190912F
:101270005B018DE0849FA001112444505B4F869F49
:10128000B001112463507B4F899FC00111249E013E
:101290002F5F3F4F88509B4F0E945D0880915B01FC
:1012A0008F5F80935B018A3011F410925B01809113
:1012B0005A018F5F80935A018A3019F410925A01B3
:1012C00003C08981807C29F085E0809347018FEFFE
:1012D00001C081E00F90DF91CF910895CF92DF920E
:1012E000EF92FF92CF93DF93D82F6A017B01DB014E
:1012F000CA012BE1B695A795979587952A95D1F7C1
:10130000C82FC370842F8295880F807EC82BC49805
:1013100082E00E9499068D2F0E949906D701C6018E
:1013200033E0B695A795979587953A95D1F70E94A2
:1013300099068C2F0E949906D701C60143E1B69504
:10134000A795979587954A95D1F70E949906D70159
:10135000C6015BE0B695A795979587955A95D1F705
:101360000E949906C49ADF91CF91FF90EF90DF9091
:10137000CF900895CF92DF92EF92FF92CF93DF93B9
:10138000D82F6A017B01C42FC295CC0FC07E287074
:10139000C22B8BE176956795579547958A95D1F73E
:1013A0004370C42BC49882E00E9499068D2F0E943E
:1013B0009906D701C60123E0B695A795979587951D
:1013C0002A95D1F70E9499068C2F0E949906D70181
:1013D000C60133E1B695A795979587953A95D1F7CC
:1013E0000E949906D701C6014BE0B695A79597953F
:1013F00087954A95D1F70E949906C49ADF91CF91BB
:10140000FF90EF90DF90CF9008958A98929A85B7D9
:101410008C7F85BF8BB780648BBF08951FBC8AE02B
:101420008EBD1DBC1CBC17BC16BC87E08BBD80EDFF
:101430008ABD19BC18BC89B7806189BF0895CF9354
:10144000C82F0E949006BC9AC49AC49880EC0E944F
:101450009906C49A40E860E889E20E94C70665E000
:101460008AE20E94DF0669E889E20E94DF0662E004
:1014700088E20E94DF0643E063E08BE20E94C70639
:101480004C2F6FEF8FE00E94C7068EE00E94B806D7
:10149000807EC81302C0C1E001C0CFEF44E064E029
:1014A00080E60E94C7068C2FCF910895CF92DF92DD
:1014B000EF92FF92CF93F89484B38F7184BB85B37E
:1014C000806E85BB81B3877C81BB82B3886382BB1E
:1014D000D49ADC98D59ADD9A8AB38F608ABB8BB395
:1014E0008F608BBB0E94CF030E941B040E942004CC
:1014F0000E94A30182EF94E00E94D6020E944E0354
:1015000087FF03C082E080934B0182E090E00E945D
:101510006B216B017C0181E090E00E946321C82F68
:1015200080E090E00E946321A70196016C2F0E9449
:101530000D1C579A0E94050A0E940E0A78942FEFFC
:1015400089E698E1215080409040E1F700C000001A
:1015500080E00E941F0A18161CF083E080934B0164
:10156000CF91FF90EF90DF90CF9008950F93CF939E
:10157000DF93CDB7DEB727970FB6F894DEBF0FBE67
:10158000CDBF81E090E039E022E0389FF001399F43
:10159000F00D1124ED59FE4F2087019683369105F9
:1015A000A1F781E089838091F4048A838091F30418
:1015B0008B838091F2048C838091F5048D838091DC
:1015C000F6048E838091F7048F8307EF9E012F5FCF
:1015D0003F4F47E060E070E0CB010E948B07279609
:1015E0000FB6F894DEBF0FBECDBFDF91CF910F9144
:1015F0000895EF92FF920F931F93CF93DF9300D044
:1016000000D0CDB7DEB780914D01806180934D0150
:1016100001E010E099E0F92E60E0C801875F9F4F7C
:101620000E947721F09EF001F19EF00D1124ED59FA
:10163000FE4F17820F5F1F4F0336110569F7E199BF
:10164000FECF0E94B60A2FEF81EE94E02150804039
:101650009040E1F700C000000E9420046CE083E4A9
:1016600091E00E94540618E08EE20E9441042FEFA0
:1016700089E698E1215080409040E1F700C00000E9
:10168000115091F710924D0101E010E0F12C89E02A
:10169000E82EE09EF001E19EF00D1124ED59FE4F81
:1016A0006781601306C0C801875F9F4F0E94772142
:1016B000F3940F5F1F4F0336110559F762E080E086
:1016C0000E942E0460E183E990E00E9454064AE003
:1016D000BE016F5F7F4F8F2D90E00E944A1E63E036
:1016E0000E94CF040E94B60A2FEF87EA91E62150AC
:1016F00080409040E1F700C0000080E395E79093C0
:1017000062018093610110924B010F900F900F9036
:101710000F90DF91CF911F910F91FF90EF9008955F
:101720000F931F93CF93DF9300D0CDB7DEB7162F63
:10173000813011F085E001C084E0898389E0189F41
:10174000F0011124ED59FE4F82E080874A83612F1A
:1017500070E080E090E007EF9E012F5F3F4F42E096
:101760000E948B07812F0E9470010F900F90DF91D4
:10177000CF911F910F9108950F931F93CF93DF93F4
:1017800000D000D000D0CDB7DEB7182F86E09E0184
:101790002F5F3F4FF901982F11929A95E9F78983AE
:1017A0006115710561F489E0189FF0011124ED596C
:1017B000FE4F82E08087672B79F441E00EC0F9018B
:1017C00080E090E0DB01A80FB91F4C914193019696
:1017D00086309105B9F7E7CF46E0812F90E0A0E091
:1017E000B0E007EFBC01CD010E948B07112321F06F
:1017F000812F0E94700101C081E026960FB6F894F7
:10180000DEBF0FBECDBFDF91CF911F910F91089525
:101810000F931F93CF93DF9300D000D000D0CDB7AC
:10182000DEB7182F86E09E012F5F3F4FF901982FFA
:1018300011929A95E9F7898389E0189FF0011124A4
:10184000ED59FE4F82E08087612F70E080E090E0EC
:1018500007EF42E00E948B07112321F0812F0E94A5
:10186000700101C081E026960FB6F894DEBF0FBE6E
:10187000CDBFDF91CF911F910F9108950F931F93CB
:10188000CF93DF931F92CDB7DEB7182F698389E01E
:10189000189FF0011124ED59FE4F82E08087612FDF
:1018A00070E080E090E007EF9E012F5F3F4F41E046
:1018B0000E948B078981823021F0812F0E94700164
:1018C00001C081E00F90DF91CF911F910F9108959A
:1018D0001F920F920FB60F9211248F929F92AF9288
:1018E000BF92CF92DF92EF92FF922F933F934F934D
:1018F0005F936F937F938F939F93AF93BF93EF9378
:10190000FF93CF93DF93CDB7DEB72E97DEBFCDBF6A
:101910009E01225F3F4FAE014B5F5F4FBE016A5F8A
:101920007F4FCE0101960E945D0880914D01898014
:101930009A80AB80BC8084FF11C0D501C4018F7731
:101940009927AA27BB2729E0289FF001299FF00D9E
:101950001124ED59FE4F882D8F778783750164011F
:10196000E894C7F8DD24EE24FF24C601875F9F4F6B
:101970000E94632190E0A0E0B0E0C816D906EA0614
:10198000FB0621F084E080934B0140C089E08C9DF0
:10199000F0018D9DF00D1124ED59FE4F808584607E
:1019A000808792FE03C080858062808791FC0BC097
:1019B00089E08C9DF0018D9DF00D1124ED59FE4FB5
:1019C00080858160808790FE0BC089E08C9DF0014E
:1019D0008D9DF00D1124ED59FE4F80858D7F808700
:1019E0004D81FE01369680E090E059E05C9D9001CB
:1019F0005D9D300D11242D593E4F841738F45191BF
:101A0000D901A80FB91F5C930196F7CF2E960FB698
:101A1000F894DEBF0FBECDBFDF91CF91FF91EF9164
:101A2000BF91AF919F918F917F916F915F914F91F6
:101A30003F912F91FF90EF90DF90CF90BF90AF90AC
:101A40009F908F900F900FBE0F901F9018951F932F
:101A5000CF93DF93182FCCE6D0E0CE010E94632114
:101A6000811739F0219680E0CF3CD807B1F781E0AB
:101A700001C080E0DF91CF911F91089520B383B31F
:101A800028732695807E282B2C3F19F4209346013D
:101A900032C080914601281771F0DC9A8AE090E00C
:101AA000EFE9FFE03197F1F700C000000197C1F7BF
:101AB000DC982093460180E395E790936201809340
:101AC000610182E090E061E070E030E0AB01082E5F
:101AD00002C0440F551F0A94E2F742235323082EF5
:101AE00002C0559547950A94E2F7452B29F00196D7
:101AF0008830910559F78FEF0895CF930E943E0DDE
:101B0000C82F8F3F41F48091610190916201892B30
:101B1000A9F78FEF05C00E943E0D8F3FE1F78C2F94
:101B2000CF910895CF92DF92EF92FF921F93CF93C0
:101B3000DF9300D0CDB7DEB781E592E00E947F064B
:101B400010E087E1E82E81E0F82ECE0101966C01CD
:101B500062E080E00E942E041F921F93FF92EF929A
:101B6000DF92CF920E94A01E64E0C6010E94CF04C3
:101B70000E947D0D0F900F900F900F900F900F907F
:101B80008530C9F068F4823019F7812F0F900F90DB
:101B9000DF91CF911F91FF90EF90DF90CF9008954C
:101BA000863029F08F3FA1F60C940000D1CF11238D
:101BB00031F01150CDCF133621F01F5FC9CF13E69E
:101BC000C7CF10E0C5CF4F925F926F927F928F92F6
:101BD0009F92AF92BF92CF92DF92EF92FF920F93BC
:101BE0001F93CF93DF9300D000D000D0CDB7DEB7E6
:101BF000482E0E94F90A01E010E0512CF12C49E036
:101C0000E42EC801875F9F4F0E94632180130FC09D
:101C1000E09EF001E19EF00D1124ED59FE4F9085FC
:101C200092FF05C0F39421E0F21201C0582E0F5F1D
:101C30001F4F0336110529F7FF2009F449C131E090
:101C40003F151CF40E94920D582E411013C05110E4
:101C500013C062E080E00E942E0464E184E590E01D
:101C60000E9454068FEF97EAE1E681509040E040F1
:101C7000E1F71BC05520E1F060E070E0852D0E9487
:101C8000BC0B87FD09C029E0529EF0011124ED59DB
:101C9000FE4F8081863061F00E9476063FEF87EA32
:101CA00091E6315080409040E1F700C0000010C143
:101CB000E1E04E1601F14E1688F0F2E04F1208C135
:101CC00089E0589EF0011124ED59FE4F8481E58092
:101CD000F12CF82A8FEF838382831AC029E0529E69
:101CE000F0011124ED59FE4FE180F12C33E6832EF3
:101CF000912C81E012C039E0539EF0011124ED597E
:101D0000FE4F8281E380F12CF82A8FEF8583848354
:101D100020E3822E25E7922E8AE000E010E0FE010B
:101D200031966F019CE1692E91E0792EA82EB12C9D
:101D30000E942004E114F10481F160E080E00E943F
:101D40002E0460E181E492E00E9454068AE30E943E
:101D50004104FF92EF927F926F92DF92CF920E94A6
:101D6000A01E61E080E00E942E04F6010190002098
:101D7000E9F73197BF016C197D09C6010E94CF04B4
:101D80000F900F900F900F900F900F90442029F01C
:101D900062E085E790E00E94540662E080E00E94E5
:101DA0002E046EE08FE590E00E9454068AE30E94C4
:101DB00041041F930F937F926F92DF92CF920E9404
:101DC000A01E63E080E00E942E04F6010190002036
:101DD000E9F73197BF016C197D09C6010E94CF0454
:101DE0000F900F900F900F900F900F90442029F0BC
:101DF00062E085E790E00E9454060E947D0D8530E8
:101E0000E1F030F4823001F1833009F461C090CF09
:101E1000863031F08F3F09F08BCF0C94000088CFD3
:101E200081E090E0442011F080E090E0801791077D
:101E30000CF07ECF0A191B097BCF081519050CF091
:101E400077CF0A0D1B1D74CFC52CD12CF9E05F9EF6
:101E5000C00111249C012D593E4F790186E0F90102
:101E60008083F1E04F16F9F04F1638F022E042126D
:101E70002FC0F7011483058319C0C801875F9F4FE6
:101E80000E946321882361F00E94200460E080E0CA
:101E90000E942E0464E18EE292E00E945406FECE7F
:101EA000F701018303C0F9011283038389E08C9D4C
:101EB000B0018D9D700D11246D597E4F852D0E94AE
:101EC000BC0B87FF03C0012B09F0E6CE0E94F90A84
:101ED00026960FB6F894DEBF0FBECDBFDF91CF912F
:101EE0001F910F91FF90EF90DF90CF90BF90AF9038
:101EF0009F908F907F906F905F904F90089582E0B9
:101F00000C94E30D81E00C94E30D80E00C94E30D60
:101F1000CF92DF92EF92FF920F931F93CF93DF93B5
:101F2000CDB7DEB7A6970FB6F894DEBF0FBECDBF14
:101F300086E0E4EEF0E0DE01919601900D928A9544
:101F4000E1F78CE0EAEEF0E0DE01559601900D92AB
:101F50008A95E1F780E591E00E947F0682EF94E0A8
:101F60000E94D60287FF03C082E080934B0110E0FD
:101F70005FE1C52E51E0D52ECE0101967C01809106
:101F8000F7041F928F938091F6041F928F93809194
:101F9000F5041F928F938091F2041F928F9380918A
:101FA000F3041F928F938091F4041F928F93DF921A
:101FB000CF92FF92EF920E94A01E63E080E00E9409
:101FC0002E0462E1C7010E94CF0463E0812F880FD5
:101FD000810F0E942E0484E80E94410401E00FB6A4
:101FE000F894DEBF0FBECDBF123008F000E00E94B3
:101FF0007D0D8530B1F030F4823009F443C0843077
:1020000059F044C0863029F1873009F03FC01530BF
:1020100008F0B5CF1F5FB3CF112309F4B0CF115033
:10202000AECF212F30E0F901EE0FFF1FEE0DFF1DA7
:102030000488F589E02D8081A1E2B0E0AC0FBD1FDE
:10204000A20FB31F9C91891710F48F5F19C00083F2
:1020500096CF812F90E0FC01EE0FFF1FEE0DFF1DCC
:102060000488F589E02D2081021718F4215020837F
:1020700086CFA1E2B0E0AC0FBD1FA80FB91F8C91B5
:1020800080837DCF82EF94E00E947102A6960FB606
:10209000F894DEBF0FBECDBFDF91CF911F910F919E
:1020A000FF90EF90DF90CF9008950F931F93CF9301
:1020B00084E091E00E947F0681E090E00E9463212D
:1020C000C82F00E010E060E08AE00E942E04C032D9
:1020D00019F1C03361F0C1110DC006EF10E0C0E08E
:1020E00009C0C03239F560E08AE00E942E0400E0A9
:1020F00011E0C0E365E0C8010E9454060E947D0D16
:10210000853079F3863061F4CC2369F3C033D9F696
:1021100060E08AE00E942E040BEF10E0C0E2EACFFC
:10212000823079F46C2F81E090E0CF911F910F9174
:102130000C947721C03339F660E08AE00E942E04C7
:10214000CCCFCF911F910F910895CF92DF92EF9254
:10215000FF92CF93DF93CDB7DEB727970FB6F894F2
:10216000DEBF0FBECDBF82E090E00E946B216B010D
:102170007C018DE091E00E947F0660E08AE00E9491
:102180002E042AE0AE014F5F5F4FC701B6010E94E7
:10219000551E65E00E94CF040E947D0D853059F0E8
:1021A0008630A9F08230F9F4B701A60182E090E010
:1021B0000E94842118C0C1148CE2D80681E0E80690
:1021C000F104D8F6CC0CDD1CEE1CFF1CD6CF81E848
:1021D000C81685E2D806E104F10478F2F694E79493
:1021E000D794C794CACF27960FB6F894DEBF0FBE18
:1021F000CDBFDF91CF91FF90EF90DF90CF9008950A
:10220000CF9380E291E00E947F0680E090E00E9400
:102210006321C82F60E08AE00E942E0465E0C111AE
:1022200003C08CE191E002C086E191E00E94540677
:102230000E947D0D853051F0863061F0823071F45E
:102240006C2F80E090E0CF910C947721C111E2CF08
:10225000C1E0E0CFC130F1F6C0E0DCCFCF9108950E
:102260002F923F924F925F926F927F928F929F92A6
:10227000AF92BF92CF92DF92EF92FF920F931F9394
:10228000CF93DF93CDB7DEB7C856D1090FB6F89418
:10229000DEBF0FBECDBF4C01CE0101967C0183E6AF
:1022A000F70111928A95E9F7A62E81E090E06C0182
:1022B00002C0CC0CDD1C6A95E2F701E010E0412C75
:1022C00089E0782EC801875F9F4F0E9463218013A9
:1022D00018C0709EF001719EF00D1124ED59FE4F53
:1022E000208530E02C213D210A2C02C03595279510
:1022F0000A94E2F7232B29F0F701E40DF11D808306
:1023000043940F5F1F4F03361105E1F6612C512CEA
:1023100077247394042D10E06E01F4E6CF0ED11CE7
:10232000180121E0221A3108C4010E947F064AE008
:10233000B601C8010E944A1EF60101900020E9F78B
:102340006E2F6C19C6010E94CF0463E088E691E00D
:102350000E9454065701A50CB11C412CF501219196
:102360005F01A9962FAFA9972223C9F04394642D4A
:1023700081E00E942E0464E088E691E00E94540609
:102380004AE0B601A996EFADA9978E2F90E00E9482
:102390004A1E63E00E94CF04F3E04F12DFCF672DA7
:1023A00080E00E942E0484E80E9441040E947D0D7A
:1023B0008530F1F038F4823031F1833009F0B4CF58
:1023C00080E025C0863031F08F3F09F0ADCF0C940E
:1023D0000000AACF862D90E0821593050CF0A4CFC3
:1023E000639482E0871510F073949ECF53949CCF32
:1023F000662009F499CF6A9491E0791611F07A94E5
:1024000093CF5A9491CFF701E60DF11D8081C85901
:10241000DF4F0FB6F894DEBF0FBECDBFDF91CF9177
:102420001F910F91FF90EF90DF90CF90BF90AF90F2
:102430009F908F907F906F905F904F903F902F90E4
:10244000089562E08CE791E00C943011CF92DF9216
:10245000FF920F931F93CF93DF93CDB7DEB7A9976A
:102460000FB6F894DEBF0FBECDBFF82ED62E86E78E
:1024700091E00E947F0664E088E691E00E945406A5
:102480000F2D10E04AE0BE016D5D7F4FC8010E9434
:102490004A1E63E00E94CF0460E082E10E942E04A5
:1024A0008D2D90E04AE0BE016D5D7F4F01960E9448
:1024B0004A1E62E00E94CF044D2D6F2D81E00E94E4
:1024C000900B87FF03C00E9476061CC089E0809FA6
:1024D000F001819FF00D1124ED59FE4F8081843071
:1024E00011F080E0C6C0DE01559680E090E0AF01BB
:1024F0009A01280F391FF90120812D930196873009
:102500009105B1F74D2D6F2D82E00E94900B87FF52
:1025100007C00E947606F12CCC24C394D12C51C064
:1025200089E0809FF001819FF00D1124ED59FE4F4D
:1025300080818530B1F6DE015C9680E090E0AF01ED
:102540009A01280F391FF90120812D9301968730B8
:102550009105B1F7E0CFCE0146960E941206F11028
:102560003DC0CE014D960E94ED0463E080E00E94E4
:102570002E046BE571E0CE0101960E942F1E66EFDE
:1025800070E0CE0101960E943F1E8E8D8F70B1F5D6
:1025900067EB70E0CE0101960E94241E64E1CE013B
:1025A00001960E94CF040E947D0D873008F04FC035
:1025B000853008F05EC0833009F45BC0843009F4D4
:1025C00053C0888D8F3F39F662E080E00E942E0470
:1025D00067E08BE890E00E945406E5CFF1E0FF123F
:1025E000E2CF69A17AA17627672776278F8D98A1F8
:1025F0009827892798270E94A505D5CF80E090E0ED
:102600002E8D30E0A601082E02C0440F551F0A94FB
:10261000E2F724233523082E02C0359527950A9426
:10262000E2F78C010F5F1F4F232B61F04AE0BE01E0
:102630006D5D7F4FC8010E944A1EBC01CE0101960C
:102640000E943F1EC80104301105D1F6A7CF873084
:1026500031F08F3F09F0B5CF0C940000B2CFF110EC
:10266000B0CFFF24F394ADCFFF2009F4AACFFA94A2
:10267000A8CFA9960FB6F894DEBF0FBECDBFDF91ED
:10268000CF911F910F91FF90DF90CF900895CF933E
:10269000DF9362E086E791E00E943011D82F882313
:1026A00091F0C0E06C2F8D2F0E942612853019F01A
:1026B000863029F008C0CC23A9F3C150F3CFCF3125
:1026C00088F7CF5FEFCFDF91CF910895CF93C82FD9
:1026D0000E947D0D0E94200464E183EA90E00E9444
:1026E00054060E947D0D823029F462E08C2FCF9138
:1026F0000C943E0CCF910895EF92FF921F93CF93CD
:10270000DF9300D000D0CDB7DEB761E08AE891E07A
:102710000E943011182F882309F44CC08AE891E0F8
:102720000E947F0664E088E691E00E945406E12E54
:10273000F12C4AE0BE016F5F7F4FC7010E944A1E25
:1027400063E00E94CF0463E0812F0E943E0C87FF6C
:1027500003C00E94760627C029E02E9DC0012F9D50
:10276000900D11249C012D593E4F7901F9012081D2
:10277000233001F58C599E4F0E94ED0463E080E008
:102780000E942E0467E085EC90E00E945406F70159
:1027900082814AE0BE016F5F7F4F90E00E944A1E37
:1027A00062E00E94CF040E947D0D833019F4812FD6
:1027B0000E9466130F900F900F900F90DF91CF91B2
:1027C0001F91FF90EF9008958F929F92AF92BF92CA
:1027D000CF92DF92EF92FF920F931F93CF93DF93ED
:1027E00000D000D01F92CDB7DEB788E991E00E94FB
:1027F0007F06AA24A394B12C10E000E0EE24EA9412
:10280000FE2CCC24CA94DC2C39E0832EC501875FD2
:102810009F4F0E946321982E8A112FC08A9CF0013D
:102820008B9CF00D1124ED59FE4F808580FF25C053
:10283000111101C0192D0F5F40E0692D82E00E9447
:10284000900B87FF03C00E94760617C08A9CF00198
:102850008B9CF00D1124ED59FE4F8081853069F479
:102860002381848190E0922B8C159D0530F4258185
:10287000E680F12CF22A192D6C012FEFA21AB20A70
:1028800083E6A816B10411F6BE016F5F7F4FFB010E
:1028900001900020E9F731975F01A61AB70A4AE0D4
:1028A000802F90E00E944A1E62E06A0D0E94CF04D1
:1028B00064E088E691E00E9454061123E1F040E0D4
:1028C000612F81E00E94900B87FF03C00E94760673
:1028D00012C029E0129FC0011124FC01ED59FE4FE6
:1028E0002081243041F48C599E4F0E941206B7017A
:1028F000C6010E94A5050E947D0D833029F08F3FFF
:1029000059F18230C1F706C0002331F180E00E9406
:10291000661322C0002301F160E088E991E00E9483
:102920003011082F8823C1F010E0612F802F0E9402
:102930002612853049F018F4833071F0F6CF8630D6
:1029400039F08F3F49F0F1CF112379F31150EDCFDA
:102950001F3158F71F5FE9CF0F900F900F900F9026
:102960000F90DF91CF911F910F91FF90EF90DF902B
:10297000CF90BF90AF909F908F9008957F928F924D
:102980009F92AF92BF92CF92DF92EF92FF920F93FE
:102990001F93CF93DF93CDB7DEB764970FB6F8944C
:1029A000DEBF0FBECDBF5C01E12CF50124E0E29E4D
:1029B000E00DF11D112484819581892B11F0E394A0
:1029C000F4CF01E0F12C11E0F501808191810E94AA
:1029D0007F06C501F4E0FF9E800D911D11249C012E
:1029E0002C5F3F4F6901912CF60120813181211527
:1029F000310529F1DE01119680E090E07A2E8B2ED0
:102A0000F901E80FF91F4491403C18F0E491E05EB1
:102A100001C0E491ED9301968331910589F7939478
:102A2000692D81E00E942E0463E1872D982D0E947C
:102A3000CF04F4E0CF0ED11C23E09212D5CF612F4A
:102A400080E00E942E0484E80E9441040E947D0DD3
:102A5000853061F1C8F4823099F1833009F0B4CF48
:102A600064960FB6F894DEBF0FBECDBFDF91CF9155
:102A70001F910F91FF90EF90DF90CF90BF90AF909C
:102A80009F908F907F900895863031F08F3F09F0AE
:102A90009BCF0C94000098CF0E1508F095CF0F5FD8
:102AA000133010F41F5F90CFF3948ECF023008F4F0
:102AB0008BCF0150113011F0115086CFFA9484CF92
:102AC000F50134E0039FE00DF11D11240280F38134
:102AD000E02D099579CF0F931F93CF93DF930E9439
:102AE000F90AC1E0D0E010E009E0CE01875F9F4F16
:102AF0000E9463218C1311C00C9FF0010D9FF00DFB
:102B00001124ED59FE4F808582FF07C01F5F1130F1
:102B100021F4D0935D01C0935C012196C336D105A9
:102B200021F7123038F00E94920D90E090935D01F1
:102B300080935C018CE790E0DF91CF911F910F9122
:102B40000C94BE14CF92DF92EF92FF92CF9380EA63
:102B500090E00E94BE1482E090E00E946B216B0125
:102B60007C0181E090E00E946321C82F80E090E02A
:102B70000E946321A70196016C2FCF91FF90EF90E7
:102B8000DF90CF900C940D1C8CEC90E00C94BE1454
:102B90006F927F928F929F92AF92BF92CF92DF926D
:102BA000EF92FF920F931F93CF93DF9300D000D04B
:102BB0001F92CDB7DEB733E0732EEE24E394F12CF1
:102BC00000E010E05EE3C52E51E0D52ECE01019667
:102BD0005C016AE0862E912C7AE0672E8EE690E00A
:102BE0000E947F0662E080E00E942E041F930F93F4
:102BF000DF92CF92BF92AF920E94A01E64E0C50107
:102C00000E94CF0462E0872D0E942E040E941804C7
:102C10000E947D0D0F900F900F900F900F900F90CE
:102C20008530C1F040F4833009F457C0E8F48230B5
:102C300009F445C0D3CF873069F128F08F3F71F692
:102C40000C940000CBCF0E191F0917FFC7CF0FE060
:102C500017E2C4CF0E0D1F1D0F3097E219070CF4B9
:102C6000BDCF00E010E0BACF88EEE81683E0F806AA
:102C70003CF4C701689E7001699EF00C112403C0EA
:102C8000EE24E394F12C711003C023E0722EA6CF42
:102C90007A94A4CF92E0E916F10434F0C701B401AC
:102CA0000E94DA1D7B0104C088EEE82E83E0F82E36
:102CB00083E0781202C0712C91CF73948FCF0E9461
:102CC0001B0487E090E00E9471210817190739F46E
:102CD00084EB90E00E94BE1402C00E941B040F907F
:102CE0000F900F900F900F90DF91CF911F910F9148
:102CF000FF90EF90DF90CF90BF90AF909F908F901C
:102D00007F906F900895FF920F931F93CF93DF935F
:102D100000D000D000D0CDB7DEB7182F60915C0195
:102D200070915D016115710509F441C086E09E0155
:102D30002F5F3F4FF901982F11929A95E9F78983F8
:102D400089E0F82EF69EF001F79EF00D1124ED5962
:102D5000FE4F82E08087072E000C880B990B07EF4F
:102D600043E00E948B0780EB91E00E947F068091F8
:102D70005C010E94700187FD0EC080915C01909102
:102D80005D01F89EF001F99EF00D1124ED59FE4F02
:102D90008081863061F00E947606EFEFF7EA21E647
:102DA000E150F0402040E1F700C0000046C08AED4D
:102DB00091E00E947F0680915C0190915D0129E085
:102DC000289FF001299FF00D1124ED59FE4FE10FCE
:102DD000F11D8081882321F010811295117001C0AE
:102DE00012E062E080E00E942E0464E1111103C051
:102DF0008CEA91E007C0113019F487EA91E002C033
:102E00008EEE91E00E9454060E947D0D853089F07F
:102E100018F4833091F0E5CF863029F08F3F09F721
:102E20000C940000DECF123011F410E0DACF1F5FF7
:102E3000D8CF1123A9F21150D4CF26960FB6F8940B
:102E4000DEBF0FBECDBFDF91CF911F910F91FF90DD
:102E500008955F926F927F928F929F92AF92BF92EE
:102E6000CF92DF92EF92FF920F931F93CF93DF9356
:102E700000D000D000D0CDB7DEB7582E77247394A1
:102E8000CC24C394D12C882E912C39E0632ECE0112
:102E900001965C0180E292E00E947F0691E0791247
:102EA00002C061E001C062E080E00E942E0484E87C
:102EB0000E94410461E081E00E942E046AE083EDFB
:102EC00091E00E94540662E081E00E942E0464E1D9
:102ED0008AED91E00E9454060E947D0D853059F1E3
:102EE000D0F4823081F18330A9F626960FB6F8949B
:102EF000DEBF0FBECDBFDF91CF911F910F91FF902D
:102F0000EF90DF90CF90BF90AF909F908F907F9089
:102F10006F905F900895863031F08F3F09F0BACFFF
:102F20000C940000B7CFE2E07E1203C077247394C4
:102F3000B1CF7394AFCFF1E07F1203C092E0792E4E
:102F4000A9CF7A94A7CF21E0721254C160915C019D
:102F500070915D0161157105E1F196E0F501292F90
:102F600011922A95E9F79983669EF001679EF00D0C
:102F70001124ED59FE4F8087072E000C880B990B0A
:102F800007EF950142E00E948B0780EB91E00E94E1
:102F90007F0680915C010E94700187FD0EC08091C8
:102FA0005C0190915D01689EF001699EF00D112415
:102FB000ED59FE4F8081863061F00E9476068FEFDA
:102FC00097EAE1E681509040E040E1F700C0000060
:102FD00061CF80915C0190915D01009759F0689EEE
:102FE000F001699EF00D1124ED59FE4FE80DF91D19
:102FF000E08001C0E12C83ED91E00E947F0661E05A
:1030000080E00E942E0484E80E94410461E081E097
:103010000E942E0465E08DEC91E00E94540661E070
:103020008BE00E942E0465E087EC91E00E9454063C
:1030300062E081E00E942E0465E081EC91E00E9454
:10304000540662E08BE00E942E0465E08BEB91E079
:103050000E945406F12C01E010E061E086E00E943D
:103060002E0464E0E0FE03C083EF91E002C08EEE28
:1030700091E00E94540661E080E10E942E0464E029
:10308000E1FE03C083EF91E002C08EEE91E00E946A
:10309000540662E086E00E942E0464E0E2FE03C073
:1030A00083EF91E002C08EEE91E00E94540662E050
:1030B00080E10E942E0464E0E3FE03C083EF91E010
:1030C00002C08EEE91E00E94540663E080E00E9410
:1030D0002E040E947D0D853089F038F4823008F48A
:1030E000BCCF843008F4D6CE44C0873011F130F024
:1030F0008F3F09F0B2CF0C940000AFCF8E2D90E03F
:103100000F2C02C0959587950A94E2F780FF09C0BD
:10311000C6010F2C01C0880F0A94EAF78095E822B7
:103120009CCFC6010F2C01C0880F0A94EAF7E82A49
:1031300094CF1123A1F0023009F460C0602F812FD9
:103140000E942E0480E20E9441040F5FF394602FDE
:1031500080E00E942E0484E80E9441047DCF602F0D
:10316000812F0E942E0480E20E944104F394165F96
:1031700023C0812F90E00A97A4F4013009F450C0D5
:10318000602F812F0E942E0480E20E944104015092
:10319000FA94602F8AE00E942E0484E80E94410481
:1031A00027C0112389F0602F812F0E942E0480E216
:1031B0000E944104FA941A50602F812F0E942E041D
:1031C00084E80E94410449CF013009F046CF61E014
:1031D00080E00E942E0480E20E94410462E08AE0C6
:1031E0000E942E0484E80E94410483E0F82E02E04D
:1031F0001AE033CF852D0E9483164CCE1A3009F089
:10320000AECF62E08AE00E942E0480E20E94410478
:1032100061E080E00E942E0484E80E9441041ACFFD
:103220001111C1CFD4CF87E00C94291786E00C94FC
:10323000291785E00C94291784E00C94291783E062
:103240000C94291782E00C94291781E00C9429171B
:10325000CF93DF93CDB7DEB764970FB6F894DEBF98
:103260000FBECDBF0E94560A33243394E0E26E2E87
:10327000E1E07E2ECE0101966C01F3E4AF2EF1E089
:10328000BF2EA2E04A2EB9E05B2E18E8812E13E192
:10329000912E80914D01982F9270282F217080FDE2
:1032A00006C0911104C07FE9E72E71E0F72E30913E
:1032B0004C01311103C030924C0108C010924C01F6
:1032C000222321F068E9E62E61E0F62E992341F0F1
:1032D00090914C01913021F45AE8E52E51E0F52E01
:1032E00083FF04C04CECE42E40E0F42E60E080E06C
:1032F0000E942E0464E1C7010E94540682EF94E00C
:103300000E94D6028091F7041F928F938091F60459
:103310001F928F938091F5041F928F938091F204F6
:103320001F928F938091F3041F928F938091F404E6
:103330001F928F937F926F92DF92CF920E94A01E76
:103340008091F2049091F30498278927982790930D
:10335000ED048093EC048091F4049091F504982797
:10336000892798279093EF048093EE048091F604C8
:103370009091F7049827892798279093F1048093D8
:10338000F00463E080E00E942E040FB6F894DEBFE4
:103390000FBECDBF80914B018823A1F080914D01DC
:1033A000886080934D0164E185EC90E00E945406B2
:1033B00063E087E00E942E0480914B01805D0E94B3
:1033C000410404C064E1C6010E94CF0480914D0114
:1033D0001F928F93BF92AF92DF92CF920E94A01E56
:1033E00061E080E00E942E0464E1C6010E94CF04E7
:1033F0000F900F900F900F900F900F9080914A01B7
:10340000811140924B0180914E01882319F085E093
:1034100080934B0180914701882319F083E08093CA
:103420004B0110924D011092EB041092EA0410929D
:10343000E9041092E8041092E7041092E60401E017
:1034400010E0C801875F9F4F0E946321801353C023
:103450002091E6043091E7042F5F3F4F3093E7045B
:103460002093E604509EF001519EF00D1124ED5979
:10347000FE4F908595FF05C090914D01906290930D
:103480004D01509EF001519EF00D1124ED59FE4F5B
:10349000908590FF18C02091EA043091EB042F5FD3
:1034A0003F4F3093EB042093EA0420904D01922D7E
:1034B000916090934D010E94270D882321F0822D69
:1034C000816480934D01509EF001519EF00D1124B6
:1034D000ED59FE4F808581FF0EC08091E8049091E8
:1034E000E90401969093E9048093E80480914D01EA
:1034F000826080934D0180914D0185FF02C0DA9A70
:1035000001C0DA9880914D0180FF02C0DB9A01C0B2
:10351000DB9880914D0186FF02C0D99A01C0D998ED
:1035200080914D0181FD04C080914B01882311F0F1
:10353000D89801C0D89A0F5F1F4F0336110509F0C4
:1035400080CF80914B0190E0982F882720914D01EA
:10355000822B9093E3048093E20489B38F7090E010
:103560009093E5048093E40480915E0190915F0163
:10357000892B69F40E94B60A90925F0180925E01E5
:1035800060E083E10E942E048AE20E94410408EE7A
:1035900013E080915401811119C08FE99FE00197D8
:1035A000F1F700C000000E943E0D823061F40E94DD
:1035B0003E0D8F3FE1F780E690E00E94BE140E942E
:1035C000200410924D010150110919F78091540106
:1035D000882309F45ECE0E94011D181624F085E0B0
:1035E00080934B0156CEDD9880914B01853011F4CC
:1035F00010924B011091A40586E090E00E94632197
:10360000181341C0E091A605F091A705FE27EF270A
:10361000FE278091A8059091A905982789279827CA
:10362000AF01480F591F2091A5054930510538F0C9
:1036300020682093A5054092A60583E026C023308C
:10364000E9F4EE0FFF1FEE51FB4FA4EAB5E020E0D6
:1036500030E012968217930761F0408151813296D3
:1036600011965C93119712964C9312972F5F3F4FD0
:10367000F0CF880F8093A6058D5F07C02068209348
:10368000A5053092A605DD9A04CE0E945E1CFBCFF4
:103690001F920F920FB60F9211248F939F93AF93A7
:1036A000BF938091DE049091DF04892B49F08091D3
:1036B000DE049091DF0401979093DF048093DE0491
:1036C0008091E0049091E104892B49F08091E0041D
:1036D0009091E10401979093E1048093E00480913C
:1036E000610190916201892B49F080916101909173
:1036F00062010197909362018093610180915E0164
:1037000090915F01892B49F080915E0190915F015A
:10371000019790935F0180935E0180915601909193
:103720005701A0915801B0915901892B8A2B8B2BFD
:1037300099F08091560190915701A0915801B09154
:1037400059010197A109B10980935601909357013E
:10375000A0935801B0935901BF91AF919F918F9160
:103760000F900FBE0F901F9018951F920F920FB6DB
:103770000F9211248F939F93EF93FF938BB19CB182
:103780008C7111F083E019C0E0915501F0E0E4582C
:10379000FA4F9083809155018F5F80935501883255
:1037A00011F410925501809154018F5F8093540160
:1037B000883229F41092540182E080934E01FF91E7
:1037C000EF919F918F910F900FBE0F901F901895C2
:1037D0005D9BFECF8CB95E9BFECF5E9A0895282F2D
:1037E0008FEF9FEFE4EAF5E02150B0F0BF016F5F8B
:1037F0007F4F3081832738E0AC015695479580FF95
:1038000006C0CA01E1E08E27E0EA9E2701C0CA0196
:10381000315091F7FB01E8CF08950F931F93CF9399
:10382000DF93182FC62F662311F001E001C002E0DC
:10383000113011F0D8E001C0D7E084E0220F331F2F
:10384000441F551F8A95D1F760E074E284EF90E041
:103850000E94EE1D215031092F773327D5508E9AC3
:10386000969810935301113029F082E090E0A0E087
:10387000B0E004C088EE93E0A0E0B0E080934F0198
:1038800090935001A0935101B0935201919A899A5B
:10389000909A88981BB888E98AB981E0023009F0CB
:1038A00080E0C0688C2BCD2FCC0FC82BC0BD10BCC6
:1038B00029B9DF91CF911F910F910895EF92FF9257
:1038C0000F931F93CF93DF93C82F809153018823C9
:1038D00041F0813009F08EC09C2F80E0E4EAF5E0F1
:1038E00035C08C2F0E94EF1BF82ED92F969A04EA30
:1038F00015E0CC2339F0F80181918F010E94E81B7B
:10390000C150F7CF8F2D0E94E81B8D2F0E94E81B1E
:10391000969880914F0190915001A0915101B091E2
:1039200052018093560190935701A0935801B09390
:1039300059018091560190915701A0915801B09181
:103940005901892B8A2B8B2BA1F754C0915020F061
:103950002081820F3196FACFD82FD195969AFFEF1A
:1039600029EF80E0F15020408040E1F700C00000E6
:103970008AE30E94E81B04EA15E0CC23F1F0780109
:10398000F801808182958F7090E3980F9A3310F040
:10399000895C01C0892F0E94E81B0F5F1F4FF70150
:1039A00080818F7090E3980F9A3310F0895C01C08A
:1039B000892F0E94E81BC150E0CF9D2F92959F70E8
:1039C00080E3890F8A3310F087E3890F0E94E81B98
:1039D0008D2F8F70D0E3D80FDA3310F0895C01C0DF
:1039E0008D2F0E94E81B8DE00E94E81B8AE00E9458
:1039F000E81B9698DF91CF911F910F91FF90EF9068
:103A000008958F929F92AF92BF92CF92DF92EF92E2
:103A1000FF920F931F93CF93C0904F01D09050010E
:103A2000E0905101F0905201609153019091CC05CA
:103A300020E080E0C0925601D0925701E0925801F8
:103A4000F09259013091540131110DC0809056010E
:103A500090905701A0905801B090590189288A2868
:103A60008B2881F734C0E92FF0E09F5F61110AC015
:103A7000E458FA4F3081E82FF0E0EC55FA4F3083EC
:103A80008F5F1AC0E458FA4F30813D3009F43CC0D2
:103A90003A3391F0482F50E0211158C0208130ED89
:103AA000320F3A3208F44CC02755FA01EC55FA4F60
:103AB0002295207F208321E0983209F490E0F89449
:103AC000309154013150309354017894B3CF611147
:103AD00053C09093CC05282F30E02C553A4FF90174
:103AE0003197008110E0102F002731979081092B2A
:103AF000CEEFC80F8C2F0E94EF1B0817190711F487
:103B00008C2F40C085E03BC0983219F09093CC05D3
:103B100002C01092CC05F89490915401915090936A
:103B200054017894282F90E0E4EAF5E0215020F049
:103B30003081930F3196FACF9111E4CF815022C09A
:103B40003A3010F02753B1CF232FAFCF208130ED83
:103B5000320F3A3210F0275505C03A3010F0275393
:103B600001C0232FFA01EC55FA4F2F703081232B1F
:103B700020838F5F20E0A0CF9093CC0581E08093DD
:103B80004E018FEFCF911F910F91FF90EF90DF903B
:103B9000CF90BF90AF909F908F900895991B79E040
:103BA00004C0991F961708F0961B881F7A95C9F7CD
:103BB0008095089597FB072E16F4009407D077FDA3
:103BC00009D00E94101E07FC05D03EF49095819507
:103BD0009F4F0895709561957F4F0895A1E21A2E29
:103BE000AA1BBB1BFD010DC0AA1FBB1FEE1FFF1FA1
:103BF000A217B307E407F50720F0A21BB30BE40BF1
:103C0000F50B661F771F881F991F1A9469F7609537
:103C10007095809590959B01AC01BD01CF010895F1
:103C2000AA1BBB1B51E107C0AA1FBB1FA617B707E2
:103C300010F0A61BB70B881F991F5A95A9F78095FE
:103C40009095BC01CD010895FB01DC010D90002091
:103C5000E9F7119705900D920020E1F70895FB0117
:103C6000DC0105900D920020E1F70895FC0105901C
:103C70000020E9F7809590958E0F9F1F0895FB0116
:103C8000DC010D900020E9F7119701900D920020C2
:103C9000E1F70895BB274A3031F4992322F4BDE2BD
:103CA000909581959F4F0C94871EBB272A3051F425
:103CB000992342F4BDE290958095709561957F4F70
:103CC0008F4F9F4F0C94651EBB27FA01A62F6217DA
:103CD000710581059105330B30FB66F0AA27660F4D
:103CE000771F881F991FAA1FA21710F0A21B6395A8
:103CF0003850A9F7A05DAA3308F0A95DA19336F763
:103D0000B111B1931082CA010C94B920BB27FB01F9
:103D10005527AA27880F991FAA1FA41710F0A41BC4
:103D200083955051B9F7A05DAA3308F0A95DA1931E
:103D3000009779F7B111B1931192CB010C94B9208E
:103D4000AEE0B0E0E6EAFEE10C94AF210D891E89F9
:103D500086E08C831A8309838FEF9FE79E838D8390
:103D6000AE01475E5F4F6F89788DCE0101960E944C
:103D7000C21EEF81F885E00FF11F10822E96E4E05D
:103D80000C94CB21ABE0B0E0E8ECFEE10C94A12177
:103D90006C017B018A01FC0117821682838181FFFD
:103DA000CCC1CE0101963C01F6019381F70193FD50
:103DB000859193FF81917F01882309F4BAC18532EF
:103DC00039F493FD859193FF81917F01853229F428
:103DD000B60190E00E94C920E7CF912C212C312C14
:103DE000FFE1F315D8F08B3279F038F4803279F0B6
:103DF0008332A1F4232D20611DC08D3261F0803308
:103E000069F4232D216016C0832D8260382EE32DA6
:103E1000E4603E2E2AC0F32DF8601DC037FC2DC093
:103E200020ED280F2A3040F08E32B9F436FC81C1E3
:103E3000232D2064322E19C036FE06C08AE0989EDB
:103E4000200D1124922E11C0EAE02E9E200D112487
:103E5000222EF32DF0623F2E08C08C3621F4832DE4
:103E60008068382E02C0883641F4F70193FD8591B1
:103E700093FF81917F018111B3CF982F9F7D95543E
:103E8000933028F40C5F1F4F9FE399830DC0833656
:103E900031F0833771F0833509F059C021C0F80142
:103EA000808189830E5F1F4F88248394912C530156
:103EB00013C02801F2E04F0E511CF801A080B18020
:103EC00036FE03C0692D70E002C06FEF7FEFC501C1
:103ED0000E94AE204C018201F32DFF773F2E16C0C9
:103EE000280122E0420E511CF801A080B18036FE6C
:103EF00003C0692D70E002C06FEF7FEFC5010E9423
:103F0000A3204C01F32DF0683F2E820133FC1BC02F
:103F1000822D90E088169906B0F4B60180E290E018
:103F20000E94C9202A94F4CFF50137FC859137FE11
:103F300081915F01B60190E00E94C92021102A946E
:103F400021E0821A91088114910471F7E8C0843647
:103F500011F0893641F5F80137FE07C060817181A3
:103F6000828193810C5F1F4F08C060817181072E91
:103F7000000C880B990B0E5F1F4FF32DFF763F2E21
:103F800097FF09C090958095709561957F4F8F4FF1
:103F90009F4FF0683F2E2AE030E0A3010E940521E8
:103FA000882E861845C0853731F4232D2F7EB22EFA
:103FB0002AE030E025C0932D997FB92E8F36C1F0CD
:103FC00018F4883579F0B5C0803719F0883721F0BA
:103FD000B0C0E92FE061BE2EB4FE0DC0FB2DF46031
:103FE000BF2E09C034FE0AC0292F2660B22E06C09B
:103FF00028E030E005C020E130E002C020E132E0FE
:10400000F801B7FE07C060817181828193810C5FE6
:104010001F4F06C06081718180E090E00E5F1F4FEE
:10402000A3010E940521882E8618FB2DFF773F2EC5
:1040300036FE0DC0232D2E7FA22E891458F434FE97
:104040000BC032FC09C0832D8E7EA82E05C0B82C73
:10405000A32C03C0B82C01C0B92CA4FE0FC0FE01D4
:10406000E80DF11D8081803321F49A2D997EA92ECF
:1040700009C0A2FE06C0B394B39404C08A2D86780A
:1040800009F0B394A3FC11C0A0FE06C0B21488F4DA
:10409000280C922C9B180EC0B21460F4B60180E27A
:1040A00090E00E94C920B394F7CFB21418F42B18F3
:1040B00002C0982C212CA4FE10C0B60180E390E031
:1040C0000E94C920A2FE17C0A1FC03C088E790E0AF
:1040D00002C088E590E0B6010CC08A2D867859F0C0
:1040E000A1FE02C08BE201C080E2A7FC8DE2B60116
:1040F00090E00E94C920891438F4B60180E390E072
:104100000E94C9209A94F7CF8A94F301E80DF11D1B
:104110008081B60190E00E94C9208110F5CF222055
:1041200009F442CEB60180E290E00E94C9202A94B0
:10413000F6CFF6018681978102C08FEF9FEF2B9615
:10414000E2E10C94BD21FC0105906150704001102A
:10415000D8F7809590958E0F9F1F0895FC016150B0
:10416000704001900110D8F7809590958E0F9F1F99
:104170000895DC01FC01672F71917723E1F73297F5
:1041800004C07C916D9370836291AE17BF07C8F332
:1041900008950F931F93CF93DF93FB01238121FD9C
:1041A00003C08FEF9FEF2CC022FF16C046815781BE
:1041B000248135814217530744F4A081B1819D01C8
:1041C0002F5F3F4F318320838C93268137812F5F70
:1041D0003F4F3783268314C08B01EC01FB01008421
:1041E000F185E02D0995892BE1F6D80116968D9180
:1041F0009C911797019617969C938E931697CE01D4
:10420000DF91CF911F910F910895FA01AA272830CD
:1042100051F1203181F1E8946F936E7F6E5F7F4F93
:104220008F4F9F4FAF4FB1E03ED0B4E03CD0670F0F
:10423000781F891F9A1FA11D680F791F8A1F911D62
:10424000A11D6A0F711D811D911DA11D20D009F4B2
:1042500068943F912AE0269F11243019305D3193F4
:10426000DEF6CF010895462F4770405D4193B3E0DD
:104270000FD0C9F7F6CF462F4F70405D4A3318F084
:10428000495D31FD4052419302D0A9F7EACFB4E035
:10429000A6959795879577956795BA95C9F70097ED
:1042A0006105710508959B01AC010A2E069457958E
:1042B000479537952795BA95C9F7620F731F841FE5
:1042C000951FA01D0895E199FECF9FBB8EBBE09A7C
:1042D00099278DB30895A6E1B0E044E050E00C9436
:1042E0009321A8E1B0E042E050E00C949321262F06
:1042F000E199FECF9FBB8EBB2DBB0FB6F894E29A1F
:10430000E19A0FBE01960895242F0E947821252F4F
:104310000E9478210C948C210E947721272F0C94E5
:104320007821DC01CB01FC01E199FECF06C0FFBB87
:10433000EEBBE09A31960DB20D9241505040B8F765
:1043400008952F923F924F925F926F927F928F9239
:104350009F92AF92BF92CF92DF92EF92FF920F9314
:104360001F93CF93DF93CDB7DEB7CA1BDB0B0FB61E
:10437000F894DEBF0FBECDBF09942A8839884888DB
:104380005F846E847D848C849B84AA84B984C88471
:10439000DF80EE80FD800C811B81AA81B981CE0F68
:1043A000D11D0FB6F894DEBF0FBECDBFED0108954D
:0443B000F894FFCFAF
:1043B400850100007C0121129801E4138A017C1319
:1043C400760147136C01C815000000001A020000B2
:1043D40015022519100222190B021F1906021C19B5
:1043E40001021919FC011619F70113190000000044
:1043F40026010000200100110D01A5100401551033
:10440400000000006C0100005001880F4301F90A0C
:104414003201C4152601A21500000000320100007B
:10442400F000850FE600820FDB007F0F20026B1582
:10443400000000001F0C63173B3BF404F304F20478
:10444400F504F604F7043A00253032752E2530328F
:10445400752E253032752020253032753A253032BC
:10446400753A253032750025303264002564002009
:10447400253032752E253032752E253032752025A3
:104484003032753A253032753A2530327500253090
:06449400346400257500F0
:00000001FF
